:020000040800F2
:10000000C8B50020A5020008557E00084D40000834
:10001000537E0008C33900084D940008000000001A
:100020000000000000000000000000000D93000828
:10003000A33C000800000000BF7E0008FB930008FE
:10004000BF020008BF020008BF020008BF0200088C
:10005000BF020008BF020008BF020008BF0200087C
:10006000BF020008BF020008BF020008BF0200086C
:10007000BF020008BF020008BF020008BF0200085C
:10008000BF020008BF020008BF020008BF0200084C
:10009000BF020008BF020008BF020008BF0200083C
:1000A000BF020008BF020008BF020008BF0200082C
:1000B000BF020008BF020008BF020008BF0200081C
:1000C000BF020008BF020008BF020008BF0200080C
:1000D000BF020008BF020008BF020008BF020008FC
:1000E000BF020008BF020008BF020008BF020008EC
:1000F000BF020008BF020008BF020008BF020008DC
:10010000BF02000829800008BF020008BF020008E3
:10011000BF020008BF020008BF020008BF020008BB
:10012000BF020008BF020008BF020008BF020008AB
:1001300000F002F800F08BF80AA090E8000C82446E
:100140008344AAF10107DA4501D100F080F8AFF24B
:10015000090EBAE80F0013F0010F18BFFB1A43F0A5
:100160000103184758870100788701000A444FF0BF
:10017000000C10F8013B13F0070408BF10F8014B06
:100180001D1108BF10F8015B641E05D010F8016B4B
:10019000641E01F8016BF9D113F0080F1EBF10F8AF
:1001A000014BAD1C0C1B09D16D1E58BF01F801CBD2
:1001B000FAD505E014F8016B01F8016B6D1EF9D555
:1001C0009142D6D37047000000230024002500266A
:1001D000103A28BF78C1FBD8520728BF30C148BFAA
:1001E0000B607047702900F0BC81672916F0D5803C
:1001F000732901F07283002070471FB59DE803004A
:1002000000F0F6FF00F0AFFC00F0D6FF0400002085
:10021000002115F025FA20600020002115F00AFACF
:10022000401C60600020002115F030FAA060002022
:10023000002115F041FAE06001F0F8FE00F030F81E
:100240008DE80F001FBD10B501F059FF10BD02F081
:10025000EAFB1146FFF7D1FF12F028F900F08CFC01
:1002600003B4FFF7F0FF03BC09F039FA0B49D1F8EA
:1002700000C04A685CF8043B1068184442F8040B5C
:100280008C4528BFA1F1DC0C8A4228BFA1F1DC0219
:10029000C1F800C04A6020F0004070475C25002093
:1002A00002F03DBB0948804709480047FEE7FEE7EA
:1002B000FEE7FEE7FEE7FEE7FEE7FEE7FEE7FEE716
:1002C00004480549054A064B70470000FD930008A5
:1002D00031010008C8250020C8B50020C8A50020AD
:1002E000C8A500207047000010B500F065FF001D94
:1002F00010BD00BF41530100004870476425002035
:1003000070B50446051F00F053FF0068002C14BFB1
:10031000446870BD002C18BFAC423CBF20466468E6
:10032000F8D301680A18AA4218BF456003D12A68A9
:1003300005461144016028684119A1421CBF6C6048
:1003400070BD6168696021680844286070BD70B53F
:100350000D460646041F00F02BFFD0F800C0C5B1C3
:10036000E6B105F10B0020F00703AB423CBF0020D3
:1003700070BD2068984238BFDCF8042013D3C11A3E
:1003800008292FD3E01840F8041B2360FFF7B8FFBB
:1003900028E03046FFF7B4FF002070BD2846BDE8D6
:1003A000704000F054BF002A18BFA2423CBF9446E0
:1003B0005268F8D30119914216D111680844984245
:1003C00012D3C11A08293CBF2060506808D3516875
:1003D000E0184160216812681144C91A0160236065
:1003E000CCF80400201D70BD181F00F030FF050080
:1003F00007D021680A1F211D00F04EFD201DFFF7C8
:100400007FFF284670BD10B54C1084EA530404D514
:100410004042C1F1000138BF491E1B4204D552427F
:10042000C3F1000338BF5B1E00F040FF14F0804FA3
:1004300004D04042C1F1000138BF491E14F0004F02
:1004400004D05242C3F1000338BF5B1E10BD0FB48D
:10045000014610B504AA039801F044FA10BC5DF8F7
:1004600014FB00000FB41CB5084B06AA7B44694678
:100470000090059801F007FA04460020694601F053
:1004800015FA20461CBC5DF814FB00003D1400006A
:1004900070B50C460546012A05D02878800600D59F
:1004A000EA69002302E0012305E05B1C934202D2CB
:1004B000E05C0028F9D1A869E618C01AA861286A8A
:1004C000184428622846AFF3008004E0D5E90121F2
:1004D00014F8010B9047B442F8D32846AFF30080DC
:1004E00070BD0000F0B40D460188090502D5214C0D
:1004F0007C4402E01F4C7C440E34002100F12406B1
:1005000008E002F00F071209E75D42EA03721B09D7
:100510007754491C52EA0307F3D1027800231207EB
:1005200004D5702D06D009B1022311342246F0BC47
:1005300000F03EBF01231034F8E770B504460D46C5
:1005400021461068AFF30080024629462046BDE8E8
:1005500070400023C6E7D21D22F00703D3E9002331
:10056000C0E70368126843F0200303600823C361F7
:100570000023B7E7FC7E01002DE9F05F89460446C1
:100580004FF0000ADFF874B1FB44C0F820A0204609
:10059000E1688847002874D0252806D0D4E90121D5
:1005A0009047206A401C2062F1E700265F46204603
:1005B000E16888472028054607DB312D05D27819E8
:1005C00010F8200C08B10643F1E7B00701D526F07A
:1005D0000406C4F81CA00027C4F818A02A2D09D0CE
:1005E000284609F071F838B304EB8708303DC8F8A5
:1005F000185019E059F8041B204604EB870291615A
:10060000E1688847012F054618D1E069002820DA03
:1006100026F020061DE0D8F8180000EB800005EB5E
:1006200040003038C8F818002046E1688847054681
:1006300009F04AF80028EED1012F0AD02E2D08D15A
:100640002046E16888477F1C0546022F46F02006B9
:10065000C4DBA069002803DA404246F00106A0612D
:10066000F00701D026F010066C2D0BD0682D09D0B4
:100670004C2D39D06A2D35D0742D35D07A2D33D00C
:1006800016E038E0E1682F4620468847B842054624
:1006900009D16C2F26D04FF48060E16806432046D4
:1006A0008847054604E06C2F1AD04FF4807006434B
:1006B0000DB3A5F14100192802D8203546F4006693
:1006C0004A462946204626604E46FFF78BFD80B1FC
:1006D00001280BD0F61D26F0070000F1080956E7A7
:1006E0004020E4E78020D8E70020D6E706F104099F
:1006F0004DE7284652E7206ABDE8F09F8C7E010056
:100700002DE9F05F93460F46804604460026FFF72A
:10071000F3FDD0F80090824614F8015B2DB1FFF78D
:10072000E3FD0068405DC007F6D12B2D02D02D2DD2
:100730001AD0641E0021CAF800105A4639462046D5
:1007400001F034FB014627B13868A04201D1C7F857
:100750000080DAF80000022809D0CAF8009070057D
:1007600005D54842BDE8F09F46F48066E2E70846BA
:10077000F8E7007B00F040007047007B00F080004D
:100780007047000070B50446C068810713D080062A
:1007900001D5A56A04E0A169606808442169451A89
:1007A000204601F0D7FB002206462946204600F0ED
:1007B0002DF8304670BD002070BD70B510B1BDE899
:1007C0007040DFE70025074C6E1E07E02046FFF76C
:1007D000D9FF00B13546206D20F00104002CF5D181
:1007E000284670BD5423002070B50D46044604E031
:1007F00029460BF0F7FD401C04D014F8010B00282B
:10080000F6D170BD4FF0FF3070BD00002DE9F04112
:10081000044616460D464769007B80072ED03846B1
:1008200008F060FF50BB3EB3012E02D0022E25D14E
:1008300004E0204600F066F805441DE0384608F064
:100840004FFFE168002841F01001E16005DA204621
:1008500001F04CFB0120BDE8F081C9030BD56268B3
:10086000E16A914200D81146A26911442269891AAD
:10087000814200DD08460544002D01DA0220EAE746
:10088000E16A6068E268814206D29103E06203D5C2
:1008900022F4003141F01002A6690027AE4213DCB9
:1008A000E16A814201D90B4600E0034603EB060CE6
:1008B0002369ACEB030CAC4506DD814201D98C46C3
:1008C00000E084469C4505D1A760276042F02000E7
:1008D000A5620DE0AD1BE669AE1B8142A66000D9A2
:1008E0000846C01A281A20605819606022F02000BB
:1008F00003490840E060002084F84870ABE700003E
:10090000BFCFD7FF10B50146C268900703D090064D
:1009100007D5886A0AE0FFF7EFFC01210160881E15
:1009200010BD8B69486818440B69C01A91F84830AB
:100930001BB191F84910401A10BD1103FCD50028D5
:10094000FADD401E10BD0BF07CBA70B5C468A50777
:1009500013D0650211D4B2F5807F09D0B2F5007FC3
:1009600006D0B2F5806F08D1012300F1240106E022
:100970005D1E6FF07F46B54201D3012070BD01615D
:10098000C361416024F470611143C160002070BDF7
:10099000CA68431C0FD00D4B1A420CD1D3070AD0A2
:1009A00081F825004B680B6300238B6012F0C06F49
:1009B0000B6003D004E04FF0FF30704742F000724C
:1009C000034B1A40034B1A43CA607047802008004B
:1009D000BFFFDFFF001048002DE9F0410C4607463D
:1009E0001646104600F06EF82078611C61280AD087
:1009F000722802D077283CD102E00125002405E0CE
:100A00000225042402E0082448F2020511F8010B33
:100A10002B2806D0622809D011F8010C74280AD0BE
:100A20000BE045F0030544F00204EFE745F0040550
:100A300044F00104EAE744F010043846214608F087
:100A400053FE411C15D00021316171604FF40071DB
:100A5000F560F1617061200704D530460222002163
:100A6000FFF7D4FE306D40F0010030653046BDE840
:100A7000F0810020FBE72DE9F0410D460646104CC1
:100A8000206DC10704D0410804D020F00104F7E72D
:100A900022460EE0542000F0DAFB07000ED0206D55
:100AA00047F00101084354212065384600F026FA3A
:100AB0003A4629463046BDE8F0418DE70020D6E7AA
:100AC000542300202DE9F04304464FF0FF38002561
:100AD000C1B0C668D4E90497B00707D0204601F03A
:100AE00039FA384608F0F7FD002803DA404641B0ED
:100AF000BDE8F083300502D54846FFF701FC216AC6
:100B000049B14FF48072684608F0F5FD684613F06D
:100B100071FB00B145464C21204600F0EFF9206DF5
:100B200020F0010020652846E1E7000010B50248EA
:100B300001F018FB004810BD502400200B4910B5EF
:100B4000A1F17C020A4CC2E93712372106E000EB22
:100B5000104342F82130074B00FB03400B1EA1F16C
:100B60000101F4DC10BD0120E8E70000FC240020B6
:100B7000E119D666CD0D01000446AFF30080204692
:100B8000FFF76EFB70B50C46054600F015FB0068DC
:100B9000016859B1421815F8010B14F8013B115CBA
:100BA000D35C08B19942F6D0C81A70BD21462846D8
:100BB000BDE8704000F0F4B9072811D2DFE800F07A
:100BC0000406080E100C0A0006A070470BA0704720
:100BD00014A070471EA0704723A070472CA0704738
:100BE00033A070474E6F206572726F722028657255
:100BF000726E6F203D2030290000000045444F4DAB
:100C0000202D2066756E6374696F6E206172677542
:100C10006D656E74206F7574206F662072616E67EB
:100C2000650000004552414E4745202D2066756EF7
:100C30006374696F6E20726573756C74206E6F7467
:100C400020726570726573656E7461626C65000018
:100C5000454E4F4D454D202D206F7574206F6620F9
:100C60006D656D6F7279000045494E56414C202DDF
:100C700020696E76616C696420617267756D656E5E
:100C80007420746F2066756E6374696F6E00000067
:100C9000455349474E554D202D20696C6C65676161
:100CA0006C207369676E616C206E756D6265720091
:100CB000556E6B6E6F776E206572726F72000000FA
:100CC000401ECAB210F8011F8A4202D00029F9D191
:100CD0000020704730B503461D781DB10A4603E079
:100CE000AC4201D1181A30BD12F8014B002CF7D1DB
:100CF0005B1CF1E710B5431E13F8014F002CFBD12C
:100D000005E011F8014B002C03F8014B03D0521EF3
:100D1000F7D20021197010BD40EA010310B59B07FE
:100D20000FD1042A0DD310C808C9121F9C42F8D055
:100D300020BA19BA884201D9012010BD4FF0FF3006
:100D400010BD1AB1D30703D0521C07E0002010BD1C
:100D500010F8013B11F8014B1B1B07D110F8013BA8
:100D600011F8014B1B1B01D1921EF1D1184610BD89
:100D700040EA0103024630B59B0710D14FF0013421
:100D800000E008C208C91D1B9D4315EAC41FF8D026
:100D900013F0FF0102F8011B0DD01B0AF8E711F850
:100DA000013B002B02F8013B05D011F8013B002B61
:100DB00002F8013BF3D130BD10B5431C02E010F83E
:100DC000011B71B18107FAD14FF0013202C88C1AB0
:100DD0008C4314EAC211F9D0C01A0A0603D0C01E0F
:100DE00010BDC01A10BD0A0401D0801E10BD09023A
:100DF000FCD0401E10BD421E12F8013F002BFBD15B
:100E000011F8013B002B02F8013BF9D17047032A8E
:100E100040F2308010F0030C00F0158011F8013B17
:100E2000BCF1020F624498BF11F801CB00F8013BFE
:100E300038BF11F8013BA2F1040298BF00F801CBC2
:100E400038BF00F8013B11F0030300F02580083A99
:100E5000C0F0088051F8043B083A51F804CBA0E8F0
:100E60000810F5E7121D5CBF51F8043B40F8043B45
:100E7000AFF30080D20724BF11F8013B11F801CB7A
:100E800048BF11F8012B24BF00F8013B00F801CB4B
:100E900048BF00F8012B704710B5203AC0F00B8016
:100EA000B1E81850203AA0E81850B1E81850A0E86E
:100EB0001850BFF4F5AF5FEA027C24BFB1E81850C8
:100EC000A0E8185044BF18C918C0BDE810405FEA38
:100ED000827C24BF51F8043B40F8043B08BF7047B4
:100EE000D20728BF31F8023B48BF11F8012B28BFB9
:100EF00020F8023B48BF00F8012B70474FF000027A
:100F000000B5134694469646203922BFA0E80C50FF
:100F1000A0E80C50B1F12001BFF4F7AF090728BFDA
:100F2000A0E80C5048BF0CC05DF804EB890028BF56
:100F300040F8042B08BF704748BF20F8022B11F07F
:100F4000804F18BF00F8012B704710B5044610F011
:100F5000030F08BF11F0030F40F015804FF0013E62
:100F6000121FC0F20E8051F8043BA3EB0E0C2CEACA
:100F7000030C1CEACE1C08BF40F8043BF0D0A1F1E2
:100F8000040102F10402521E08DB11F8013B002BA0
:100F900000F8013BF7D1114601F024F9204610BDBD
:100FA0004FF0013C50F8042B51F8043B9A4221D1F8
:100FB000A2EB0C03934313EACC1317D150F8042B84
:100FC00051F8043B9A4215D1A2EB0C03934313EA68
:100FD000CC130BD150F8042B51F8043B9A4209D1A1
:100FE000A2EB0C03934313EACC13DBD04FF00000C9
:100FF000704700BFD01A01BAB1FA81F101F01801AF
:1010000022FA01F0CB40C1F12001DBB2C0B2C01A1C
:101010002CFA01F3D11A914311EAC311E6D17047BA
:10102000704770477047000070472DE9F041044653
:1010300002260078494DDFF82881002303280FD0CD
:1010400078B101286CD002287ED1D4E901060028AD
:1010500074D03246A11CE370FFF7BEFCA0B364E07D
:101060002370002A77D16370087801273C2808D0C4
:101070004246C4F808800878312817D0322824D096
:1010800015E0491C084600E0401C02784AB1202ABD
:1010900007D0A2F1090CBCF1040F02D93E2A5AD0A4
:1010A000F2E73048A0607220A07027E0491C11F8D8
:1010B000010B3E284FD108783E2808D07720A07039
:1010C0000878262807D019E02CE0A560EEE761201B
:1010D000491CA070F4E76770A068491C904204D1D5
:1010E00091F800C0BCF1320F10D0A84204D191F8A1
:1010F00000C0BCF1310F09D090422CD1087840B12A
:10110000A078002827D0267061609EE7491CA37054
:10111000F4E727706360A07800281CD1267094E75C
:101120006160FBE7606801F056F8AE4206D03046D9
:101130004FF4007300215A10FFF707FC607840B1AC
:10114000464502D1054801E005E00548314600F07A
:1011500045FF03202070BDE8F0810000FC23002043
:10116000A823002054230020A0E8004FF0C040F83E
:1011700004DB01B5AFF30080BDE8024001C10020EF
:10118000704700F12C080C4658F8040DAFF30080AE
:1011900058F8040D8546200008BF012038E9F0000A
:1011A00018E9004F70470000004870476425002090
:1011B000004870476C2500200048704784250020B7
:1011C000704770477047704738B504460A4600209C
:1011D0006946AFF30080002808BF38BD0246009979
:1011E000204601F028F8012038BD012001F090BB15
:1011F000F8B5AFF30080054600200C46102000BF74
:101200000646A819A0420DD9324669460020AFF320
:101210000080070008BF01F07BFB0098A04218BFC8
:101220000546C419FFF7C4FF05600746F01D20F00E
:1012300007004619284600F0F7FFB44208BFF8BD82
:10124000A21B31463868BDE8F84000F0F4BF70B525
:101250000646FFF7ADFF056806F10B0020F0070416
:10126000B4429CBF002070BD2B466A68BAB11068BA
:10127000A04210D304F1080188423CBF5068586076
:1012800007D35168101941601168091B016058604B
:101290001460101D70BD13465268002AE7D1214624
:1012A0002846FFF791FF0028DED170BD53EA020CFB
:1012B00000F069802DE9F04B4FF00006002B1FBFB6
:1012C000B3FA83F503FA05F424FA05F65E4012BF7B
:1012D0001643B2FA82F502FA05F4C5F120051EBFE5
:1012E00022FA05FC44EA0C04203556EA044C4FEA85
:1012F000144418BF641C4FF000084FF000099042DE
:1013000071EB030C39D3002919BFB1FA81F701FA47
:1013100007F6B0FA80F700FA07F6C7F120071EBFFC
:1013200020FA07FC46EA0C062037B6FBF4FCA7EBD4
:101330000507103F07F01F0BCBF120060CFA0BFB43
:101340002CFA06F644BFB3460026202FA4BF5E4603
:101350004FF0000B5BEA060C08BF4FF0010B19EBD6
:101360000B09ABFB027C48EB0608C01B06FB02CC5A
:101370000BFB03CC71EB0C01C1E70B460246414667
:101380004846BDE8F08B13B54FF000004FF0000168
:10139000AFF30080BDE81C40704710B5FEF7ACFF0E
:1013A000006810BD10B50446FEF7A6FF046010BD2E
:1013B0002DE9F0470D4699469246044600F124086F
:1013C0000168880604D5E06921F01001216000E081
:1013D0000120A84201DD471B00E00027A1697A191E
:1013E00002EB0900081AA0612078C00602D420464A
:1013F000AFF30080002608E0D4E901211AF80600C6
:101400009047206A401C761C20624E45F4DB207811
:10141000C0060AD52046AFF3008006E0D4E90121DA
:1014200030209047206A401C2062381EA7F1010737
:10143000F4DC07E0D4E9012118F805009047206AA0
:10144000401C2062281EA5F10105F3DC2046AFF305
:1014500000802078000602D50220BDE8F087012038
:10146000FBE770472DE9FF4F0C461E464FF0FF3754
:101470008BB0D2E90001DDF860800A908A46C1F3A2
:101480000A5505B93D46002108464FF00000BAF163
:10149000000F00F4400005DA00EB80004FF440013B
:1014A00001EA50004FEA9059B9F1010F00DDB94649
:1014B0000A9850EA4A000ED044F61050A5F2FF35C3
:1014C00045432F14B8F1000F1ED07542291E1EDDB2
:1014D000C9F100021CE0B8F1010F4FF0000001D08B
:1014E000302103E0F24305E02154401CB042FBDB15
:1014F00030460022002121540B99C1F80880C1E92F
:1015000000200FB0BDE8F08FBD1B6D1CDEE74A4622
:1015100000DA694206A800F065FF06AB93E8070011
:1015200003AB83E8070050460A9901F0C6FD8DE839
:101530000700A0F500501F3800900398002D09DD2A
:1015400042F21F014A46084403A90390684602F08C
:1015500050F808E0A0F500504A461F3803A9039050
:10156000684602F06EF88DE807000004000C03D016
:101570004FF0FF30410800E01046B8F1000F03D0F3
:101580000022009215461EE0751E05D400F06DFE87
:10159000303262556D1EF9D5B3460122084302D0A0
:1015A00000227F1C04E02078302801D100227F1E19
:1015B000002A099786D01DE0112D07DA00F055FEAC
:1015C000303262556D1C50EA0102F5D1084302D059
:1015D0000098C8B10EE00021681E05E0235C625C43
:1015E00063542254401E491C8142F7DBAB46A81BC2
:1015F000401E0990002004F80B000B98099AC0F8CF
:101600000880C0E9002B7CE711264FF0000859E75D
:101610002DE9F04F88460446D21D22F0070191B013
:10162000D1E90001CDE90A0107F064FF02460B98F9
:10163000C00F01D02D2007E02068810701D52B20A5
:1016400002E0202101EAC000032A099001D0072A04
:1016500005DB03464146204600F056FE0BE12078AC
:10166000800601D5E06900E00620B8F1650F8146EB
:1016700006D0B8F1660F18D0B8F1670F70D131E01D
:101680000020B9F1110F009001DB112301E009F1F5
:1016900001030AAA01A90CA8FFF7E4FEDDE90C701A
:1016A000002609F10105834647E001204B460090E2
:1016B0004FF000470AAA01A90CA8FFF7D3FEDDE905
:1016C0000DB00C995D46002610B909F101000D1806
:1016D000B9EB050003D4C0F1FF3609F10105A5EB14
:1016E00009002BE0B9F1010F01DA4FF001090020E8
:1016F000B9F1110F0090484601DD112300E00346C7
:101700000AAA01A90CA8FFF7ADFEDDE90C704D4651
:1017100000268346207800070AD4AB4500DA5D46F0
:1017200001A8012D04DD411911F8011C302907D051
:101730004F4502DA17F1040F04DA012082460FE068
:101740006D1EEEE7002F02DCED1B3E4403E0781C2B
:10175000A84200DD7D1CB81B00F1010A4FF00047D4
:101760002078000703D4AA4501DB4FF0FF3A00219F
:10177000B7F1004F0DF143088DF8431024D002203B
:101780002B23002F01DA7F422D230A21021EA0F114
:10179000010000DC5FB197FBF1FC97FBF1F201FB6C
:1017A0001C7C17460CF1300C08F801CDEEE7A8F1CF
:1017B000010003702188090501D5452100E065215C
:1017C000A0F1010800F8011C09980FA9A1EB080776
:1017D000FF1D00B10120411901EBEA70A1693844F5
:1017E000081A401EA0612078C00602D42046AFF33C
:1017F0000080099828B1D4E901219047206A401C53
:1018000020622078C00622D52046AFF300801EE07B
:10181000002E04DBB34502DD01A8805D00E030202E
:10182000D4E901219047206A401C2062761CAAF16D
:1018300001005FEA000A0AD1FFF7BEFCC068016838
:10184000405CD4E901219047206A401C2062281E98
:10185000A5F10105DCDC07E0D4E9012118F8010B52
:101860009047206A401C2062381EA7F10107F3DC74
:101870002046AFF30080032011B043E601694A1C03
:1018800002610878704700B58FB0CDE901310021C1
:10189000059105497944CDE9031011466846FEF7E4
:1018A0006BFE0FB000BD0000E5FFFFFF0A6802F805
:1018B000010B0A60704710B5436913B1AFF30080A4
:1018C00001E0FEF7E5FD012010BD127800F12401D2
:1018D0000A7000224A700122EDE711684FF0FF32D2
:1018E000E9E70000074B70B50D467B44FFF7CBFFDF
:1018F00004462846FEF741FF10B14FF0FF3070BD9F
:10190000204670BDF7AA00002DE9FF4F064689B0BA
:101910000878FF2806D0491C2D2805D000244FF058
:10192000000908E000200CE00124F8E709EB890336
:10193000491C00EB43090878FF28F7D114B1C9F11D
:1019400000008146107800252C46AA4629462D28FD
:1019500001D02B2804D1521C2D2813D00020824600
:101960008B461078FF280FD04FF0000C0A21521C34
:10197000A5FB017804FB018105FB0C11C5194BEB9C
:101980000104EEE70120EAE7002108464FF00000DD
:10199000BAF1000F02D000EB80004008C0F381587C
:1019A000B8F1010F01DD4FF0FF380C9809EB00078B
:1019B00055EA040009D04FF0020917F5FA7F0BDA57
:1019C0004FEACA70C6E900B012E04FEACA70C6E931
:1019D00000B00DB0BDE8F08FB7F5FA7F0DDDF0482F
:1019E0007844D0E90010C6E9001040EACA7070607F
:1019F000FEF782FCC0F80090EBE7391E02DAC8F16E
:101A0000000200E0424600DA794206A800F0EAFC53
:101A100006AB93E8070003AB83E8070044F23E00FF
:101A20005BEA04010090584604D144F21E012C46A2
:101A30005D460091210C0904014306D1009924045C
:101A400044EA15442D041039009104F07F4101430C
:101A500006D10099240244EA15642D020839009148
:101A600004F07041014306D10099240144EA157441
:101A70002D01091F009104F04041014306D1009956
:101A8000A40044EA9574AD00891E009104F0004161
:101A9000084304D100986D196441401E00904246ED
:101AA0006846002FCDE9014503A902DD01F0DDFD07
:101AB00001E001F0B2FDBAF1000F04460D4601D07D
:101AC00084F0004440F2FF7724F00040284303D024
:101AD000C4F30A50B84212D1FEF70EFCC0F80090D1
:101AE000C4F30A50B8420AD1AE487844D0E9001095
:101AF000C6E9001004F000410843706069E7C6E9D8
:101B0000005466E72DE9FF4F1F464FF0000A4FF0E3
:101B1000FF38454691B0D7E90146CDF83CA0FFF724
:101B20004BFBC0680168405C1090B96912986D1C4D
:101B30008847396A814688470028F6D1B9F1FF3FC6
:101B40000AD0002E24F4D06411DDB9F12B0F08D097
:101B5000B9F12D0F0BD102E0404615B03AE744F43D
:101B60008064B96912986D1C8847761E81466005AD
:101B700004A901D52D2000E02B20002E01F1010B3E
:101B80000DF130088DF810003FDDB9F1690F08D074
:101B9000B9F1490F05D0B9F16E0F02D0B9F14E0F6E
:101BA0001CD13B4601A8009580E85002DDE91212E5
:101BB0006FF0020014F057FCC11CCED10EE0B969E1
:101BC00012986D1C884781461398761E44F4007461
:101BD00005600F98401C002E0F9016DDB9F1300FF4
:101BE000EDD0B9F1780F02D0B9F1580F0DD10F989F
:101BF00001280AD13B46CDE90054DDE91212001F4D
:101C0000029614F02EFCC11CA7D1109989453ED133
:101C100044F0800406E01399681CAAF1010A44F418
:101C200000740860B9696D1C1298761E88473028C8
:101C30008146F0D02BE01099894505D1200603D4C8
:101C4000761E44F0800418E0484607F03DFD08B3D6
:101C5000761E0DF123018B4544F4007408D2A9F1DE
:101C600030000BF8010B200607D5AAF1010003E0B4
:101C7000200602D40AF101008246A00502D513997C
:101C8000681C0860B96912986D1C88478146002E4F
:101C9000D1DC53E0002E51DDB9F1650F02D0B9F16E
:101CA000450F4BD1A00549D5B9696D1C1298761E18
:101CB00024F440748847002E81460CDD2B2804D084
:101CC000B9F12D0F07D144F48074B96912986D1CD5
:101CD0008847761E8146E00501D52D2100E02B21A5
:101CE00008F8011BCDF8008021E0761E0DF13901C6
:101CF000884544F400740CD2A9F1300010F0FF00C4
:101D000088F8000002D10099884509D908F1010836
:101D100006E0E00501D5244801E042F20F7082465A
:101D2000B96912986D1C8847814613980560002E8A
:101D300004DD484607F0C8FC0028D6D1F96912989E
:101D40008847FF2053468BF8000088F800000020E9
:101D50000A900B9004AA0CA90AA8FFF7D5FDA005CC
:101D600002D46FF00100F8E614F0240F0AD0E00767
:101D700014D13868DDE90A12031D3B600068C0E930
:101D800000120BE00AA9684607F03EFCE00705D107
:101D90003868009A011D3960006802602846DCE658
:101DA000F86E0100EE6D0100F1D8FFFF2DE9F05F44
:101DB000824615468B4600270AF10104B946007891
:101DC000302801D09DB113E014F8010B01277828C9
:101DD00003D0582801D045B10AE00DB1102D07D12C
:101DE000002714F8010B102502E0082500E00A2561
:101DF0000026B0460EE005FB080005FB06F10127B2
:101E00001FFA80F801EB1046B6F5803F00D3B946C3
:101E100014F8010B294600F0B7FA0028EBDABBF101
:101E2000000F05D00FB1641E00E05446CBF800400F
:101E3000B9F1000F06D0FEF75FFA02210160C81E5B
:101E4000BDE8F09F48EA0640FAE700000FB400231F
:101E500000B589B00CA900910B99CB60204B7B4455
:101E60000693204B7B44079304236FF00042CDE997
:101E700001321D4A7A446B4608920246002014F053
:101E8000EEFA09B05DF814FB70B506464FF0FF306E
:101E900015460C46324686B00091CDE901016946EF
:101EA0000020049004A8FFF7D1FF034604982118EE
:101EB00025B108B10A4600E022462A6000280DD06C
:101EC000002B02DD0098884208D03246081B694684
:101ED0000094CDE9010404A8FFF7B8FF06B070BD77
:101EE000430500005B0500007D040000C16821F48B
:101EF000001141F08001C1600021816001607047E4
:101F00002DE9F047814614460E464FF0FF3832481F
:101F1000D5685769054209D03846A16907F0E8FB42
:101F2000002811DB2C48C0430540E5602B463246B3
:101F30004946384607F0E1FBA16920F00042B21A99
:101F400011440028A16103D02046FFF7CFFF40468F
:101F5000BDE8F08770B504460569C06A61688842CB
:101F600000D80846E16821F42011E160C90312D5C8
:101F7000A84208D02246411B2846FFF7C1FF10B1F6
:101F80004FF0FF3070BD0020E562C4E90150E06809
:101F900020F48030E060002070BD10B50446C068B9
:101FA00020F02000E060A16AA06988420DD02046A0
:101FB000FFF7D0FFE06820F4405040F01000E060F0
:101FC000A06AA0612069E062606044F24001E068BC
:101FD0008843E06010BD00001000020070B50D469F
:101FE0000446FEF76FFDE86848F603714023084099
:101FF000E0606869DE000021324660612046FEF73D
:10200000A4FC402332462846BDE870400021FEF77C
:102010009CBC10B5017BC90705D0406907F062FB85
:1020200008B1012010BD002010BD000010B54248CD
:102030005421FEF763FF41485421FEF75FFF4048FB
:102040005421FEF75BFF3F493B483C4A3F4B086049
:102050003D490A603A491960531C0365481C1065E4
:10206000012008653B48344A39A17844FEF7B4FCA6
:1020700020B9384878440A3800F0ADF837482F4A7C
:1020800035A17844FEF7A8FC20B9344878440A38D2
:1020900000F0A1F832482A4A2FA17844FEF79CFCB0
:1020A00020B92F4878440A3800F095F84023224898
:1020B000DC0000212246FEF748FC20B12548784488
:1020C000543800F088F81D48224640230021FEF7CE
:1020D0003CFC20B121487844543800F07CF8184882
:1020E000224610230021FEF730FC002806D01C48B1
:1020F0007844BDE81040563800F06DB810BD104867
:1021000070B5006D20F001040B48FEF7DBFC0B48B6
:10211000FEF7D8FC0A48FEF7D5FC09E0206D20F058
:1021200001052046FEF7CEFC2046FEF7E9F82C46D6
:10213000002CF3D170BD000054230020A823002000
:10214000FC2300203C01002040010020440100202D
:1021500072000000065E010077000000845E01004E
:10216000025F010010B50446FFF726F8D0E902121D
:102170001068104444F8100B5068104444F80C0CDC
:102180009068104444F8080C8868084444F8040C2B
:10219000C8680844206008690844606048690844C9
:1021A000A06088690844E060C86908442061086A42
:1021B0000844606108782076487860768878A07650
:1021C000C878E07608792077487960778879A077B1
:1021D000C879E07710BD10B500F080FBBDE8104075
:1021E00000F076BB4FF000020429C0F0128010F01E
:1021F000030C3EF485AECCF1040CBCF1020F18BF09
:1022000000F8012BA8BF20F8022BA1EB0C01FEF770
:1022100077BE5FEAC17C24BF00F8012B00F8012BD8
:1022200048BF00F8012B704700210160C0E9011090
:10223000704710207047034640688C46002818BF3E
:1022400088423CBF03464068F8D318681844884267
:1022500007D00CF1030020F00700001D411A521AAC
:102260000146081D0A60FEF74BB830B5B0F10A020E
:102270004FEA900E71F100034EEA817EB0EB0E0042
:1022800061EB91014FEA101E4EEA017E10EB0E0049
:1022900041EB11114FEA102E4EEA016E10EB0E00C9
:1022A00041EB11214FEA104E4EEA014E10EB0E00A9
:1022B00041EB1141401841F100014FEAD00040EAE2
:1022C00041704FEAD10110EB80054FEA810444EAE6
:1022D000907444EB01046D1944EB0404521BA341B8
:1022E0004FF0000348BF0A3200D530BD401C41F119
:1022F000000130BD10B50446FDF7F6FF0068005D33
:1023000000F0010010BD00002DE9F0411F46044619
:1023100003260168072A01F4006004DB08B116A552
:1023200005E016A503E008B115A500E015A521F00C
:1023300010002060A069C01EA0610FB1401EA06106
:102340002046AFF300804FB1D4E9012138469047D1
:10235000206A401C2062C01C206206E0206AFAE766
:10236000D4E9012115F8010B9047761EF8D22046DA
:10237000AFF30080BDE8F0814E414E006E616E000B
:10238000494E4600696E66003A2800D2303820F087
:102390002002412A01D3A2F13700884201D34FF035
:1023A000FF307047426842B1016811F8013B23B128
:1023B000521EC0E90012184670470121C160881EF4
:1023C000704742685AB1C368016843B983688B4259
:1023D00005D0491E521CC0E90012002070474FF082
:1023E000FF3070472DE9F047814616468AB03348E2
:1023F00078440DC88DE80D0030487844801C03AC4B
:102400000DC884E80D0041F69B300844372190FB4D
:10241000F1F290FBF1F5A5F1800501FB12041B3CE4
:1024200002D56442012000E00020DFF890A0804641
:102430000027FA44AAF1BE0A0DE0E00709D03246AF
:10244000684607EB47010AEB810101F0FAF88DE8D5
:10245000070064107F1C002CEFD1184F7F44AC3F65
:1024600018E0E80714D007EB04100DF1180A90E803
:102470000E008AE80E00C068F04201D19819089059
:10248000324606A903A801F0DCF803AB83E8070095
:102490006D10641C002DE4D132466946B8F1000F7E
:1024A00003A802D001F0A5F801E001F0CAF8C9E9DB
:1024B0000001C9F808200AB0BDE8F08748610100B2
:1024C00070B50D4601461446D36850692A4607F098
:1024D0000DF9002807DA411C07D0E16820F0004020
:1024E00041F48041E160281A70BD2046FFF7FEFCF0
:1024F0004FF0FF3070BDC1680022026021F48051AE
:1025000041F0400111F4C06FC16001D0826070479A
:1025100002694168891AC269891A816070472DE988
:10252000F0470446C06840F48000E060010312D523
:1025300020F40020E060810606D4E26A61688A42E5
:1025400000D80A46511A216040F40010E06094F867
:102550002500BDE8F08720F40010E060800602D579
:102560002046FFF71AFDE06842F281014FF0FF3983
:102570000140012903D02046FFF7B8FCB6E02168EE
:10258000002600290ADAC94340F480502160C4E9DA
:1025900002606068411C61600078DAE744F2400143
:1025A00008420CD020F4A04040F040002660E060DB
:1025B00021696068401AE169401AA06096E02169CB
:1025C00091B9C00310D4E069FEF741FE2061B0B1BB
:1025D000E06840F4006010F4407FE06002D140F415
:1025E0008070E06020696060E068D4F814A0C106E3
:1025F0001AD5C0030ED52046FFF7ACFC14E004F159
:10260000240020610120E061E06820F4407040F483
:102610008060E6E721696068401AA169014450467C
:1026200007F066F80028A6DBE068C0032AD56168D9
:10263000E06A884200D808462169451AE069471BCC
:102640001BD02046D4F81880FFF784FC08EB050166
:102650005046C4F8188007F04BF800288BDBE06880
:1026600040F40030E060000202D5A0692844A06177
:10267000E1692069C91B45180DE02046FFF76AFC97
:10268000E769F5E725696168D4E90607491BE56252
:1026900008446560A061E06820F0100010F4C06F8D
:1026A000E06002D0204600F097FCE06840F48050E3
:1026B000C4E90260000205D52069E06260606FF045
:1026C000010046E7224639462846FFF7F9FE411C3D
:1026D0000CD02918E16258B1401E2060681C60606F
:1026E000E06840F40030E060287832E7484630E7A0
:1026F00065602046FFF7FFFEF8E72DE9F047054645
:102700000C46C86820F4201040F48000C8608006A1
:1027100002D50846FFF741FCE06841F282014FF024
:10272000FF390140022903D02046FFF7DFFBB5E067
:1027300000F42041B1F5004F0FD1C00306D5616808
:10274000E06A884200D80846606006E02069E062DE
:102750006060606906F0C4FFA061A0680022EEB26C
:1027600000280DDAE1688B050AD4C043A06041F46B
:1027700090302260E0606068411C61600670A5E0F6
:10278000E0689046226040F40050E060206968BB39
:10279000606906F0A7FF012704F12405A0B1A08914
:1027A00010F4407F08D0E069FEF751FD206118B1B8
:1027B000E06840F4006016E0E7612561E06820F41D
:1027C000407040F480600EE0E069FEF740FD0028B4
:1027D0002061F1D0E06840F4006010F4407FE060D8
:1027E00002D140F48070E06020696060E068256993
:1027F0006FF0010AC1051FD56168E06A884200D800
:102800000846411B04D022462846FFF779FBF0BB5F
:10281000E068010203D5E562C4E9015854E0691C8F
:10282000E1626160E16940F48030491EC4E9021050
:1028300030462E70BDE8F087010202D500F48032E8
:102840000AE06068411C61600670E0680A2E40F48E
:102850008030E06006D00022E16A6068814203D9DE
:102860000B4602E00122F7E70346A7895B1B7F05C1
:1028700003D4E7699F4200DDE2B1814200D80146FE
:10288000E5620F1AC4E90158002B09DD00E005E0FC
:10289000224619462846FFF733FB08B14846C9E7E8
:1028A00047B1A069E5626560C01BA061E06840F0C7
:1028B0001000E060E068000208D56168A069E56288
:1028C000491B08446560A0615046B3E73046B1E754
:1028D000002801D006F003BF7047000010B5014684
:1028E00002A000F095FB012010BD000053494752A3
:1028F000545245443A2052656469726563743A20C3
:1029000063616E2774206F70656E3A2000000000CE
:1029100010B500F097FBBDE81040FFF7D9BF2DE9D7
:10292000FE4F00274FF48074BA4620468DF80070A1
:10293000FEF78DFC5FEA000801D1FFF7E9FF2146B1
:10294000404606F0CAFE060009D04FF0010B45468E
:10295000C14616F8014B8FB15C2C16D01CE008F173
:1029600008004146C8F800000020C8F80400D8F864
:1029700000402070012003B0BDE8F08F222C01D070
:10298000272C0FD12746BA462CE03078222807D0D2
:102990005C2805D0272803D0BC4203D1002721E0C2
:1029A000761C04464CB12FB9202C06D0A4F10900A6
:1029B000042802D905F8014BCBE74D4502D1BAF105
:1029C000000F0FD052464946002005F8010B68461B
:1029D000FEF72BFB9DF8000068B14D464FF0000A52
:1029E0000BF1010B002CB4D14FEA8B00FEF72FFC4A
:1029F000040002D004E0A946F0E70020FFF788FFBA
:102A000000264046C4F8008005E010F8011B11B90B
:102A1000761C44F82600A842F7D32146002044F84B
:102A200026003046A7E77546FEF7BEFBAE4605001A
:102A30006946534620F00700854618B020B5FDF7DB
:102A40003FFCBDE820404FF000064FF000074FF07C
:102A500000084FF0000B21F00701AC46ACE8C009BC
:102A6000ACE8C009ACE8C009ACE8C0098D467047C5
:102A7000704770472DE9FF4F1F464FF03C0987B064
:102A80004FF00042DDE9141001F10108DDF858A013
:102A900002EA405003900020049083460546044615
:102AA0000590B969461E08988847AAF1010A029064
:102AB000BAF1000F37DD02982E2815D01021FFF74C
:102AC00063FC00282ADB4FF0010B0499014316D068
:102AD000B9F1000F0BDB4A46C11700F0DBFA0543E2
:102AE0000C43A9F1040905E00120059007E008B1B5
:102AF00045F0010501200490059800B9361DB9691B
:102B0000089808F101088847BBF1000FAAF1010AF3
:102B10000290CDD00999C1F80080C9E702987028C9
:102B200008D0502806D0F96908988847BBF1000FF3
:102B300014D04FE0002002900120BBF1000F049060
:102B400009D0B969089808F101088847AAF1010974
:102B5000B9F1000F07DCF969089888476FF00100A8
:102B60000BB0BDE8F08F2B2804D02D280CD14FF0EE
:102B7000FF300490B969089808F101088847A9F165
:102B80000109B9F1000FE6DD411CE4D00A21FFF78D
:102B9000FBFB0028DFDB029908F1010801EB810152
:102BA00000EB41000290B969089888470A21FFF7B5
:102BB000EBFB099AA9F10109B9F1000FC2F80080F5
:102BC00001DD0028E7DAF969089888470499029836
:102BD00000FB016655EA040004D004F040410900FE
:102BE00002D006E0039898E0A40044EA9574AD0092
:102BF000B61E04F00041080002D16D196441761E32
:102C0000159810F0240F03D04FF00B095C4803E037
:102C10004FF028096FF07D008246564507DAAAEB8F
:102C200006018944B9F1410F01DD4FF0410901204E
:102C30000021A9F1010200F02DFA024628400B46BE
:102C40002140084301D0012100E00021501E0291E3
:102C500043F1FF3128402140084301D0012000E02A
:102C600000200299834651EA0B014FD0002108460B
:102C70004FF00000039900F4400039B100EB8000F0
:102C80004FF4400100EBD07001EA6000801501288C
:102C900002DD4FF0FF3000E013D0401C36D0029828
:102CA00060B3BBF1000F0CD14A460120002100F0B7
:102CB000F1F928402140084301D0012000E0002024
:102CC000E0B101204A46002100F0E4F90346401932
:102CD0000A4661412D1A8C4111D3B9F1400F09DD2B
:102CE000159810F0240F02D0AAF1340603E0AAF1DF
:102CF000170600E0761C00254FF0004406E05B1E3E
:102D000042F1FF3220EA030521EA0204CAF1010080
:102D1000B04206DA1B490398084301900020009056
:102D20000EE0039AC4F3D321E80A0A43164940EAA5
:102D300044500A433146CDE90002684606F0B0FC33
:102D4000159810F0240F0BD01598C00715D13868CE
:102D5000DDE90012031D3B600068C0E900120CE0D1
:102D600002A8694606F050FC1598C00705D13868DE
:102D7000029A011D3960006802604046F0E60000DA
:102D800002FCFFFF0000F07F0000F03F2DE9FF4F45
:102D900092461D4685B04FF00041DDE9124BDDE95A
:102DA00014727F1E01EA4B50414940F0FF4940EA4E
:102DB0000108002122F020004928049102D04E2869
:102DC00028D04CE03BA0012607C88DE80700A96980
:102DD0000698641C88477F1E014606D41DF806002D
:102DE00018B121F0200181420BD0E969069888478B
:102DF000032E34D0082E32D06FF0010009B0BDE8A8
:102E0000F08F761C032E01D0082EE0D1601CCAF88A
:102E10000000DCE7A9690698641C88477F1E2AD455
:102E200020F02000412826D1A9690698641C884713
:102E30007F1E20D420F020004E281CD1A9690698BE
:102E4000641C88477F1E48F4002849F48009CAF8AA
:102E5000004001D4282806D0E969069888475FEA2F
:102E6000CB7012D022E0A9690698641C88477F1EA7
:102E700001D4002803DAE96906988847BCE72928C5
:102E8000F1D1641CCAF80040E9E71BF0240F07D019
:102E900028680499031D2B600068C0E9001805E04C
:102EA0002868021D2A600068C0F800902046A5E747
:102EB0000000F07F494E46494E4954590000000039
:102EC0002DE9FF5F1C468B460646080066D00025AC
:102ED0000299284627680BFB01F963E0002F63DCA9
:102EE000E06948453FDABAF1000F3CD0207B80060C
:102EF00001D5A06A04E0A169606808442169401A0C
:102F00002246A9EB050180463046FFF7D9FA002892
:102F100012DD8044A8F101010644A161226916F87E
:102F2000011C0027054411702169491CE1626160A0
:102F3000E16841F40031E160411C03D010B1207B15
:102F4000400644D52046FFF7D6FAC4F81880206919
:102F50006060E062E068276020F40030E060E069D3
:102F60004042A06018E0484503DAE06840F4000001
:102F7000E0602046FFF7D3FAE16821F40001E16048
:102F8000411C08D0811C0CD02768002809DB6D1C6F
:102F900006F8010B1BE02760B5FBFBF004B0BDE8B1
:102FA000F09F0120824612E0A9EB0500B846B84226
:102FB00000DA8046304642466168FDF728FF6168C6
:102FC000A7EB0807464401EB0800454460604D4507
:102FD00084DB27600298E1E770B5054640F20226DF
:102FE0000A4C0FE094F85000C00708D0AC4206D05D
:102FF000E06836EA000002D12046FDF7C3FB206DF1
:1030000020F00104002CEDD170BD000054230020FD
:1030100070B505460C460A2000E06D1C06F06FFBFB
:1030200035B128780028F8D102E0641C06F067FB6F
:1030300014B120780028F8D1BDE870400A2006F0CD
:103040005EBB000010B5012805D0002103A0FFF7EA
:10305000DFFF012010BD09A1F8E7000053494752E6
:10306000544D454D3A204F7574206F662068656158
:1030700070206D656D6F7279000000003A20486520
:103080006170206D656D6F727920636F72727570FB
:1030900074656400B2F120030AD5C2F1200301FA7D
:1030A00002F120FA03F300FA02F041EA030170474B
:1030B00000FA03F14FF0000070475FEA400C08BFD0
:1030C00091F0000F4FEA8C234FEAC12243EA51519D
:1030D0004FEA1C5018BF00F5F0404FEA300018BF0F
:1030E00041F000415FEA6C5C00F02980BCF1FF3FD9
:1030F00008BF40F080407047130C06BF12044FF029
:10310000100C4FF0000C130E04BF12020CF1080C4F
:10311000130F04BF12010CF1040C930F04BF9200B3
:103120000CF1020CD30F04BF52000CF1010C11463C
:103130004FF00002A0F11F00A0EB0C00704711F04F
:10314000004F08BF704731F000413FF4D5AF0B0C82
:1031500006BF09044FF0100C4FF0000C0B0E04BF1B
:1031600009020CF1080C0B0F04BF09010CF1040C4F
:103170008B0F04BF89000CF1020CCB0F04BF490078
:103180000CF1010CCCF12003A0EB0C0022FA03F3AC
:1031900002FA0CF241EA030100F10100704720F04D
:1031A0007F4C80EA030023F07F47ACEB070303F575
:1031B0007C5300F0004003F1FF032DE980494FEA02
:1031C000154B09B44FEA144325EA0B4E24EA034891
:1031D0000FF2042606EB132749083E785FEA320215
:1031E00003FB0667C7F5000707FB06F64FEA5437EF
:1031F0004FEAD64606F1020607FB066CCCF1005CEE
:103200004FEA1C472CEA074C07FB06F40CFB06F5BB
:1032100004EB15464FEA961634BF00204FF00040ED
:103220004FEAD13706FB07FC4FEA1C4C0CFB0BF7AF
:10323000D21B03FB0CF761EB07010CFB0EF7B0EBA5
:10324000074072EB17420CFB08F734BFA2EB0742B2
:10325000B2EB074261EB17414FEA0C444FEA91078A
:1032600006FB07FC4FEA1C4C0CFB0BF7B0EBC7400E
:1032700072EB573203FB0CF734BFA2EBC742B2EB41
:10328000C74261EB57310CFB0EF7B0EBC70072EB96
:1032900057720CFB08F734BFA2EBC702B2EBC702B0
:1032A00061EB5771039F4FEA816141EA921104EB90
:1032B000CC044FEAD1374FEA826206FB07FC42EAB0
:1032C00090124FEA80604FEA1C4C0CFB0BF7D21BAC
:1032D00003FB0CF761EB07010CFB0EF7B0EB0740AB
:1032E00072EB17420CFB08F734BFA2EB0742B2EBBC
:1032F000074261EB17414FEA8C554FEA910704EB07
:103300009C2406FB07FC4FEA1C4C0CFB0BF7B0EBB4
:10331000C74072EB573203FB0CF734BFA2EBC74236
:10332000B2EBC74261EB57310CFB0EF7B0EBC700B5
:1033300072EB57720CFB08F734BFA2EBC702B2EB7B
:10334000C70261EB577115EB4C254FEA816141EAE9
:1033500092114FEA82624FEAD13742EA901206FB9D
:1033600007FC44F100044FEA80604FEA1C4C0CFB60
:103370000BF7D21B03FB0CF761EB07010CFB0EF7FD
:10338000B0EB074072EB17420CFB08F734BFA2EB1F
:103390000742B2EB074261EB174115EB1C154FEAF0
:1033A000813141EA92414FEA823242EA90424FEA49
:1033B00080304FEA0C7644F1000448EA03434EEAB9
:1033C0000B484FF0000EB2EB080C71EB030724BF63
:1033D000624639464EEB0E0E4FF0000B001852417C
:1033E00049414BEB0B0BB2EB080C71EB03077BF184
:1033F000000B24BF624639464EEB0E0E4FF0000B19
:103400000018524149414BEB0B0BB2EB080C71EB2E
:1034100003077BF1000B24BF624639464EEB0E0ECC
:1034200051EA020718BF46F0010616EB0E7655F179
:10343000000254F1000103D5BDE88901BDE8008810
:10344000BDE88901BDE80048B619524141EB0101D0
:10345000A3F10103704780807F7E7D7C7B7A797841
:10346000777676757473727171706F6E6E6D6C6C49
:103470006B6A6A69686867666665646463636261EB
:103480006160605F5F5E5E5D5D5C5C5B5B5A5A596C
:1034900059585857575656555555545453535252D8
:1034A0005251515050504F4F4F4E4E4D4D4D4C4C30
:1034B0004C4B4B4B4A4A4A49494948484847474779
:1034C00047464646454545444444444343434342B6
:1034D000424242414141000046EA0646A3F570538C
:1034E0004FEA164646EA42564FEAD22242EA415293
:1034F00010B54FEAD121A3F1010300F017F820F035
:10350000004000F1010C00F0004701EB00501146B3
:10351000BCF5006F40EA070000D210BD02484FF032
:10352000000140EA070010BD0000F07F002B26D408
:10353000770021D01CB54FEA370703B44FF01000D5
:103540004FF010014FF000000FBCBDE810400BF130
:10355000010BBBF1010F08BF5FEA170722BF12F191
:10356000010211F101014FF0004143F1000300F0AD
:10357000004043EA00007047F9D35708DAE746EA0B
:10358000064613F1400F4FEA16461FDD13F1200FD8
:10359000DFBF16430A46002120335B42C8D0C3F187
:1035A000200746EA064602FA07F74FEA164646EAB9
:1035B0000706C3F1200722FA03F201FA07F721FAFE
:1035C00003F14FF0000342EA0702B1E746EA0206C0
:1035D00046EA06464FEA164646EA0106BCBF46EAF8
:1035E0000646360C4FF000034FF000024FF000018A
:1035F0009EE72DE9C048934630B491E8380007C8EB
:1036000031EA400C48BF34EA430C03D5FFF7C7FD4D
:10361000FFF78CFFF0BCBDE800882DE9C048934659
:1036200030B491E8380007C831EA400C48BF34EAAA
:10363000430C03D5FFF7B3FDFFF74EFFF0BCBDE829
:1036400000882DE9C048934630B491E8380007C897
:1036500010F0804F08BF13F0804F03D100F019F82D
:10366000FFF764FFF0BCBDE800882DE9C048934631
:1036700030B491E8380007C810F0804F08BF13F04D
:10368000804F03D100F005F8FFF726FFF0BCBDE83E
:10369000008820F07F4780EA030023F07F4C07EB8F
:1036A0000C03A3F57C5300F00040A3F1FE0392F05D
:1036B000000F00F0B38095F0000F00F077802DE947
:1036C00001494FEA11404FEA144621EA004800FB45
:1036D00006FC24EA064708FB06F607FB08F800FB91
:1036E00007F718EB06484CEB164C4FEA124B18EB59
:1036F00007484FEA15464CEB174022EA0B4E0BFBEE
:1037000006FC25EA06470EFB06F607FB0EFE0BFB42
:1037100007F71EEB064E4CEB164C4FF000061EEB67
:10372000074E4CEB174B18EB0B0840F1000018EB61
:103730000E0B58EB000840F100008F1A4FF000010B
:103740003CBFC943661B14BFB5EB040C00213CBF52
:10375000C943F61B4FEA17444EEA8E0E27EA04458A
:103760004FEA1C4704FB07622CEA074C05FB07F7EE
:103770000CFB05F604FB0CFC16EB074642EB17426C
:1037800016EB0C4642EB1C421BEB060658EB020202
:10379000414146EA9E0601D5BDE80189B61952416C
:1037A00041EB0101A3F10103BDE801894FEA144592
:1037B0004FEA114724EA054621EA074C05FB07F4C6
:1037C00006FB07F70CFB06F105FB0CFC11EB0741B0
:1037D00044EB17444FEA124711EB0C4144EB1C44F5
:1037E00022EA074C05FB07F206FB07F70CFB06F67F
:1037F00005FB0CFC16EB074642EB174216EB0C469A
:1038000042EB1C456A1854F1000148BF7047B619D5
:10381000524141EB0101A3F10103704795F0000F04
:1038200037D04FEA11424FEA144721EA024624EA10
:10383000074C02FB07F106FB07F70CFB06F402FB43
:103840000CFC14EB074441EB17414FEA154714EB0E
:103850000C4441EB1C4125EA074C02FB07F506FB33
:1038600007F70CFB06F602FB0CFC16EB074645EBD4
:10387000174516EB0C4645EB1C42121951F100019D
:1038800048BF7047B619524141EB0101A3F1010352
:1038900070474FEA14454FEA114724EA054621EAEA
:1038A000074C05FB07F106FB07F70CFB06F24FF090
:1038B000000605FB0CFC12EB074241EB174112EB33
:1038C0000C4251EB1C4148BF7047921841EB01017B
:1038D000A3F1010370472DE9F0438BB088460746FA
:1038E0001C46164602A91046DDF848900DF0B8FDBA
:1038F000050056D006A920460DF0B2FDE0B3D5E98B
:103900000045D0E90067A9F105004FF00309072839
:103910003DD2DFE800F0040B121920323F0032469E
:103920003B462046294611F00FFF2CE032463B462D
:103930002046294612F042FC25E032463B4620460E
:10394000294612F015FA1EE032463B46204629462B
:1039500011F0B6FF17E032463B462046294611F0EB
:10396000AFFF08F003FB32463B4612F001FA224655
:103970002B4612F031FB06E013E032463B46204670
:1039800029460FF0B1F9C8F80000C8E901190BB0D9
:10399000BDE8F08385F00041C8E90041C8F808900F
:1039A000F5E74346224631463846CDF8009006F00A
:1039B0008FFB0028EBD12246314638460BF09CF8AD
:1039C000E5E7FEE770B500254FF4803405E0802080
:1039D00004F018FB08B144B101E0641EF7D240F2D4
:1039E000FF5004F0CBFA284670BD032070BD0000E4
:1039F00070B5124C0546606B10F0450FFBD00420EB
:103A000004F000FB20B1042004F0B8FA032070BDDC
:103A1000012004F0F7FA20B1012004F0AFFA0120F0
:103A200070BD2069A84201D0102070BD40F2FF5047
:103A3000A063606900F0080070BD000000800140D4
:103A400010B500244FF480310E4A09E0506B10F09D
:103A5000450F05D009B1400705D5032404200CE02B
:103A6000491EF3D2F7E7012004F0CCFA18B1012483
:103A7000204604F083FA40F2FF5004F07FFA20461B
:103A800010BD00000080014010B50A49486B10F0DD
:103A9000450FFBD0042004F0B5FA20B1042004F057
:103AA0006DFA032010BD40F2FF5004F067FA0020C9
:103AB00010BD0000008001402DE9F0411B4C0E4676
:103AC00007460025606B10F0450FFBD0042004F082
:103AD00099FA28B1042004F051FA0320BDE8F081DE
:103AE000012004F08FFA20B1012004F047FA0120F0
:103AF000F4E72069B84210D140F2FF5004F03EFADA
:103B0000626912F4604F03D0900404D51320E5E7F6
:103B1000100C308007E0500401D51020DEE71004BF
:103B200001D50F20DAE72846D8E7000000800140E1
:103B300010B500244FF480310B4809E0426B12F0BD
:103B4000450F05D009B1500705D50324042006E030
:103B5000491EF3D2F7E7500603D50024402004F0B5
:103B60000DFA204610BD00000080014000290168C8
:103B700002D041F0010102E04FF6FE7211400160F7
:103B80007047000001684FF6FE721140016000218D
:103B9000016041608160C1603149314A0839904219
:103BA00003D1486840F00F0006E02D4A14329042DD
:103BB00004D1486840F0F00048607047284A283235
:103BC000904203D1486840F47060F5E7244A3C32E3
:103BD000904203D1486840F47040EDE7204A5032EB
:103BE000904203D1486840F47020E5E71C4A6432F3
:103BF000904203D1486840F47000DDE7184A7832FB
:103C0000904203D1486840F07060D5E7154A111F13
:103C1000904203D1086840F00F0006E0114A1432C8
:103C2000904204D1086840F0F000086070470D4AE7
:103C30002832904203D1086840F47060F5E7094AE1
:103C40003C32904203D1086840F47040EDE7054AE9
:103C500050329042EAD1086840F47020E5E7000055
:103C6000080002400804024030B5036847F6F072CD
:103C700093430C6A8A682243D1E904452C432243CA
:103C80008C692243CC6922434C6A22438C6A2243CA
:103C90001A430260CA6842600A6882604968C1606B
:103CA00030BD70478000A0F1C0400029016802D0FB
:103CB00041F0010101E0024A11400160704700003B
:103CC000FEFF0F0010B5D0E901121143D0E9032324
:103CD0001A4311434269114382691143C269114376
:103CE000026A1143426A1143826A1143C26A114354
:103CF000026B114302689200A2F1C0421160816818
:103D0000082907D101688900A1F1C0410A6842F081
:103D100040020A60416BD1E9002342EA03128B683A
:103D20008C891B0243EA04431A430B8A42EA03527A
:103D30000B7D896942EA03620A4301688900A1F1A7
:103D4000C0414A60C16AB1F5804F08D000686FF089
:103D500070418000A0F1C040C0F8041110BD816B1B
:103D6000D1E9002342EA03128B680C8A1B0243EA62
:103D700004531A430B7D896942EA036200680A43CF
:103D80008000A0F1C040C0F8042110BD2DE9FC5F07
:103D90000025494C00954FF4806801954027C4F8F0
:103DA0001080C4E902750E464FF0080B1021C4E9DB
:103DB00000B1A946204604F055F91020FFF718FE7F
:103DC00000284DD13D48BA464F4600890004206086
:103DD0003720C4E9010AC4E90398204604F042F9F7
:103DE0003720FFF705FE00283AD1411E04F11400E8
:103DF000C0E9001B302181600221C0E903170121C5
:103E0000416104F0D7F83320C4F808A0C4E9007079
:103E1000C4E90378204604F025F93320FFF7E8FDD4
:103E200004001DD1264F4FF4001AE94640F22A68DB
:103E3000786B10EA080F0BD1504604F0E3F8002825
:103E4000F6D004F009F949F825006D1C022DEFD3D6
:103E5000082004F0D7F828B1082004F08FF80420D7
:103E6000BDE8FC9F022004F0CDF820B1022004F050
:103E700085F80220F4E7202004F0C4F820B12020C7
:103E800004F07CF80620EBE74FF40075284604F0B8
:103E9000B9F820B1284604F071F80720E0E740F2B5
:103EA000FF5004F06BF8009800BA7060019800BAF7
:103EB00030602046D4E70000A01300202801002035
:103EC000008001402DE9F047056906464FF00009E2
:103ED000286B0468A04202D1C5F8309001E0216847
:103EE0000160286F01682160296F0C606079297D6D
:103EF00000F0F80001F0030108436071A068002899
:103F000028D08179490725D43169D1F8C42002210C
:103F10000CF0C9FA00281DD096F839802F6C86F86D
:103F20003990696C49002964D0E90023B168C1E97E
:103F3000002380688860B0680721002204618161E5
:103F4000B16830462031B16020390AF0B1F986F805
:103F500039802F64BDE8F087F0B5CA78002502F0FB
:103F60000F03D20601D58A7813430A784FF00F0E5B
:103F700012F0FF0F4FF001021CD004680F8802FA04
:103F800005F63740B74211D14FEA850C0EFA0CF70F
:103F900024EA070703FA0CF43C43CF78282F02D019
:103FA000482F02D002E0466100E006616D1C082D3A
:103FB000E4D304600C88FF2C1ED944685FF000062F
:103FC00006F1080702FA07F50F882F40AF420FD11C
:103FD0004FEA860C0EFA0CF7BC4303FA0CF73C438D
:103FE000CF78282F00D14561CF78482F00D10561C7
:103FF000761C082EE4D34460F0BD0246002092688F
:104000000A4200D00120704770B5054600242046C2
:1040100000F094F8C0B2012812D0022812D0032870
:1040200012D004280AD038B1204611F03AFE0246D8
:104030000B4628460DF00FFF012070BD0124F3E769
:104040000224F1E70324EFE70424EDE7FEE772B66C
:10405000704762B6704708B5017D00290DD001890F
:104060000091C188428911440269127851438BB290
:1040700082884188008800F007F908BD38B50546F8
:104080001C490020009009890A041B490A600D227E
:104090004A604022C1E9022010010861084603F08D
:1040A000E1FF164C606B009010F0450FFAD0012034
:1040B00003F0A8FF20B1012003F060FF012038BD0C
:1040C000042003F09FFF20B1042003F057FF0320DA
:1040D00038BD20690D2801D0102038BD40F2FF50B6
:1040E00003F04CFF60690090C0F34320287000206B
:1040F00038BD000028010020A013002000800140EE
:1041000008B50121442003F0E7FE1C20ADF80000B3
:1041100048208DF8030069460648FFF71DFF01207F
:10412000ADF8000028208DF8030069460248FFF72B
:1041300013FF08BD00180140000801402DE9F041BF
:104140000024334EDFF8CC80334D012708B137709F
:1041500001E03078A0B110212846FFF74EFFB0B142
:1041600008212846FFF749FF88B104212846FFF7B8
:1041700044FF60B101214046FFF73FFF012806D010
:1041800010212846FFF739FF01282BD03CE00A20F8
:1041900006F0A2FE0020307010212846FFF72DFF08
:1041A00090B108212846FFF728FF00284FF00401AE
:1041B00028460BD0FFF721FF80B101214046FFF7D1
:1041C0001CFF01280CD01FE001241DE0FFF715FFA4
:1041D000012801D0052417E0022415E0032413E090
:1041E000042411E008212846FFF707FF01280BD11E
:1041F00004212846FFF701FF012805D1012140468F
:10420000FFF7FBFE00B937702046BDE8F0810000E3
:104210001401002000080140001801402DE9F0437E
:10422000174C81460025208866884643A088A0F563
:10423000D041043902D1A079012807D000210846D5
:1042400003F0A0F903F048FB0E4814E00020A07131
:104250002A2767814FF02B08A4F80C80014603F051
:1042600091F90120A071A4F80A80A781EAE700BFB4
:10427000A0F800906D1CB542FAD3BDE8F0830000B1
:10428000781300200008006C2DE9F0471546894698
:1042900082461E460024DFF83480089F12E000BFEB
:1042A00009EB040081B2504603F06CF903F014FBF3
:1042B0000020414602E00F80401C80B2A842FAD3A1
:1042C000641CA4B2B442EBD3BDE8F0870008006CD4
:1042D0002DE9F04F4A492A242B25898845F2105AA6
:1042E0004FF4305B4FF4285E4FF448764FF0F00CFB
:1042F00049F241394FF4A07345F210374FF4F07290
:1043000080B13F484FF00108494580F8068003809E
:10431000A0F802C001D0B9423ED12C2606814481CA
:10432000858157E036484FF00008494580F80680FF
:10433000A0F800C0438006D0A1F5D04CBCF1040C1D
:1043400001D0B9420CD12C2606814481A1F5D0447C
:104350008581043C01D0B94244D10380428041E0D0
:10436000514507D1A0F808B0A0F80AE04FF42C514D
:1043700081810EE0A1F5C853633B06D02221018163
:1043800020214181212181812CE02C210181458145
:1043900084810280468025E0A1F5D04CBCF1040C5C
:1043A00009D051450BD1A0F808B0A0F80AE04FF4AD
:1043B0002C54848121E02C260681458109E0A1F559
:1043C000C85CBCF1630C12D02224048121244481F6
:1043D00020248481A1F5D044043C01D0B94201D10C
:1043E00002804380BDE8F04F002002F0F7BF4FF09D
:1043F0002C0CA0F808C04481858106804280E9E742
:10440000781300202DE9F04FDFF8FC800C460146C0
:10441000060A40469346B8F80450DFF8F0A08289B7
:10442000230A4089A5F513470AF10209413F18D034
:10443000A5F5A647103F14D0B7F5007715D047462D
:10444000A5F5C85CBE793F887F1A7F1EBCF1630C5E
:1044500020D0A5F5D04CBCF1040C33D0012E43D0B4
:1044600043E05546AAF8000033E0AAF80000A9F896
:104470000060401CAAF80000C8B2A9F80000AAF821
:104480000020A9F80030521CAAF80020E0B2A9F8D8
:10449000000031E006B9B9B2AAF800000D0A48469A
:1044A000A9F80050CFB2A9F80070A9F80050C9B21D
:1044B000A9F80010AAF80020A9F80030E1B2A9F884
:1044C00000100DE0012E00D1B9B25546AAF8000047
:1044D0000E0A4846A9F80060C9B2A9F800102A805F
:1044E0000380E1B2018007E0B9B203F0FFF9B8F848
:1044F0000C00214603F0FAF9B8F80810AAF80010E9
:10450000A9F800B0BDE8F08F78130020FE07006C1A
:104510002DE9F0438146A2EB0900401C1E4685B2FE
:104520000C46DFF83080079F0FE02146484603F035
:1045300029F803F0D1F90020414602E00F80401C29
:1045400080B2A842FAD3641CA4B2B442EDD9BDE84B
:10455000F08300000008006C2DE9F04F01210E02ED
:10456000A1B0304603F0ACFC01214FF4B47003F06D
:10457000B3FC4FF00108ADF8008010258DF8035012
:1045800003208DF8020047466946FE48FFF7E4FC29
:104590004CF23370ADF8000018248DF8034003206E
:1045A0008DF802006946F848FFF7D6FC4FF6807098
:1045B000ADF800008DF8034003208DF80200694635
:1045C000F248FFF7C9FC41F20100ADF800008DF898
:1045D000034003208DF802006946ED48FFF7BCFC5C
:1045E00000200F21CDE91101139014900321CDE992
:1045F00018011590169017901A901B901C90062188
:104600001D90CDE90110CDE90305059007900690B6
:1046100029020890CDE909018900CDE90B010D902F
:1046200010A80E9017A8CDE90F0701A8FFF74AFBC5
:1046300001210620FFF736FB322006F04DFC00205A
:1046400002F0A2FED34AD44D49F24139AC1C90800D
:1046500046F6040A45F2103B4FF6FF7745F210513B
:10466000FF2804D3B84202D0B0F5134F6CD1D32049
:10467000288002F07FFE908002F07CFE908002F0A5
:1046800079FE07EA0020908002F074FE93881843B8
:104690009080484558D0BF20288002F06BFE908063
:1046A00002F068FE908002F065FE908002F062FEEB
:1046B00007EA0020908002F05DFE93881843908006
:1046C000504541D0D420288002F054FE908002F062
:1046D00051FE908002F04EFE07EA0020908002F02A
:1046E00049FE93881843908058452DD04FF45A4086
:1046F000288002F03FFE90804FF45B40288002F05B
:1047000039FE07EA002090804FF45C40288002F0D8
:1047100031FE938818439080B0F5004F7ED08842D8
:1047200012D0A120288002F025FE908002F022FE07
:1047300007EA0020908002F01DFE93881843A0F540
:10474000AE439080613B6AD080B2484568D1CF20AB
:10475000288000202080C120208030202080ED2073
:104760002880642020800320208012202080812047
:104770002080E820288085202080102020807A203A
:104780002080CB202880392020802C2020800020F1
:1047900020803420208002202080F72028802020C4
:1047A0002080EA202880002020802080C0202880CF
:1047B0001B202080C120288001202080C520288047
:1047C000302020802080C7202880B72020803620FD
:1047D0002880482020803A20288055202080B12041
:1047E0002880002020801A202080B62028800A20DF
:1047F0002080A2202080F2202880002020802620F7
:10480000288001202080E02028800F2020802A207E
:104810002080282020800820208002E04CE046E014
:104820004CE00E2020800820208054202080A920E9
:104830002080432020800A2020800F20208000201C
:104840002080208020802080E1202880002020807F
:104850001520208017202080072020801120208014
:10486000062020802B202080562020803C20208085
:1048700005202080102020800F2020803F202080D5
:1048800020800F2020802B20288000202080208066
:10489000012020803F2020802A20288000202080A6
:1048A00020802080EF2020801120288081E041F6A8
:1048B0006310908002F0CDBC9180FDE350457ED125
:1048C00011202880142006F007FBD0202880072024
:1048D0002080422020801D202080D12028800020A0
:1048E00020801A20208009202080D22028800120CA
:1048F000208022202080C0202880102020803B2083
:104900002080002020800220208011202080C520CF
:10491000288003202080C820288000202080252097
:1049200020802120208005202080002020800A2057
:104930002080652020802520208077202080502026
:1049400020800F20208000202080F8202880012057
:104950002080FE202880002020800220208020202F
:10496000288036202880082020803A202880552062
:1049700020802B2028800020208020800120208083
:104980003F200CE0000C01400014014000180140E1
:104990000020014078130020FE07006C0FE020800B
:1049A0002A20288000202080208001202080DF20F5
:1049B0002080782006F090FA292001F02FBC58457D
:1049C0007ED1ED20288001202080FE202080EE2056
:1049D0002880DE20208021202080F12028800120D6
:1049E0002080DF20288010202080C42028808F2075
:1049F0002080C620288000202080E2202080208087
:104A00002080BF202880AA202080B02028800D2070
:104A10002080002020800D20208000202080112078
:104A2000208000202080192020800020208021204C
:104A30002080002020802D202080002020803D200C
:104A40002080002020805D202080002020805D20AC
:104A5000208000202080B12028808020208000201D
:104A600020808B2020800020208096202080002025
:104A70002080B220288000202080208002202080FA
:104A8000002020800320208000202080B320288068
:104A90000020208020802080208020802080208096
:104AA0002080208020802080208020802080208006
:104AB000208020802080208020802080208000E0B6
:104AC000FEE320802080B42028808B2020800020DE
:104AD00020809620208000202080A120208000209F
:104AE0002080B52028800220208000202080032004
:104AF0002080002020800420208000202080B620FC
:104B00002880002020802080B7202880002020805E
:104B100020803F202080002020805E2020800020F8
:104B2000208064202080002020808C202080002095
:104B30002080AC20208000202080DC2020800020ED
:104B40002080702020800020208090202080002065
:104B50002080EB20208000202080DC20208000208E
:104B60002080B82028800020208020802080208085
:104B70002080208020802080BA202880242020804F
:104B80000020208020802080C120288020202080BC
:104B9000002020805420208000202080FF202080C2
:104BA00000202080C22028800A2020800020208031
:104BB0000420208000202080C32028803C202080EA
:104BC000002020803A202080002020803920208072
:104BD0000020208037202080002020803C20208062
:104BE000002020803620208000202080322020805D
:104BF000002020802F202080002020802C2020805A
:104C00000020208029202080002020802620208055
:104C1000002020802420208000202080242020804C
:104C20000020208023202080002020803C20208025
:104C3000002020803620208000202080322020800C
:104C4000002020802F202080002020802C20208009
:104C50000020208029202080002020802620208005
:104C600000202080242020800020208024202080FC
:104C7000002020802320208000202080C420288045
:104C800062202080002020800520208000202080BD
:104C90008420208000202080F020208000202080A0
:104CA0001820208000202080A42020800020208048
:104CB000182020800020208050202080002020808C
:104CC0000C202080002020801720208000202080C1
:104CD0009520208000202080F3202080002020804C
:104CE000E620208000202080C520288032202080DF
:104CF000002020804420208000202080652020800B
:104D000000202080762020800020208088202080A5
:104D100000202080C62028802020208000202080A5
:104D2000172020800020208001202080002020806B
:104D3000C720288000202080208020802080C8205C
:104D4000288000202080208020802080C92028808A
:104D500000202080208020802080208020802080D3
:104D60002080208020802080208020802080208043
:104D70002080E020288016202080002020801C2019
:104D800020800020208021202080002020803620CC
:104D9000208000202080462020800020208052207B
:104DA00020800020208064202080002020807A2025
:104DB0002080002020808B202080002020809920CF
:104DC000208000202080A820208000202080B92082
:104DD000208000202080C420208000202080CA2045
:104DE000208000202080D220208000202080D92018
:104DF000208000202080E020208000202080F320E0
:104E0000208000202080E1202880162020800020A3
:104E100020801C2020800020208022202080002054
:104E20002080362020800020208045202080002007
:104E300020805220208000202080642020800020BC
:104E400020807A202080002020808B20208000205D
:104E500020809920208000202080A8202080002011
:104E60002080B920208000202080C42020800020C5
:104E70002080CA20208000202080D2202080002096
:104E80002080D820208000202080E020208000206A
:104E90002080F320208000202080E2202880052030
:104EA0002080002020800B202080002020801B20DC
:104EB000208000202080342020800020208044207A
:104EC0002080002020804F20208000202080612032
:104ED00020800020208079202080002020808820D1
:104EE0002080002020809720208000202080A62085
:104EF000208000202080B720208000202080C22039
:104F0000208000202080C720208000202080D12009
:104F1000208000202080D620208000202080DD20DE
:104F2000208000202080F320208000202080E320AB
:104F3000288005202080002020800A20208000205A
:104F400020801C2020800020208033202080002012
:104F500020804420208000202080502020800020BD
:104F60002080622020800020208078202080002067
:104F70002080882020800020208097202080002012
:104F80002080A620208000202080B72020800020C4
:104F90002080C220208000202080C7202080002088
:104FA0002080D120208000202080D520208000205B
:104FB0002080DD20208000202080F3202080002021
:104FC0002080E420288001202080002020800120F3
:104FD00020800020208002202080002020802A20A5
:104FE0002080002020803C202080002020804B203A
:104FF0002080002020805D202080002020807420E0
:105000002080002020808420208000202080932089
:10501000208000202080A220208000202080B3203B
:10502000208000202080BE20208000202080C420FE
:10503000208000202080CD20208000202080D320D0
:10504000208000202080DD20208000202080F32090
:10505000208000202080E5202880002020802080E3
:105060002080208002202080002020802920208095
:10507000002020803C202080002020804B202080A9
:10508000002020805D20208000202080742020804F
:1050900000202080842020800020208093202080F9
:1050A00000202080A220208000202080B3202080AB
:1050B00000202080BE2000E033E1208000202080FE
:1050C000C420208000202080CD202080002020804F
:1050D000D320208000202080DC2020800020208021
:1050E000F320208000202080E620288011202080CE
:1050F0000020208034202080002020805620208026
:1051000000202080762020800020208077202080B2
:1051100000202080662020800020208088202080A1
:10512000002020809920208000202080BB2020802B
:105130000020208099202080002020806620208070
:1051400000202080552020800020208055202080B5
:1051500000202080452020800020208043202080C7
:10516000002020804420208000202080E72028800C
:1051700032202080002020805520208000202080A8
:105180007620208000202080662020800020208043
:105190006720208000202080672020800020208041
:1051A00087202080002020809920208000202080DF
:1051B000BB2020800020208099202080002020809B
:1051C0007720208000202080442020800020208024
:1051D0005620208000202080232020800020208056
:1051E0003320208000202080452020800020208047
:1051F000E820288000202080208099202080002026
:10520000208087202080002020808820208000208F
:1052100020807720208000202080662020800020B1
:1052200020808820208000202080AA20208000204C
:105230002080BB202080002020809920208000201A
:1052400020806620208000202080552020800020A3
:1052500020805520208000202080442020800020B5
:1052600020804420208000202080552020800020A5
:105270002080E9202880AA20208000202080208013
:1052800020802880AA202080CF2028800020208015
:10529000208020802080208020802080208020800E
:1052A00020802080208020802080208020802080FE
:1052B000F02028800020208050202080002000E066
:1052C0002DE0208020802080F32028800020208076
:1052D000F92028800620208010202080292020808E
:1052E000002020803A20288055202080112028800E
:1052F000642005F0F1FD2920288035202880002039
:10530000208051202880FF202080532028802C20BE
:10531000208055202880822020802C20FEE3884297
:105320007ED14FF470435521184602F0DFFA4FF258
:105330000104AA21204602F0D9FA661C5221304607
:1053400002F0D4FAA71C0821384602F0CFFA4FF237
:1053500004090121484602F0C9FA0D214FF43040FA
:1053600002F0C4FA0D214BF2010002F0BFFA0D2148
:105370004BF2020002F0BAFA4FF4364A342150469A
:1053800002F0B4FA34214BF2016002F0AFFA34219A
:105390004BF2026002F0AAFA4FF4314B0D2158464D
:1053A00002F0A4FA0D214BF2011002F09FFA0D2138
:1053B0004BF2021002F09AFA34214FF4374002F017
:1053C00095FA34214BF2017002F090FA34214BF23D
:1053D000027002F08BFA00214FF4324002F086FA9C
:1053E00000214BF2012002F081FA00214BF2022051
:1053F00002F07CFA24214FF4384002F077FA24219D
:105400004BF6010002F072FA24214BF6020002F082
:105410006DFA01214FF43F4002F068FA0F2100E0DD
:10542000FEE34FF4334002F061FA0F214BF20130FA
:1054300002F05CFA0F214BF2023002F057FA3421ED
:105440004FF4394002F052FA34214BF6011002F0C9
:105450004DFA34214BF6021002F048FA08214FF4BD
:10546000354002F043FA08214BF2015002F03EFAB7
:1054700008214BF2025002F039FA03214FF4424066
:1054800002F034FA24214FF43A4002F02FFA24219A
:105490004BF6012002F02AFA24214BF6022002F0FA
:1054A00025FA00214FF43C4002F020FA78214BF617
:1054B000014002F01BFA00214BF6024002F016FAFE
:1054C00000214FF43D4002F011FA78214BF60150D3
:1054D00002F00CFA00214BF6025002F007FA00210C
:1054E0004FF43E4002F002FA64214BF6016002F0F4
:1054F000FDF900214FF4514002F0F8F933214DF24B
:10550000011002F0F3F900214DF2021002F0EEF961
:1055100034214DF2031002F0E9F900214DF204109C
:1055200002F0E4F93A214DF2051002F0DFF9002112
:105530004DF2061002F0DAF94A214DF2071002F09E
:10554000D5F900214DF2081002F0D0F95C214DF29E
:10555000091002F0CBF900214DF20A1002F0C6F951
:1055600081214DF20B1002F0C1F900214DF20C1017
:1055700002F0BCF9A6214DF20D1002F0B7F900219E
:105580004DF20E1002F0B2F9E5214DF20F1002F0CB
:10559000ADF901214DF2101002F0A8F913214DF2DE
:1055A000111002F0A3F901214DF2121002F09EF940
:1055B00054214DF2131002F099F901214DF214100B
:1055C00002F094F982214DF2151002F08FF90121B9
:1055D0004DF2161002F08AF9CA214DF2171002F0AE
:1055E00085F902214DF2181002F080F900214DF2E8
:1055F000191002F07BF902214DF21A1002F076F92F
:1056000001214DF21B1002F071F902214DF21C1024
:1056100002F06CF934214DF21D1002F067F90221FD
:105620004DF21E1002F062F967214DF21F1002F0D8
:105630005DF902214DF2201002F058F984214DF25B
:10564000211002F053F902214DF2221002F04EF91E
:10565000A4214DF2231002F049F902214DF2241049
:1056600002F044F9B7214DF2251002F03FF9022172
:105670004DF2261002F03AF9CF214DF2271002F038
:1056800035F902214DF2281002F030F9DE214DF2F9
:10569000291002F02BF902214DF22A1002F026F90E
:1056A000F2214DF22B1002F021F902214DF22C10C3
:1056B00002F01CF9FE214DF22D1002F017F9032122
:1056C0004DF22E1002F012F910214DF22F1002F0BF
:1056D0000DF903214DF2301002F008F933214DF29B
:1056E000311002F003F903214DF2321002F0FEF8FE
:1056F0006D214DF2331002F0F9F800214FF45240C1
:1057000002F0F4F833214DF2012002F0EFF800210D
:105710004DF2022002F0EAF834214DF2032002F0AB
:10572000E5F800214DF2042002F0E0F83A214DF2B4
:10573000052002F0DBF800214DF2062002F0D6F839
:105740004A214DF2072002F0D1F800214DF2082045
:1057500002F0CCF85C214DF2092002F0C7F80021DC
:105760004DF20A2002F0C2F881214DF20B2002F026
:10577000BDF800214DF20C2002F0B8F8A6214DF240
:105780000D2002F0B3F800214DF20E2002F0AEF829
:10579000E5214DF20F2002F0A9F801214DF2102071
:1057A00002F0A4F813214DF2112002F09FF801211C
:1057B0004DF2122002F09AF854214DF2132002F01B
:1057C00095F801214DF2142002F090F882214DF25B
:1057D000152002F08BF801214DF2162002F086F818
:1057E000CA214DF2172002F081F802214DF2182053
:1057F00002F07CF800214DF2192002F077F8022126
:105800004DF21A2002F072F801214DF21B2002F035
:105810006DF802214DF21C2002F068F834214DF29F
:105820001D2002F063F802214DF21E2002F05EF806
:1058300067214DF21F2002F059F802214DF220207D
:1058400002F054F884214DF2212002F04FF8022199
:105850004DF2222002F04AF8A4214DF2232002F05A
:1058600045F802214DF2242002F040F8B7214DF214
:10587000252002F03BF802214DF2262002F036F8F6
:10588000CF214DF2272002F031F802214DF22820DD
:1058900002F02CF8DE214DF2292002F027F8022137
:1058A0004DF22A2002F022F8F2214DF22B2002F0D4
:1058B0001DF802214DF22C2002F018F8FE214DF2C5
:1058C0002D2002F013F803214DF22E2002F00EF8E5
:1058D00010214DF22F2002F009F803214DF2302063
:1058E00002F004F833214DF2312001F0FFFF0321D3
:1058F0004DF2322001F0FAFF6D214DF2332001F01C
:10590000F5FF00214FF4534001F0F0FF33214DF239
:10591000013001F0EBFF00214DF2023001F0E6FF13
:1059200034214DF2033001F0E1FF00214DF204304B
:1059300001F0DCFF3A214DF2053001F0D7FF0021E4
:105940004DF2063001F0D2FF4A214DF2073001F04E
:10595000CDFF00214DF2083001F0C8FF5C214DF26F
:10596000093001F0C3FF00214DF20A3001F0BEFF03
:1059700081214DF20B3001F0B9FF00214DF20C30C6
:1059800001F0B4FFA6214DF20D3001F0AFFF002170
:105990004DF20E3001F0AAFFE5214DF20F3001F07B
:1059A000A5FF01214DF2103001F0A0FF13214DF2AF
:1059B000113001F09BFF01214DF2123001F096FFF2
:1059C00054214DF2133001F091FF01214DF21430BA
:1059D00001F08CFF82214DF2153001F087FF01218B
:1059E0004DF2163001F082FFCA214DF2173001F05E
:1059F0007DFF02214DF2183001F078FF00214DF2B9
:105A0000193001F073FF02214DF21A3001F06EFFE0
:105A100001214DF21B3001F069FF02214DF21C30D3
:105A200001F064FF34214DF21D3001F05FFF0221CF
:105A30004DF21E3001F05AFF67214DF21F3001F088
:105A400055FF02214DF2203001F050FF84214DF22C
:105A5000213001F04BFF02214DF2223001F046FFD0
:105A6000A4214DF2233001F041FF02214DF22430F8
:105A700001F03CFFB7214DF2253001F037FF022144
:105A80004DF2263001F032FFCF214DF2273001F0E8
:105A90002DFF02214DF2283001F028FFDE214DF2CA
:105AA000293001F023FF02214DF22A3001F01EFFC0
:105AB000F2214DF22B3001F019FF02214DF22C3072
:105AC00001F014FFFE214DF22D3001F00FFF0321F4
:105AD0004DF22E3001F00AFF10214DF22F3001F06F
