:020000040800F2
:100000000085002039030008470100084901000865
:100010004B0100084D0100084F01000800000000DE
:100020000000000000000000000000005101000876
:1000300053010008000000005501000857010008A6
:100040005303000853030008530300085303000838
:100050005303000853030008530300085303000828
:100060005303000853030008530300085303000818
:100070005303000853030008530300085303000808
:1000800053030008530300085303000853030008F8
:1000900053030008530300085303000853030008E8
:1000A000530300085303000853030008653C00088D
:1000B000973D0008CF3E0008CF38000853030008E2
:1000C00053030008530300085303000853030008B8
:1000D00053030008592A000853030008530300087B
:1000E0005303000853030008530300085303000898
:1000F000530300085303000801400008530300089D
:100100005303000853030008530300085303000877
:100110005303000853030008114500085303000867
:100120005303000853030008530300085303000857
:10013000DFF80CD01CF088FF004800471D2D000898
:100140000085002030BF7047704770477047704788
:1001500070477047704770470CB5002001900090C1
:100160006C48006840F480306A49086000BF694804
:10017000006800F4003000900198401C0190009845
:1001800018B90198B0F5A06FF1D16248006800F489
:10019000003010B10120009001E000200090009894
:1001A000012843D15C48006840F010005A490860BB
:1001B0000846006820F0030008600846006840F028
:1001C0000200086053484068524948600846406849
:1001D00048600846406840F48060486008464068CF
:1001E00020F47C1048600846406840F4E8104860FD
:1001F0000846006840F08070086000BF454800680D
:1002000000F000700028F9D04248406820F0030058
:10021000404948600846406840F00200486000BF1E
:100220003C48406800F00C000828F9D10CBD10B51E
:10023000FFF792FF10BD10B53648006840F001008E
:1002400034490860084640683449084031494860EC
:1002500008460068324908402E4908600846006890
:1002600020F4802008600846406820F4FE004860C2
:100270004FF41F008860FFF7DAFF4FF00060294954
:10028000086010BD10B5002100200022214B5B68E2
:1002900003F00C0121B1042906D0082928D107E078
:1002A000214B224C236027E01F4B204C236023E08E
:1002B000184B5B6803F47010164B5B6803F48032D4
:1002C000022303EB904022B9194B4343174C2360A0
:1002D0000DE0104B5B6803F4003323B1144B434330
:1002E000124C236003E0104B4343104C236003E0A7
:1002F0000D4B0E4C236000BF00BF064B5B68C3F381
:1003000003130C4CE15C094B1B68CB40074C23608A
:1003100010BD000000100240002002400000FFF865
:10032000FFFFF6FE08ED00E000127A00000000205A
:1003300000093D00040000200648804706480047A9
:10034000FEE7FEE7FEE7FEE7FEE7FEE7FEE7FEE785
:10035000FEE7FEE73702000831010008314901439A
:10036000314A1160704770B5002100230F22C47814
:1003700004B32D4C246804F4E064C4F5E064210A5D
:10038000C1F10403CA40447804FA03F184781440AC
:1003900021430901254C0678A155047804F01F0576
:1003A0000124AC4005786D11AD0005F1E025C5F8DC
:1003B000004109E0047804F01F050124AC401C4D05
:1003C0000678761145F8264070BD1A4A0A40024365
:1003D000154B1B1F1A60704739B1134A121D126862
:1003E0000243114B1B1D1A6006E00F4A121D1268D2
:1003F00082430D4B1B1D1A607047042808D14FF033
:10040000E021096941F004014FF0E022116107E0A9
:100410004FF0E021096921F004014FF0E022116161
:10042000704700000000FA050CED00E000E400E079
:1004300080E100E080FFFF1F10B50446CC488442F5
:1004400008D10121042000F02DFB0021042000F040
:1004500029FB46E0C748844208D10121082000F06A
:1004600021FB0021082000F01DFB3AE0C248844235
:1004700008D10121102000F015FB0021102000F010
:1004800011FB2EE0BD48844208D10121202000F05C
:1004900009FB0021202000F005FB22E0B84884423F
:1004A00008D10121402000F0FDFA0021402000F099
:1004B000F9FA16E0B348844208D10121802000F007
:1004C000F1FA0021802000F0EDFA0AE0AE48844203
:1004D00007D10121801500F0E5FA0021A01500F0F8
:1004E000E1FA10BD10B50121084600F0DBFA002149
:1004F000012000F0D7FA10BD2DE9F0410246002599
:100500000026002000230024002791F803C00CF0EF
:100510000F0591F803C00CF0100CBCF1000F03D0D4
:1005200091F802C04CEA050591F800C0BCF1000F3B
:1005300031D0146800202BE04FF0010C0CFA00F3CE
:10054000B1F800C00CEA03069E4220D183004FF0B0
:100550000F0C0CFA03F7BC4305FA03FC4CEA040445
:1005600091F803C0BCF1280F06D14FF0010C0CFA32
:1005700000FCC2F814C00AE091F803C0BCF1480FB7
:1005800005D14FF0010C0CFA00FCC2F810C0401C61
:100590000828D1D31460B1F800C0BCF1FF0F34DDDE
:1005A000546800202EE000F1080C4FF0010808FA12
:1005B0000CF3B1F800C00CEA03069E4221D183007F
:1005C0004FF00F0C0CFA03F7BC4305FA03FC4CEA9E
:1005D000040491F803C0BCF1280F05D100F1080C08
:1005E00008FA0CF8C2F8148091F803C0BCF1480F67
:1005F00007D100F1080C4FF0010808FA0CF8C2F816
:100600001080401C0828CED35460BDE8F0814FF61E
:10061000FF710180022181700421C1707047024680
:10062000002093680B400BB1012000E000207047D0
:100630000146886880B2704702460020D3680B40AC
:100640000BB1012000E0002070470146C86880B26D
:10065000704701617047416170470AB1016100E074
:1006600041617047C16070474FF480320A43826134
:100670008161826182698269704702460020434B32
:1006800018684FF68073184040EA021008433F4B49
:10069000186070473E49C8617047F0B50A460023AC
:1006A00000240021002500F00046B6F1004F02D1E1
:1006B000364EF16901E0354E7168C0F3034583B2EF
:1006C00000F44016B6F5401F08D121F070612F4E9E
:1006D000766826F070662D4F7E6012E000F480167A
:1006E000B6F5801F06D1032606FA05F4A14341F0B2
:1006F000706106E0460D360103FA06F6B14341F09B
:10070000706122B1460D360103FA06F6314300F05E
:100710000046B6F1004F02D11C4EF16101E01B4EC4
:100720007160F0BD30B500228B071C0F0F2303FA58
:1007300004F2164B08338C1053F824309343134CB7
:1007400008348D1044F8253023468C1053F824309B
:100750008C07240F00FA04F423430C4C08348D104A
:1007600044F8253030BD0A49DC310860704700008C
:1007700000080140000C014000100140001401403D
:1007800000180140001C0140002001400000014011
:1007900000002042DF48006840F00100DD490860A9
:1007A00008464068DC490840DA4948600846006865
:1007B000DA490840D74908600846006820F48020DC
:1007C00008600846406820F4FE0048604FF41F00AF
:1007D00088607047CF49096821F48031CD4A1160A3
:1007E0001146096821F480211160B0F5803F03D0E3
:1007F000B0F5802F0ED106E0C649096841F480317A
:10080000C44A116007E0C349096841F4A021C14A04
:10081000116000E000BF00BF704710B50146002224
:10082000002300204A11012A02D1BA4C236806E0B5
:10083000022A02D1B74C236A01E0B64C636A01F088
:100840001F02012494401C400CB1012000E0002054
:1008500010BD38B5002000900024002500BF3120D5
:10086000FFF7DBFF05460098401C00900098B0F5AC
:10087000A06F01D0002DF2D03120FFF7CEFF08B1DC
:10088000012400E00024204638BD01460020A14A92
:10089000106820F0F80040EAC10010607047A049DD
:1008A00008607047024600209A4B586820F47C107C
:1008B00042EA01031843974B58607047984908660D
:1008C000704701460020934A506820F00300084317
:1008D000506070478F48406800F00C007047014638
:1008E00000208C4A506820F0F000084350607047A8
:1008F00001460020874A506820F4E06008435060B9
:10090000704701460020834A506820F4605040EA56
:10091000C1005060704729B17E4A527A02437D4B34
:100920005A7204E07B4A527A82437A4B5A72704779
:100930007B49D8310860704701460020754A5068ED
:1009400020F440400843506070470021714A203233
:100950001170704A82F82010012802D004280AD1B0
:1009600004E001216B4A2032117005E00521694A3B
:100970002032117000E000BF00BF70476949086075
:1009800070476449096A0143624A116270476549C8
:1009900044390860704730B500210022002400234C
:1009A0005C4D6D6805F00C0121B1042905D00829C2
:1009B00023D105E05C4D056022E05B4D05601FE042
:1009C000544D6D6805F47012524D6D6805F4803415
:1009D000022505EB92421CB9544D554305600BE0CE
:1009E0004C4D6D6805F400351DB1504D5543056003
:1009F00002E04D4D5543056002E04B4D056000BFE0
:100A000000BF444D6D6805F0F0010909484D6B5C6D
:100A10000568DD4045603F4D6D6805F4E061090AF9
:100A2000434D6B5C4568DD4085603A4D6D6805F46B
:100A30006051C90A3E4D6B5C4568DD40C560354D6F
:100A40006D6805F44041890B3A4D6B5CC568B5FB98
:100A5000F3F5056130BD29B12E4A526902432D4B91
:100A60005A6104E02B4A526982432A4B5A6170470B
:100A700029B1284A92690243264B9A6104E0254A2B
:100A800092698243234B9A61704729B1214AD26906
:100A90000243204BDA6104E01E4AD26982431D4BB7
:100AA000DA61704729B11B4AD2680243194BDA60F8
:100AB00004E0184AD2688243164BDA60704729B1C5
:100AC000144A12690243134B1A6104E0114A126975
:100AD0008243104B1A6170471249403908607047D1
:100AE0000F49C86470470B49C87170470948406A8C
:100AF00040F0807007494862704701460020054A6F
:100B000092680A400AB1012000E0002070470149C4
:100B100088727047001002400000FFF8FFFFF6FEE9
:100B2000000042428004424200127A0000093D0067
:100B3000140000202400002010B50446FB48844225
:100B400009D101218803FFF7ADFF00214FF4804058
:100B5000FFF7A8FF32E0F648844209D1012148049A
:100B6000FFF7ADFF00214FF40030FFF7A8FF25E0AD
:100B7000F048844209D101218804FFF7A0FF002139
:100B80004FF48020FFF79BFF18E0EB48844209D127
:100B90000121C804FFF793FF00214FF40020FFF765
:100BA0008EFF0BE0E548844208D101210805FFF7DC
:100BB00086FF00214FF48010FFF781FF10BD2DE963
:100BC000F04786B005460E460024A24600BFA14667
:100BD0000027B08900B100BF2F462C8A4CF6FF7069
:100BE0000440F08804432C82AC894EF6F310044094
:100BF000B08831890843718908430443AC81AC8AC9
:100C00004FF6FF400440B0890443AC8201A8FFF7CF
:100C1000C2FEC648874202D1DDF810A001E0DDF82F
:100C20000CA0A88900F4004040B10AEBCA0000EB18
:100C30000A1031684900B0FBF1F807E00AEBCA007E
:100C400000EB0A1031688900B0FBF1F86420B8FBB2
:100C5000F0F004012009642101FB1089A88900F447
:100C6000004040B1322000EBC900B0FBF1F000F0D1
:100C70000700044308E0322000EB09106421B0FBB8
:100C8000F1F000F00F0004432C8106B0BDE8F087BE
:100C90004FF41651016000218180C18001810C2137
:100CA000418100218181704710B502460020108AE1
:100CB0004FF2FF0318400B884C8823438C88234352
:100CC000CC8823431843108210BD0021018041804D
:100CD0008180C180704721B1828942F400528281B3
:100CE00004E082894DF6FF731A4082817047F0B5A7
:100CF0000346002400260025002040F66A17B9426A
:100D000000D100BF1846C1F3421401F01F060127AD
:100D100007FA06F5012C01D10C3004E0022C01D1B8
:100D2000103000E014301AB107682F43076002E06A
:100D30000768AF430760F0BD1AB1838A0B43838213
:100D400002E0838A8B4383827047028A4FF6F073F6
:100D50001A400282028A0A430282704782894FF255
:100D6000FF731A40828182890A438281704721B1D0
:100D7000828942F00202828104E082894FF6FD738B
:100D80001A4082817047028A4FF6DF731A4002824E
:100D9000028A0A430282704721B1028A42F48042E9
:100DA000028204E0028A4BF6FF731A400282704707
:100DB000C1F308028280704701468888C0F30800AA
:100DC0007047818941F0010181817047028BD2B265
:100DD0000283028B42EA012202837047028B02F4F3
:100DE0007F420283028B0A430283704721B1828AC9
:100DF00042F02002828204E0828A4FF6DF731A40BA
:100E00008282704721B1828A42F01002828204E01D
:100E1000828A4FF6EF731A408282704721B1828A2C
:100E200042F00802828204E0828A4FF6F7731A4089
:100E30008282704721B1828942F40042828103E0BC
:100E40008289C2F30E028281704721B1828A42F404
:100E50000062828204E0828A4FF2FF731A4082822B
:100E60007047828A4FF6FB731A408282828A0A4355
:100E70008282704721B1828A42F00202828204E0BB
:100E8000828A4FF6FD731A40828270470246002024
:100E9000B1F5007F00D100BF13880B400BB10120DA
:100EA00000E00020704701F40072B2F5007F00D12D
:100EB00000BFCA430280704770B502460024002379
:100EC0000025002040F66A16B14200D100BFC1F3F0
:100ED000421501F01F03012606FA03F3012D02D18A
:100EE0009689334006E0022D02D1168A334001E094
:100EF000968A33400C12012606FA04F41688344010
:100F000013B10CB1012000E0002070BD10B500222B
:100F1000002340F66A14A14200D100BF0A12012446
:100F20009440A3B2DC43048010BD000000380140AF
:100F30000044004000480040004C00400050004089
:100F400010B50446FA48844208D101214015FFF744
:100F5000A9FD00216015FFF7A5FD17E0F5488442C3
:100F600008D101210015FFF79DFD00212015FFF795
:100F700099FD0BE0F048844208D10121C803FFF736
:100F800091FD00214FF40040FFF78CFD10BD30B5FE
:100F90000246002000235068E84C20400D790C6880
:100FA00044EA0524204350609068E54C2040D1E994
:100FB00002542C434D7944EA450420439060D06AA2
:100FC00020F470000C7C641EE4B2234340EA03501A
:100FD000D06230BD00210160017141718160C1604A
:100FE00001210174704721B1826842F001028260E0
:100FF00003E0826822F001028260704721B18268BA
:1010000042F48072826003E0826822F4807282601F
:10101000704710B50023CBB21AB144681C4344603A
:1010200002E044689C43446010BD816841F00801BF
:1010300081607047014600208A6802F008020AB108
:10104000012000E000207047816841F004018160C8
:101050007047014600208A6802F004020AB10120AC
:1010600000E00020704721B1826842F4A002826053
:1010700003E0826822F4A0028260704701460020EB
:101080008A6802F480020AB1012000E00020704763
:1010900010B50A4600210023416821F46041531E27
:1010A00041EA4331416010BD21B1426842F400621F
:1010B000426003E0426822F4006242607047F0B58B
:1010C00004460D4600200021092D11DDE068A5F140
:1010D0000A0606EB4607072606FA07F18843A5F13C
:1010E0000A0606EB460603FA06F10843E0600CE048
:1010F000206905EB4507072606FA07F1884305EB4B
:10110000450603FA06F108432061072A0FDA606BEF
:10111000561E06EB86071F2606FA07F18843561E61
:1011200006EB860605FA06F10843606322E00D2A05
:101130000FDA206BD61F06EB86071F2606FA07F18B
:101140008843D61F06EB860605FA06F1084320639E
:1011500010E0E06AA2F10D0606EB86071F2606FAEC
:1011600007F18843A2F10D0606EB860605FA06F1A3
:101170000843E062F0BD21B1826842F480128260CF
:1011800003E0826822F48012826070470146C86CD6
:1011900080B2704766484C300068704721B14268A1
:1011A00042F48062426003E0426822F4806242605E
:1011B000704721B1426842F48052426003E04268C5
:1011C00022F48052426070470A460021816821F46F
:1011D000E04111438160704721B1826842F40042CE
:1011E000826003E0826822F400428260704721B18D
:1011F000826842F40212826003E0826822F40212E2
:1012000082607047014600208A6802F400120AB129
:10121000012000E000207047F0B50446154600208C
:1012200000220026092911DDE068A1F10A0707EB79
:10123000470C072707FA0CF29043A1F10A0707EBC6
:10124000470703FA07F21043E0600CE0206901EB66
:10125000410C072707FA0CF2904301EB410703FA10
:1012600007F210432061A06BC0F30156EF1C06F19A
:10127000010CA7EB0C0707EB870C1F2707FA0CF2F2
:101280009043EF1C06F1010CA7EB0C0707EB870757
:1012900001FA07F21043A063F0BD10B50A46002121
:1012A0000023816B21F44011531E41EA03518163F5
:1012B00010BD08B5002300930090009B0B440093E1
:1012C000009B1A6008BD08B50246002000900092FD
:1012D00001F12800009B184400900098006880B23B
:1012E00008BD0A4600214168164B19401143416070
:1012F00070474162826270470A460021416821F0CE
:101300001F0111434160704740B109490831096824
:1013100041F40001064A0832116007E0044908312F
:10132000096821F40001024A083211607047000088
:101330000024014000280140003C0140FFFEF0FF76
:10134000FDF7F1FFFFFD3FFF0246002013680B4051
:101350000BB1012000E000207047CA4302607047D3
:1013600070B502460020002300240B125568CEB24F
:1013700005EA060415681D4015B10CB1012000E016
:10138000002070BD00220A12D343036070470000A2
:1013900010B50120FFF7A0FB0020FFF79DFB10BD5B
:1013A0002A49086070472949091F08607047274982
:1013B00084310860704701460020254A10884FF6A6
:1013C0007F4210400843224A1080704701460020A7
:1013D0001F4A10884FF68072104008431C4A108044
:1013E000704708B500220092194A2C3A0092009AE0
:1013F00002440092009A116008BD08B50146002021
:10140000009013482C3800900098084400900098F1
:10141000008808BD0D489C300068C0B270470C4879
:101420000830008840F00100094908310880704701
:101430000648A0300068C0B27047054808300088F0
:1014400040F00200024908310880704704860D42CE
:101450002C6C004001684FF6FE72114001600021C3
:10146000016041608160C1608D49884208D18C492A
:101470000839496841F00F01894A083A51608AE009
:1014800087491431884208D185490839496841F0B3
:10149000F001834A083A51607DE081492831884251
:1014A00008D17F490839496841F470617C4A083A9B
:1014B000516070E07A493C31884208D17849083956
:1014C000496841F47041764A083A516063E07449D2
:1014D0005031884208D172490839496841F4702175
:1014E0006F4A083A516056E06D496431884208D12C
:1014F0006B490839496841F47001694A083A5160FA
:1015000049E067497831884208D165490839496816
:1015100041F07061624A083A51603CE0614988429A
:1015200006D1011F096841F00F01021F116032E06E
:101530005C491431884208D15A49091F096841F0B1
:10154000F001584A121F116025E05649283188429F
:1015500008D15449091F096841F47061514A121FAA
:10156000116018E04F493C31884208D14D49091FAC
:10157000096841F470414B4A121F11600BE0494960
:101580005031884207D14749091F096841F4702149
:10159000444A121F1160704710B50022026847F6D6
:1015A000F0739A430C6A8B6823430C6923434C699C
:1015B00023438C692343CC6923434C6A23438C6ABD
:1015C00023431A430260CB6843600B6883604B6817
:1015D000C36010BD0021016041608160C160016194
:1015E00041618161C161016241628162704721B1E3
:1015F000026842F00102026004E002684FF6FE73E6
:101600001A40026070471AB103680B43036002E09E
:1016100003688B4303607047416070470146486828
:1016200080B2704701460020002201F080531BB1B8
:101630001C4B083B1A6802E0194B083B1A6802EA87
:1016400001030BB1012000E00020704700F0805141
:1016500019B11449091F086002E0114908394860AE
:10166000704701460020002201F080531BB10D4B52
:10167000083B1A6802E00A4B083B1A6802EA0103B9
:101680000BB1012000E00020704700F0805119B13B
:101690000449091F086002E00149083948607047A1
:1016A000080002400804024010B501210807FFF7B6
:1016B00006FA00214FF08050FFF701FA10BD2A49C9
:1016C0000862704728490861704701460020274A90
:1016D000106820F0E0000843106070472249A031F4
:1016E0000860704710B502460020204B186820F0B3
:1016F0000300104318601E4B1B6843F004031C4C8E
:101700002360012901D130BF00E020BF184B1B68C6
:1017100023F00403164C236010BD1448006840F009
:101720000400124908600846006840F002000860A2
:101730000F48006840F004000D49086000BF00BF7A
:1017400030BF704701460020084A52680A400AB17B
:10175000012000E0002070470449096841EA800147
:10176000024A11607047000000000E420070004005
:1017700010ED00E010B50446FE48844208D1012176
:10178000C014FFF78FF90021E014FFF78BF9C4E0D4
:10179000B4F1804F08D101210846FFF790F90021EC
:1017A0000120FFF78CF9B8E0F348844208D1012109
:1017B0000220FFF784F900210220FFF780F9ACE056
:1017C000EE48844208D101210420FFF778F9002176
:1017D0000420FFF774F9A0E0E948844208D1012110
:1017E0000820FFF76CF900210820FFF768F994E062
:1017F000E448844208D101211020FFF760F900215C
:101800001020FFF75CF988E0DF48844208D101210D
:101810002020FFF754F900212020FFF750F97CE049
:10182000DA48844208D101214014FFF73BF9002136
:101830006014FFF737F970E0D548844209D10121DF
:10184000C804FFF72FF900214FF40020FFF72AF911
:1018500063E0D048844209D101210805FFF722F94D
:1018600000214FF48010FFF71DF956E0CA4884426A
:1018700009D101214805FFF715F900214FF40010A7
:10188000FFF710F949E0C548844208D10121402002
:10189000FFF715F900214020FFF711F93DE0C0489E
:1018A000844208D101218020FFF709F9002180201E
:1018B000FFF705F931E0BB48844208D101218015CA
:1018C000FFF7FDF80021A015FFF7F9F825E0B6486D
:1018D000844209D101210804FFF7E4F800214FF404
:1018E0008030FFF7DFF818E0B048844209D10121C9
:1018F0004804FFF7D7F800214FF40030FFF7D2F883
:101900000BE0AB48844208D101218804FFF7CAF8F4
:1019100000214FF48020FFF7C5F810BD0022028897
:10192000944B98420ED0994B98420BD0B0F1804F17
:1019300008D0914B984205D0904B984202D0904BE2
:10194000984204D14FF68F731A404B881A438D4B3F
:10195000984207D08C4B984204D04FF6FF431A4070
:10196000CB881A4302808B8883850B880385814B43
:1019700098420BD0854B984208D08B4B984205D0AB
:101980008A4B984202D08A4B984201D10B7A038647
:1019900001238382704770B5002400220023058C48
:1019A0004FF6FE7635400584028C8388048B4FF613
:1019B0008F752C40B51E2C400D882C43751E2A4077
:1019C0000D892A434D882A436A4DA8420BD06F4D9A
:1019D000A84208D0744DA84205D0744DA84202D048
:1019E000734DA84213D14FF6F7752A404D892A430B
:1019F0004FF6FB752A408D882A434FF6FF652B4032
:101A00004FF6FF552B408D892B43CD892B43838087
:101A10000483CD888586028470BD70B500240022C1
:101A20000023058C4FF6EF7635400584028C8388C1
:101A3000048B48F6FF752C404FF6FF452C400D886F
:101A40004FF6FF7606EA05252C434FF6DF752A4050
:101A50000D8906EA05152A434D8806EA05152A432D
:101A6000444DA84202D0494DA8421DD14FF67F7582
:101A70002A404D894FF6FF7606EA05152A434FF6B0
:101A8000BF752A408D8806EA05152A434FF6FF35B3
:101A90002B404FF2FF752B408D8906EA85052B43BD
:101AA000CD8906EA85052B4383800483CD8805878D
:101AB000028470BD70B5002400220023058C4FF60F
:101AC000FF6635400584028C8388848B4FF68F75C2
:101AD0002C404FF6FC752C400D882C434FF6FF55DB
:101AE0002A400D894FF6FF7606EA05252A434D88E0
:101AF00006EA05252A431F4DA84202D0234DA842DD
:101B00001DD14FF2FF752A404D894FF6FF7606EA48
:101B100005252A434FF6FF352A408D8806EA05251C
:101B20002A434EF6FF752B404DF6FF752B408D89ED
:101B300006EA05152B43CD8906EA05152B4383805C
:101B40008483CD888587028470BD70B50022002310
:101B50000024058C4EF6FF7635400584038C84887E
:101B6000828B48F6FF752A404FF6FF452A400D88C4
:101B700020E00000002C014000040040000800406C
:101B8000000C0040001000400014004000340140F0
:101B9000004C01400050014000540140001800403A
:101BA000001C004000200040004001400044014073
:101BB000004801404FF6FF7606EA05252A434DF618
:101BC000FF752B400D8906EA05352B434D8806EA43
:101BD00005352B43FA4DA84202D0FA4DA84208D150
:101BE0004BF6FF752C408D894FF6FF7606EA85157A
:101BF0002C4384808283CD88A0F84050038470BD3C
:101C0000828B4FF2FF331A408283828B4FF6FF7331
:101C100003EA01231A4382837047F0B50C46154648
:101C2000002200210026078C4EF6FF7C07EA0C07F5
:101C30000784828B018C4FF6FF7707EA043640F663
:101C4000FF473A404FF6FF7707EA05273A434FF63A
:101C5000FF7707EA03373A43D94FB8420ED0D94F3E
:101C6000B8420BD0B0F1804F08D0D74FB84205D062
:101C7000D64FB84202D0D64FB84206D14DF6FF77C4
:101C8000394046F48057394305E047F6FF5739405D
:101C900044F48057394382830184F0BD828B4FF630
:101CA000F3731A408283828B0A4382837047F0B5B4
:101CB0000C461546002200210026078C4FF6FF6CCB
:101CC00007EA0C070784828B018C4FF6FF7707EA3F
:101CD00004264FF60C773A404FF6FF7707EA0317D2
:101CE0002F433A43B64FB8420ED0B64FB8420BD04E
:101CF000B0F1804F08D0B44FB84205D0B34FB842CE
:101D000002D0B34FB84206D14FF6FF57394046F4E0
:101D10008077394305E04FF2FF57394044F480772C
:101D2000394382830184F0BD028B4FF2FF331A40A6
:101D30000283028B4FF6FF7303EA01231A430283E7
:101D40007047F0B50C461546002200210026078C8E
:101D50004FF6EF7C07EA0C070784028B018C4FF6E5
:101D6000FF7707EA041640F6FF473A404FF6FF7741
:101D700007EA03373A434FF6FF7707EA05273A4366
:101D80008F4FB8420ED08F4FB8420BD0B0F1804F7A
:101D900008D08D4FB84205D08C4FB84202D08C4F3E
:101DA000B84206D14FF6DF77394046F01007394385
:101DB00005E04FF65F77394044F01007394302835E
:101DC0000184F0BD028B4FF6F3731A400283028B3D
:101DD0000A4302837047F0B50C46154600220021E5
:101DE000068C4FF6FE773E400684028B018C4FF640
:101DF0000C7632407E1C06EA03162E433243704EA8
:101E0000B0420ED06F4EB0420BD0B0F1804F08D030
:101E10006D4EB04205D06D4EB04202D06C4EB04215
:101E200006D14FF6FD76314044F00106314305E01E
:101E30004FF6F576314044F00106314302830184C8
:101E4000F0BD70B505460C465D4885420ED05D4834
:101E500085420BD0B5F1804F08D05B48854205D054
:101E60005A48854202D05A48854200D100E000BF5E
:101E7000208850B92389A28861882846FFF7ABFFE4
:101E8000E1882846FFF79EFF25E0208804280AD134
:101E90002389A28861882846FFF753FFE1882846F6
:101EA000FFF742FF17E0208808280AD12389A2887B
:101EB00061882846FFF7FBFEE1882846FFF7EEFE23
:101EC00009E02389A28861882846FFF7A6FEE188F9
:101ED0002846FFF795FE70BD2DE9F04105460C46FA
:101EE00000260127608808B9022600E00026A088A5
:101EF000012801D1022700E001272088A0B9238909
:101F0000A28861882846FFF766FFE1882846FFF728
:101F100059FF23893A4631462846FFF712FFE188E8
:101F20002846FFF701FF13E02389A288618828462D
:101F3000FFF707FFE1882846FFF7F6FE23893A46B8
:101F400031462846FFF747FFE1882846FFF73AFF6A
:101F5000BDE8F0810A884B881A438B881A43CB88E6
:101F60001A430B891A434B891A438B891A43A0F8E9
:101F7000442070474FF6FF71818000210180C180AD
:101F80004180017270470021018041808180C180C1
:101F9000018141818181C18170470021018041809F
:101FA000012181800021C1800181704700210180D1
:101FB00041808180C1800181418181817047000021
:101FC000002C0140003401400004004000080040A3
:101FD000000C004021B1028842F00102028004E0BE
:101FE00002884FF6FE731A400280704731B1B0F894
:101FF000442042F40042A0F8442005E0B0F8442018
:10200000C2F30E02A0F8442070471AB183890B4333
:10201000838102E083898B4383817047818270478B
:1020200041EA0203A0F8483070471AB183890B4394
:10203000838102E083898B438381704701894FF656
:10204000F8721140018170470A46002101894FF65C
:102050008F73194011430181704730B504460D4616
:1020600029462046FFF7F0FF208940F00700208135
:1020700030BD2DE9F04104460D4616461F46602D41
:1020800006D13B46012231462046FFF75AFE05E0C5
:102090003B46012231462046FFF79DFE2946204659
:1020A000FFF7D2FF208940F007002081BDE8F081D2
:1020B00030B50C4600210189C9B24FF6FF7505EA1B
:1020C0000325154325432943018130BD2DE9F04106
:1020D00005460E4617469846002443463A46314682
:1020E0002846FFF7E5FF2C894FF6F870044044F0CE
:1020F00007044FF68F70044044F070042C81BDE853
:10210000F081F0B504460D4616461F463B46324662
:1021100029462046FFF7CCFF208940F480402081EB
:10212000F0BD0185828270470A46002101884FF682
:102130008F731940114301807047F0B50C46154666
:102140001E460021002200230189028B038C4FF6DA
:10215000F877394021434FF6FC473A4040F20117E7
:102160003A434FF6DD773B404FF6FF7707EA061715
:102170002F433B43018102830384F0BD0A460021C3
:10218000018B4FF68F7319401143018370470A4644
:102190000021018B48F6FF7319404FF6FF7303EAE5
:1021A00002231943018370470A460021818B4FF6B1
:1021B0008F7319401143818370470A460021818B38
:1021C00048F6FF7319404FF6FF7303EA02231943E1
:1021D0008183704721B1028842F08002028004E0CE
:1021E00002884FF67F731A400280704721B18288BF
:1021F00042F00402828004E082884FF6FB731A40AA
:102200008280704721B1828842F00802828004E017
:1022100082884FF6F7731A408280704721B1828816
:1022200042F00102828004E082884FF6FE731A4079
:10223000828070470A460021018B4FF6F7731940E0
:102240001143018370470A460021018B4FF2FF734F
:1022500019404FF6FF7303EA0223194301837047C5
:102260000A460021818B4FF6F77319401143818391
:1022700070470A460021818B4FF2FF7319404FF6D9
:10228000FF7303EA02231943818370470A46002142
:10229000018B4FF6FB7319401143018370470A46C7
:1022A0000021018B4FF6FF3319404FF6FF7303EA0D
:1022B00002231943018370470A460021818B4FF6A0
:1022C000FB7319401143818370470A460021818BBB
:1022D0004FF6FF3319404FF6FF7303EA0223194309
:1022E000818370470A460021018B4FF67F731940A6
:1022F0001143018370470A460021018BC1F30E018F
:102300004FF6FF7303EA02231943018370470A461D
:102310000021818B4FF67F731940114381837047F1
:102320000A460021818BC1F30E014FF6FF7303EAC9
:1023300002231943818370470A460021018C4FF61E
:10234000FD7319401143018470470A460021018C36
:102350004FF6F77319401143018470470A46002174
:10236000018C4FF6DF7319404FF6FF7303EA021337
:102370001943018470470A460021018C4FF67F7390
:1023800019404FF6FF7303EA0213194301847047A3
:102390000A460021018C4FF6FF5319404FF6FF7398
:1023A00003EA02231943018470470A460021018C85
:1023B0004FF2FF7319404FF6FF7303EA02231943EC
:1023C000018470470A460021018C4DF6FF731940C5
:1023D0004FF6FF7303EA023319430184704730B5A7
:1023E000002301248C40A3B2048C9C430484048CFD
:1023F00002FA01F5ADB22C43048430BD30B50023A0
:1024000004248C40A3B2048C9C430484048C02FA00
:1024100001F5ADB22C43048430BD70B503460020F5
:1024200000241846183001258D40ACB21D8CA54300
:102430001D8409B1082909D100EB6100056825F068
:10244000700505600568154305600EE00D1FC5F3B6
:102450004E052844056825F4E045056005684FF6FB
:10246000FF7606EA02263543056070BD21B1028879
:1024700042F00202028004E002884FF6FD731A4027
:102480000280704721B1028842F00402028004E019
:1024900002884FF6FB731A400280704721B1828890
:1024A00042F08002828004E082884FF67F731A40F7
:1024B0008280704702884FF6F7731A4002800288C4
:1024C0000A430280704782884FF68F731A408280D9
:1024D00082880A438280704702894FF6F8731A4057
:1024E000028102890A430281704702894FF67F7395
:1024F0001A40028102890A43028170478184704731
:102500008185704781867047018770478187704752
:10251000A0F84010704702884FF6FF431A4002802F
:1025200002880A43028070470146888E7047014640
:10253000088F70470146888F70470146B1F8400008
:1025400070470146888C70470146088D70470246E7
:102550000020138A0B400BB1012000E000207047DF
:10256000CA430282704730B502460020002300248F
:10257000158A05EA0103958905EA010413B10CB136
:10258000012000E0002030BDCA43028270470000F5
:102590004FF0E021096921F004014FF0E0221161C0
:1025A000C21700EB5272C2F3C7022B4B1A701946C6
:1025B000097801EB4102C2EBC1114FF6FF7202EA4A
:1025C000C101264A118070470146234A12784A43C6
:1025D0004FF0E0235A6100229A611A46126942F0D4
:1025E00001021A6100BF4FF0E022106900F0010201
:1025F0001AB100F48032002AF5D04FF0E0221269BF
:1026000022F001024FF0E0231A6100229A61704724
:102610000146124A12884A434FF0E0235A610022D1
:102620009A611A46126942F001021A6100BF4FF026
:10263000E022106900F001021AB100F48032002A91
:10264000F5D04FF0E022126922F001024FF0E023B2
:102650001A6100229A617047280000202A00002099
:10266000B94A11880A131303C1F3032203EB0223AF
:10267000C1F3031203EB021201F00F031A4491B2EB
:102680004D22027043224270552282704322C27052
:1026900061220271702242713A2282714FF47A7281
:1026A00091FBF2F232B14FF47A7291FBF2F23032D6
:1026B000C27101E02022C2714FF47A7291FBF2F3F1
:1026C00002FB1312642392FBF3F230320272642293
:1026D00091FBF2F302FB13120A2392FBF3F2303266
:1026E00042720A2291FBF2F302FB13123032827221
:1026F0004B22C27262220273704770B5044693483F
:1027000005682A4692A120461AF0AAFE70BD934A97
:102710000A4002438D4B08331A60704710B50446D7
:102720002046FDF71BFE10BDF8B504460D461746C2
:102730001E463046FFF7F2FF8DF800708DF801401D
:102740008DF8025001208DF803006846FDF70BFE5E
:10275000F8BD00B5002082490861C86014204861B6
:1027600000208861C8610846006840F001000860E8
:10277000084640687B490840794948600846006837
:1027800079490840764908600846006820F48020AE
:1027900008600846406820F4FE0048600020886019
:1027A00000214FF00060FFF7B2FF00BD10B5674891
:1027B0001030006840F00400644910310860684837
:1027C000C06940F080506649C8616848406840F47C
:1027D0008070664948600846006840F00400086060
:1027E0000846006840F002000860FDF7ABFC10BD31
:1027F0005F4856490C31086070475949896941F072
:102800000101574A91615B49496821F0E061594AE9
:1028100051601146496841EA00615160704730B526
:1028200004460025FFF795FF4D48006840F48030CE
:102830004B49086000BF4A480068400C0028FAD0A5
:102840004FF4806046494860A01EC4B20846406804
:1028500040EA844048600846406840F48030486060
:102860004548006840F03200434908603C48006831
:1028700040F080703A49086000BF39480068400E57
:102880000028FAD03648406840F0020034494860D9
:1028900005E033484068C0F3870505F00305022DC5
:1028A000F7D130BD01460A2091FBF0F200FB121077
:1028B0000A2291FBF2F240EA0210C0B270470146D0
:1028C00001F00F000A1102EB820200EB4200C0B2DD
:1028D000704701464FF47A7091FBF0F000034FF41B
:1028E0007A7291FBF2F302FB1312642392FBF3F270
:1028F00040EA02201A4691FBF2F302FB13120A236C
:1029000092FBF3F240EA02101A4691FBF2F302FB4B
:102910001312104380B27047014608134FF47A72C5
:102920005043C1F3032202EBC20303EB021200EB9C
:102930008200C1F3031202EB820200EB420001F0BD
:102940000F02104480B27047E0F7FF1F00ED00E077
:102950004350552049443A253038580080FFFF1F26
:10296000001002400000FFF8FFFFF6FE007000407C
:102970000400FA05000001400020024000BF3E4A6A
:10298000128802F04002002AF9D0C2B23A4B1B1D55
:102990001A80704710B5044600BF20213648FEF764
:1029A00075FA0028F9D03448FEF706FA10BD10B5C4
:1029B00086B0044630480C30008840F480702E49C0
:1029C0000C3108800846008840F0200008804FF451
:1029D000A063252203210846FFF7A6FE012144F249
:1029E0000400FEF745F82448FEF7A6F84FF40070FF
:1029F000ADF8140003208DF8160018208DF817008C
:102A000005A91E48FDF778FD4FF48060ADF814006D
:102A100004208DF8170005A91848FDF76DFD0194F5
:102A20000020ADF80800ADF80A00ADF80C00ADF8D4
:102A300010000C20ADF80E0001A90F48FEF7BFF8FA
:102A4000012240F225510C48FEF751F901210A48B4
:102A5000FEF741F906B010BD10B540F22551064809
:102A6000FEF72AFA30B10448FEF7A6F9C4B20248CC
:102A7000001D048010BD0000003801400008014026
:102A800001460020704700DE01460020704710B567
:102A900004460821C048FDF7DEFD012010BD10B539
:102AA00004460821BC48FDF7D4FD012010BD2DE9E6
:102AB000F04104460022511E204602F0A5F80646C9
:102AC00019F092FF0546A8B2FFF7A2FD0120BDE86C
:102AD000F081F0B587B0044600220121204602F0C3
:102AE00093F8064619F09FFFC5B200220221204646
:102AF00002F08AF8064619F096FFC0B28DF814006D
:102B0000294601A8DDE9052300F0BFFDDDE901014B
:102B1000CDE90301BDF80E0019F045FF0646324627
:102B20000B46204602F093F9012007B0F0BD2DE9D5
:102B3000FC41044600220121204602F065F80646C9
:102B400019F052FF054601208DF8050000220221F0
:102B5000204602F059F8064619F065FFC0B28DF81C
:102B60000400E8B2019900F039F900909DF80400E2
:102B700019F019FF064632460B46204602F067F967
:102B80000120BDE8FC812DE9FC4104460022012121
:102B9000204602F039F8064619F026FF05460120C6
:102BA000019000220221204602F02EF8064619F07C
:102BB0003AFFC0B28DF80000E8B2019900F051F977
:102BC00000909DF8000019F0EEFE064632460B46D6
:102BD000204602F03CF90120BDE8FC81F0B587B049
:102BE000044600220121204602F00EF8064619F0A4
:102BF0001AFFC5B200220221204602F005F806465F
:102C000019F011FF80B2ADF80C000022032120461C
:102C100001F0FAFF064619F087FF05900022042113
:102C2000204601F0F1FF064619F0FDFE80B2ADF836
:102C3000100000220521204601F0E6FF064619F0AB
:102C4000F2FEC0B28DF818000120019006980090A5
:102C5000284603A90EC900F00DFF0290BDF8080038
:102C600019F0A1FE064632460B46204602F0EFF868
:102C7000012007B0F0BD10B50446002247492046A8
:102C800004F0C1F946A1204602F0D2FB012010BD9C
:102C90001CB504F016FB044620460AF0A3FB2046B0
:102CA00005F003F93F49204604F0CCF840B9002074
:102CB00000900346421E01460190204602F0E9FDC5
:102CC000204611F02EF900201CBD1CB5002504F093
:102CD000F8FA04460CB9AFF30080204605F0E5F899
:102CE0002046FFF7C8FF2F49204604F0ABF848B94B
:102CF000002000900346421E01460190204602F04B
:102D0000C8FD08B1012000E0002005460DB1AFF379
:102D10000080204611F005F9AFF300804820FFF74E
:102D200037FC00F0D7F84FF4E130FFF740FE00F039
:102D3000FBF800F08BF900F00BFA482140F28330E9
:102D400000F052FD012140F2CF2000F090FD0A2159
:102D5000472001F072FB01F0BCFC47224FF6FF71E7
:102D6000114800F0EDFE47224FF6FF714FF0804012
:102D700000F0E6FE47224FF6FF710C4800F0E0FE3F
:102D800047224FF6FF710A4800F0DAFE01F0A1FC7D
:102D900000F0A5FEFFF799FF00180140E40A0208C1
:102DA0004C454400F8070208002C01400004004094
:102DB00000340140024602B909B1012070470020E9
:102DC000FCE7024612B109B1012070470020FCE780
:102DD000014609B9012070470020FCE733B581B0F6
:102DE000044601259DF8090001282FD12046E1174E
:102DF00004EB5171C910A4EBC10105FA01F1CDB288
:102E00009DF8080001280ED1E11704EB5171C9109B
:102E10002E4A515C29432046E21704EB5272D2102D
:102E20002A4B99540DE0E11704EB5171C910274A60
:102E3000515CA9432046E21704EB5272D210234B97
:102E40009954224800F0AEF800F0EBF89DF8090024
:102E50008DF8010000208DF80000BDF80010084634
:102E60003EBD33B581B0044601251949062000F066
:102E70002BF99DF8080001281CD12046E11704EB2E
:102E80005171C910A4EBC10105FA01F1CDB2E843BB
:102E9000C5B2E11704EB5171C9100D4A515C2943C9
:102EA000A94203D101208DF8000006E000208DF832
:102EB000000002E000208DF800009DF808008DF869
:102EC0000100BDF8001008463EBD00002E000020A5
:102ED0003200002008B501210846FDF7C9FD012197
:102EE0004020FDF7C5FD2B20ADF8000002208DF835
:102EF000020010208DF8030069460A48FDF7FCFA2D
:102F000008210848FDF7A5FB0120FEF7D8FB0020AB
:102F1000FDF71BFD0020FEF746FA0020FEF747FAFA
:102F200008BD00000018014008B501214020FDF750
:102F30009FFD4FF48060ADF8000010208DF8030075
:102F400003208DF8020069463F48FDF7D5FA4FF49B
:102F50008070ADF8000010208DF8030003208DF87C
:102F6000020069463848FDF7C7FA4FF40070ADF823
:102F7000000010208DF8030003208DF80200694640
:102F80003148FDF7B9FA4FF48050ADF80000102039
:102F90008DF8030003208DF8020069462A48FDF7EA
:102FA000ABFA08BDF8B505460020009028680090EF
:102FB0004FF4805024491431086000242EE000268C
:102FC00028E04FF480602049143108601DF80400A7
:102FD00000F08000802803D14000091F086004E051
:102FE0004FF480701849143108604FF4806016491E
:102FF000103108601DF804004006000E0DF80400B2
:103000000320FFF7E1FA4FF480600F4914310860A4
:10301000701CC6B2082ED4DB601CC4B2042CCEDBFC
:10302000F8BD10B54FF40070074914310860032053
:10303000FFF7CAFA4FF4007003491031086003200B
:10304000FFF7C2FA10BD00000018014008B50121C9
:103050002020FDF70DFD4FF40070ADF800001020AA
:103060008DF8030003208DF8020069463748FDF70C
:1030700043FA4FF48070ADF8000004208DF803008F
:1030800003208DF8020069463048FDF735FA4FF409
:103090008060ADF8000010208DF8030003208DF84B
:1030A000020069462948FDF727FA4FF40060ADF8A1
:1030B000000010208DF8030003208DF802006946FF
:1030C0002248FDF719FA08BD2DE9F04106460C46E5
:1030D00000254FF400601D49143108604010091F9D
:1030E00008604FF0000827E000271DE06806050E85
:1030F00016480830006800F48070B0F5807F01D178
:10310000681CC5B24FF400701049103108600A20E5
:10311000FFF75AFA4FF400700C49143108600A2086
:10312000FFF752FA781CC7B2082FDFDB2570641C4A
:1031300008F1010000F0FF08B045D5DB4FF48060D6
:10314000024914310860BDE8F0810000001401401C
:1031500000B591B001210846FDF77DFC01214FF437
:103160000670FDF785FC0320ADF8400000208DF8C7
:10317000430010A9FE48FDF7BFF93F20ADF840001D
:1031800000208DF8430010A9FA48FDF7B5F9FA4878
:10319000FEF760F9F9480590F9480690002007907D
:1031A0004FF4C87008900020099080200A904000D9
:1031B0000B9080000C9020200D9000020E900020BB
:1031C0000F9005A9EC48FEF7E7F90121EA48FEF760
:1031D0000EFA0020009001208DF804008DF8050003
:1031E0004FF4602002900020039008208DF810001A
:1031F0006946E2484C38FDF7CAFE4FF44040FDF7FF
:103200009BFB072301220821DC484C38FDF757FFC0
:10321000072302220921D9484C38FDF750FF072324
:1032200003220A21D5484C38FDF749FF0723042221
:103230000B21D2484C38FDF742FF072305220C2111
:10324000CE484C38FDF73BFF072306220D21CB4823
:103250004C38FDF734FF07231A460E21C7484C3877
:10326000FDF72DFF072308220F21C4484C38FDF736
:1032700026FF0121C1484C38FDF7C0FE0121BF489F
:103280004C38FDF7B0FEBD484C38FDF7CEFE00BF10
:10329000BA484C38FDF7CEFE0028F9D1B7484C3873
:1032A000FDF7D2FE00BFB5484C38FDF7D2FE00282E
:1032B000F9D10121B1484C38FDF7D5FE11B000BD60
:1032C0002DE9FF5F00250026002404E0AC4830F81B
:1032D000140005440834B4F5C87FF7D33220B5FB99
:1032E000F0F63146A7A01AF097F8304619F045FBE2
:1032F0004FF08B41029019F071F9039019F0D1FB56
:1033000007464FF06632A24B19F04DFA824619F08B
:103310000BFC81464FF08041484619F02DF9019091
:1033200019F0BFFB00229B4BCDE9020119F035FAE1
:103330000746994A994B19F0A8FA824652460B461D
:1033400097A01AF069F80025012404E08C4830F8B1
:10335000140005440834B4F5C87FF7D33220B5FB18
:10336000F0F6314694A01AF057F8304619F005FBF4
:1033700083464FF08B4119F031F9824619F091FBE9
:103380004FF06632824BCDE9020119F00CFA074684
:1033900019F0CAFB8146484619F083FB07463A46B6
:1033A0000B467FA01AF038F80025022404E0744888
:1033B00030F8140005440834B4F5C87FF7D3322040
:1033C000B5FBF0F631467FA01AF026F8304619F02A
:1033D000D4FA4FF08B41029019F000F9039019F0E4
:1033E00060FB82464FF06632694B19F0DCF9074604
:1033F00019F09AFB8146484619F053FB07463A46B6
:103400000B4667A01AF008F80025032404E05C4886
:1034100030F8140005440834B4F5C87FF7D33220DF
:10342000B5FBF0F631466AA019F0F6FF304619F008
:10343000A4FA83464FF08B4119F0D0F8824619F078
:1034400030FB07464FF06632514B19F0ACF9CDE92D
:10345000020119F069FB8146484619F022FB074634
:103460003A460B464EA019F0D7FF0025042404E08D
:10347000434830F8140005440834B4F5C87FF7D346
:103480003220B5FBF0F6314654A019F0C5FF3046A6
:1034900019F073FA83464FF08B4119F09FF882467A
:1034A00019F0FFFA4FF06632394BCDE9020119F0FD
:1034B0007AF9074619F038FB8146484619F0F1FAC7
:1034C00007463A460B4636A019F0A6FF002505240C
:1034D00004E02B4830F8140005440834B4F5C87FE4
:1034E000F7D33220B5FBF0F631463FA019F094FF38
:1034F000304619F042FA4FF08B41029019F06EF805
:10350000039019F0CEFA07464FF06632204B19F0BF
:103510004AF9824619F008FB8146484619F0C1FA7B
:1035200007463A460B461EA019F076FF00250624F2
:1035300004E0134830F8140005440834B4F5C87F9B
:10354000F7D33220B5FBF0F631462AA019F064FF1C
:10355000304619F012FA4FF08B41029019F03EF804
:10356000039019F09EFA82464FF06632084B47E00E
:10357000000C014000100140080002404C240140B2
:10358000740000200D0A41444330203D2025640092
:1035900066660A4000000440B81E85EB51B8CE3F75
:1035A0002CCAB5BCCAB5E7D1B9B5E7D1B9203D2021
:1035B000256620760D0A00000D0A41444331203D66
:1035C000202564000D0A41444332203D202564003B
:1035D0000D0A41444333203D202564000D0A414437
:1035E0004334203D202564000D0A41444335203DED
:1035F000202564000D0A41444336203D2025640007
:1036000019F0D1F8074619F08FFA8146484619F0AB
:1036100048FA07463A460B46AFF27C0019F0FCFE2A
:103620000025072404E0594830F814000544083404
:10363000B4F5C87FF7D33220B5FBF0F6314654A07D
:1036400019F0EAFE304619F098F94FF08B410290DC
:1036500018F0C4FF039019F024FA07464FF06632C1
:103660004E4B19F0A0F8824619F05EFA81464846A2
:1036700019F017FA07463A460B46AFF2DC0019F08C
:10368000CBFEB0B204B0BDE8F09F2DE9FF4F89B08A
:10369000064689464FF0000A00249DF82C000128B8
:1036A00062D100BF4D4604E0384830F8150082442E
:1036B0000835B5F5C87FF7D33220BAFBF0F42046C1
:1036C00019F05BF94FF08B41029018F087FF0390DF
:1036D00019F0E7F94FF06632304BCDE9040119F0EB
:1036E00062F8074619F020FA8346A0B2ADF81A0036
:1036F0002246B1212AA019F08FFE4FF08041584692
:1037000018F03AFF019019F0CCF907460022324B2D
:1037100019F043F8314A324BCDE9020119F0B5F8FE
:1037200002460B46CDE90401B2212E4819F074FE81
:10373000BDF82E00002813DDBDF82E00A04203D2F4
:1037400001208DF81C0015E0BDF83000A04203D325
:1037500000208DF81C000DE002208DF81C0009E00F
:10376000FF208DF81C0005E00020ADF81A00FF20B6
:103770008DF81C009DF82C008DF81800069830601C
:10378000BDF81C00B0800DB0BDE8F08F74000020C3
:103790000D0A41444337203D2025640066660A40F7
:1037A0000A46494C453A202E2E5C48415244574126
:1037B00052455C4144435C6273705F6164632E6395
:1037C0002C204C494E453A2025643A204144432060
:1037D0003D2025640A00000000000440B81E85EB6F
:1037E00051B8CE3FBC1B020830B589B005460C4627
:1037F00001210820FDF749F901210520FDF738F9DD
:103800000120ADF8200018208DF8230003208DF84A
:10381000220008A9FA48FCF76FFEADF81850ADF881
:1038200014400020ADF81A00ADF8160005A9F548BF
:10383000FEF774F87020ADF804000120ADF8060022
:103840000020ADF80A00ADF80C0001A9ED48FEF724
:10385000A2F80821EB48FEF7EDFC0121E948FEF74C
:10386000B9FC0121E748FEF7B5FB09B030BD7FB5D3
:1038700005460C4601210420FDF707F901A8FEF7D3
:1038800079FBADF80850ADF804400020ADF80A000F
:10389000ADF8060001A9DC48FEF740F801224121FD
:1038A000D948FEF7B2FB1E208DF8000000208DF8ED
:1038B000010003208DF8020001208DF80300684606
:1038C000FCF751FD0121D048FEF784FB7FBD10B508
:1038D0000121CD48FEF747FE012871D10121CA48D8
:1038E000FEF752FE0020C9490880BDE0C848C7491C
:1038F000098800EB01108088002873D0C448C349B0
:10390000098800EB01104088C149C04A128801EBC8
:1039100002110988884272D0BD49BC4A128801EB65
:103920000211488819F029F80446B948B74A1288A4
:1039300000EB02108168204619F012F931D8B34823
:10394000008808282BD2DFE800F004080C11161BB1
:1039500020250120AF49086022E00220AD4908601F
:103960001EE04FF40050AC49086019E04FF480406D
:10397000A949086014E04FF40040A64908600FE030
:103980004FF40060A34908600AE04FF40050A149D9
:10399000086005E04FF480409E49086000E000BFE9
:1039A00050E09A480088082836D2DFE800F0040A80
:1039B0000F151C22292F01209649091F08602CE0B1
:1039C00057E002209349091F086026E04FF4005099
:1039D0009149091F086020E04FF480408E49091F7B
:1039E00008601AE03BE04FF400408A49091F086074
:1039F00013E04FF400608749091F08600DE00DE0F7
:103A00004FF400508349091F086006E04FF48040DE
:103A10008049091F086000E000BF13E000207C49D6
:103A20007A4A128801EB021148807948774909885F
:103A300000EB01108088401E7549744A128801EB22
:103A40000211888072487149098800EB0110408892
:103A5000401C6F496D4A128801EB021148806B4887
:103A60000088401C69490880684800880828FFF6DB
:103A70003DAF10BD0FB438B50446099DEDB1BDF89A
:103A80001800634901EB04118988884215D0002091
:103A90005F4901EB04114880BDF814005C4901EB5B
:103AA000041108805A4901EB041107988860BDF899
:103AB0001800574901EB04118880554800EB0410A9
:103AC0008088ADF80000524800EB0410808810B9DF
:103AD00000208DF80200009838BC5DF814FB10B58A
:103AE00087B00020ADF80C00059001208DF818007B
:103AF0000020ADF8100000240BE001200190069892
:103B00000090204603A90EC9FFF7B4FF0290601C85
:103B1000C4B2082CF1DB0A20ADF80C003F48059038
:103B200001208DF81800ADF8100001900698009063
:103B3000002003A90EC9FFF79DFF029007B010BD3A
:103B400070B588B004460E461546012142F60300C2
:103B5000FCF78EFF01211420FCF78AFF4FF48170DF
:103B6000ADF81C0028208DF81F0007A92448FCF799
:103B7000C3FC4FF481712248FCF76DFDC020ADF805
:103B80001C0028208DF81F0007A92548FCF7B4FC6D
:103B9000C0212348FCF75FFDADF81460ADF810506C
:103BA0000020ADF81600ADF8120004A92046FDF77C
:103BB000B5FE0020ADF80400ADF806000120ADF818
:103BC00008000020ADF80A00ADF80C0001A920465D
:103BD000FEF737F91348844203D11B208DF800000B
:103BE0002AE0B4F1804F03D11C208DF8000023E0BF
:103BF0000D4884421AD11D208DF800001CE0000001
:103C000000080140000C0040000800405200002065
:103C1000B003002014180140141401400000A0401B
:103C200000100140002C014000040040FE48844286
:103C300002D12E208DF8000000208DF801008DF8B3
:103C4000020001208DF803006846FCF78CFB01227E
:103C500003212046FEF7D9F901212046FEF7BAF9E3
:103C600008B070BD10B5F148007800285FD101217F
:103C7000EF48FEF778FC60B3EE48007800F04000B3
:103C8000402813D1EB48007800F03F003F2807D1CF
:103C90000120E64908704FF6FF70E74908801EE0F2
:103CA000E4480078401CE349087018E0E1480078D7
:103CB00000F08000802812D1DE48007800F03F003C
:103CC0003F2807D10120D94908704FF6FF70DB4922
:103CD000088004E0D7480078401CD64908700221CB
:103CE000D348FEF740FC002850D0D248007800F0BE
:103CF000400040281CD1CE48FEF716FCCE49088073
:103D0000CC480078098801EB0040CB4908800020AE
:103D1000C84908700846007840F08000087000210B
:103D2000C348FEF7EBFB0021C148FEF705FB2DE081
:103D3000C048007800F08000802812D1BC48FEF70F
:103D4000F3FBBE490880BB480078098801EB0040BE
:103D5000BA4908800020B74908700120B3490870AB
:103D600014E00020B3490870B3490880B3490880C3
:103D70000021AF48FEF7C2FBAE48007840F040009B
:103D8000AC4908700221AA48FEF7D6FA0321A848D8
:103D9000FEF7FAFB10BD10B5A9480078002860D1E5
:103DA00001218807FEF7DFFB60B3A648007800F02A
:103DB0004000402813D1A348007800F03F003F287E
:103DC00007D101209E4908704FF6FF709E49088078
:103DD0001EE09C480078401C9A49087018E09948F9
:103DE000007800F08000802812D19648007800F01A
:103DF0003F003F2807D10120914908704FF6FF701E
:103E00009249088004E08B480078401C894908707A
:103E100002218748FEF7A7FB002852D08948007886
:103E200000F0400040281DD10006FEF77DFB8649CA
:103E3000088084480078098801EB004082490880A6
:103E40000020804908700846007840F08000087023
:103E500000217748FEF752FB00214FF08040FEF72B
:103E60006BFA2EE07748007800F08000802812D1AD
:103E70006F48FEF759FB7549088072480078098839
:103E800001EB00407149088000206E490870012054
:103E90006B49087015E000206A4908706A4908807B
:103EA0006A49088000214FF08040FEF727FB6548F3
:103EB000007840F040006349087002214807FEF78F
:103EC0003BFA03214FF08040FEF75EFB10BD10B5BA
:103ED0005F48007800285FD101215E48FEF743FB70
:103EE00060B35D48007800F04000402813D15A4884
:103EF000007800F03F003F2807D1012054490870A6
:103F00004FF6FF70554908801EE053480078401C6A
:103F10005149087018E05048007800F0800080286F
:103F200012D14D48007800F03F003F2807D1012012
:103F3000474908704FF6FF704949088004E0464839
:103F40000078401C4449087002214248FEF70BFBF0
:103F5000002850D04048007800F0400040281CD194
:103F60003C48FEF7E1FA3D4908803B480078098863
:103F700001EB0040394908800020374908700846A5
:103F8000007840F08000087000213248FEF7B6FA51
:103F900000213048FEF7D0F92DE02F48007800F0DE
:103FA0008000802812D12B48FEF7BEFA2C490880E9
:103FB00029480078098801EB004029490880002041
:103FC0002549087001201949087014E00020224991
:103FD0000870224908802249088000211D48FEF708
:103FE0008DFA1D48007840F040001B4908700221FE
:103FF0001848FEF7A1F903211648FEF7C5FA10BDCF
:1040000010B51848007800287ED101210648FEF737
:10401000AAFA40B11448007800F04000402837D197
:104020001148007822E046E0003401403E000020C4
:10403000002C0140380000203A0000203C00002005
:10404000440000203F0000204000002042000020EB
:104050004A000020000400404500002046000020E7
:1040600048000020500000204B00002000F03F00DE
:104070003F2807D10120FE4908704FF6FF70FD4927
:1040800008801EE0FC480078401CFB49087018E0DE
:10409000F948007800F08000802812D1F6480078B6
:1040A00000F03F003F2807D10120F14908704FF68A
:1040B000FF70F249088004E0EF480078401CEE49A8
:1040C00008700221EE48FEF74EFA002852D0EA4866
:1040D000007800F0400040281ED1E948FEF724FA9D
:1040E000E4490880E4480078098801EB0040E14990
:1040F00008800020E04908700846007840F0800001
:1041000008700021DE4800E034E0FEF7F7F90021F6
:10411000DB48FEF711F92DE0D748007800F0800069
:10412000802812D1D648FEF7FFF9D4490880D2483A
:104130000078098801EB0040D04908800020CE4972
:1041400008700120CA49087014E00020CA490870AC
:10415000C8490880C94908800021C948FEF7CEF93E
:10416000C548007840F04000C34908700221C448A7
:10417000FEF7E2F80321C248FEF706FA10BD2DE96A
:10418000F74F86B0044689469DF8200001286FD17C
:10419000B9F1000F09D0B9F1010F6CD0B9F1020FDC
:1041A00068D0B9F1030F7DD1F4E0B648007800285B
:1041B0005DD0B5490988B54A1288881818F0D4FB33
:1041C0000646B148008818F0D8FB0746314618F07B
:1041D00005FA0546AE4918F0CFF904900022AD4B20
:1041E0001046AD491BF0BCFC82468B46A6490988A7
:1041F000A64A1288881818F0B7FB014600904FF0C5
:104200007E5018F0EBF9019018F04BFC074652462F
:104210005B4618F0C8FA054618F086FC03909A48E9
:1042200000889A4A128881189CA019F0F5F89649DE
:104230000988964A1288881818F096FB8246924898
:10424000008818F09AFB8346514618F0C7F980465B
:104250008F4918F091F9054618F023FC06463246BE
:104260000B4690A019F0D8F8002086490870D8E0D5
:10427000D8E000E047E08F480078002842D08E491F
:1042800009888E4A1288881818F06EFB06468A48FC
:10429000008818F072FB0746314618F09FF9054672
:1042A0007B4900E0BCE018F067F904900022794BEC
:1042B000104679491BF054FC074688467249098824
:1042C000724A1288881818F04FFB014600904FF090
:1042D0007E5018F083F9019018F0E3FB82463A46CD
:1042E000434618F060FA054618F01EFC0390724829
:1042F0000088724A1288811868A019F08DF8002091
:104300006C4908708DE06E480078002841D06D49F6
:1043100009886D4A1288881818F026FB06466948F5
:10432000008818F02AFB0746314618F057F9054671
:10433000574918F021F904900022564B104656496F
:104340001BF00EFC074688465E4909885E4A1288C3
:10435000881818F009FB834659464FF07E5018F034
:104360003DF9824618F09DFB3A464346CDE90001EF
:1043700018F019FA054618F0D7FB03905148008849
:10438000514A1288811845A019F046F800204C497E
:10439000087046E036480078002840D03549098842
:1043A000364A1288881818F0DFFA06463148008825
:1043B00018F0E3FA0746314618F010F9054634497B
:1043C00018F0DAF804900022324B104632491BF004
:1043D000C7FB0746884627490988284A1288881853
:1043E00018F0C2FA014600904FF07E5018F0F6F82F
:1043F000019018F056FB82463A46434618F0D3F92E
:10440000054618F091FB03901A4800881B4A128851
:10441000811822A019F000F800201549087000E06A
:1044200000BF00BF9DF820008DF8080002A807C853
:1044300084E8070009B0BDE8F08F7FB505460C465B
:1044400001211020FCF721FB01A8FDF793FDADF839
:104450000850ADF804400020ADF80A00ADF80600A1
:1044600001A91A48FDF75AFA0122412117482FE005
:10447000500000204C0000204B0000204E00002087
:10448000003401403E0000203A0000203C000020A3
:104490000000C842000018400000244054203A2583
:1044A000640A000050574D203A25302E32662525EB
:1044B0000D0A0000440000204000002042000020BF
:1044C0004A00002046000020480000200010004064
:1044D000FDF79BFD36208DF8000003208DF80100CC
:1044E00001208DF802008DF803006846FBF73BFFC2
:1044F00001219048FDF76EFD7FBD10B5002201211E
:104500008C48FDF782FD00218A48FDF763FD10BD50
:1045100010B5002401218748FEF725F8012810D1A5
:1045200001218448FEF730F800BF08E0824850F8C7
:104530002400401C804941F82400601C84B2072CF0
:10454000F4DB10BD08283DD2DFE800F0040B12199F
:1045500020272E357949096881F00101774A1160D9
:1045600031E07649096881F00201744A11602AE05D
:104570007349096881F40051714A116023E0704960
:10458000096881F480416E4A11601CE06C49096839
:1045900081F400416A4A116015E06849096881F4B4
:1045A0000061664A11600EE06449096881F40051B7
:1045B000624A116007E06149096881F480415F4AFD
:1045C000116000E000BF00BF7047002012E0002132
:1045D00000EB80025B4B03EB8202117400EB800264
:1045E00003EB8202916000EB800203EB8202D16058
:1045F000411CC8B20828EADB704770B50546049C28
:104600000CB9002070BD03EB83004E4E06EB80001A
:10461000816003EB830006EB8000C46003EB830042
:1046200006EB8000037403EB830006EB8000E9E7F0
:10463000F0B50646DDE905450DB90020F0BD04EBF7
:104640008400404F07EB8000416004EB840007EBDF
:104650008000826004EB840007EB8000C56004EBFF
:10466000840007EB8000047404EB840007EB8000F7
:10467000E4E701460A460AB9012070470020D060ED
:1046800000BFFAE710B5002420E02B4850F82400C2
:1046900004EB84012B4A02EB81018968884205D32F
:1046A0000020254941F82400012000E0002058B1F5
:1046B00004EB8402234B03EB8202107C04EB8402A4
:1046C00003EB8202D1688847601CC4B2022CDCDB99
:1046D00010BD08B501216020FCF7CAF94FF4D040A5
:1046E000ADF8000010208DF8030003208DF80200C3
:1046F000694612480C38FBF7FFFE4FF4D0410F48D3
:104700000C38FBF7A8FF4FF46040ADF80000102014
:104710008DF8030003208DF80200694608480C3824
:10472000FBF7EAFE4FF4604105480C38FBF793FFB6
:1047300008BD000000100040940300200C18014048
:104740000C1401403004002030B5024653690029A2
:1047500009DD186800EB0114D068A04201D8FE48BA
:1047600030BD2046FCE7FD48814203DDD06800EB08
:104770000110F5E7F948814202D110692830EFE7CE
:10478000F648411A18688068162801D1F248E7E710
:1047900018680468A079884205DB481E04F11005FA
:1047A00005EB0010DCE7EC48DAE770B505460C468F
:1047B00026683146284606F016FC70BD2DE9F34107
:1047C00004466669E168E069401A0199B1EB201F6F
:1047D00001DA012517E0216AE068401A052101EBA2
:1047E0002017DF490198081AB84201DA002509E0CC
:1047F00001AADC49204606F07AFB08B9012000E056
:104800000020054600BF5DB1E068019900EB011092
:104810007168884204D9E068019900EB011070606A
:104820002846BDE8FC81F0B51346884200D1F0BDB2
:10483000C468A4EB0314C46000220BE0CC68C56814
:1048400005EB021C9CE8E01084E8E010CC68103412
:10485000CC60521C9A42F1DB00BFE8E702461369C4
:10486000986F136999677047014609B9BE48704748
:104870000869D0F88000FAE70246002902DCB74850
:10488000814201DC084670475369D0681B68C01A32
:1048900001EB2010F7E70146CA684869006810304C
:1048A000101A0011704730B543691A68002913DBEC
:1048B00005E00024C56805F11003C360AC6002F197
:1048C000100303EB0113C4689C42F2D302F11003FE
:1048D00003EB0113C36004E04B1CC46804EB031337
:1048E000C36030BD2DE9FF41034610E0684691E802
:1048F000F00080E8F000084692E8F00080E8F00060
:1049000010469DE8F00080E8F0001031103A914226
:10491000ECD3BDE8FF812DE9F047054689461446F2
:10492000E868A0F1100749462846FFF70DFF064644
:10493000002C02DBA7EB041002E0A6EB04101038F9
:104940008046424631462846FFF7CCFF3A4608F1FA
:1049500010012846FFF7C6FF3A4631462846FFF7C2
:10496000C1FFBDE8F0872DE9F041054688461646AF
:1049700041462846FFF7E8FE044631462846FFF741
:10498000E3FE0746384694E80E1080E80E107348A0
:10499000864218DA207A00F0400098B16869006811
:1049A0000068407900F0040060B12068407900F0B0
:1049B000030038B12268686900680168284607F07A
:1049C000AEFC00E000BFBDE8F08170B504460D46C6
:1049D000E66829462046FFF7B7FE90E80E00C0685B
:1049E00086E80E00F060E0681030E06070BD70B5E1
:1049F00005460E4631462846FFF7A6FE04465648B1
:104A0000844203D0207A00F00F0070BD4FF0FF30D9
:104A1000FBE70246554B481C53F82000704770B521
:104A200005460E4631462846FFF78EFE0446A0682E
:104A3000162802D0A068662801D1012070BD002090
:104A4000FCE770B504460D4629462046FFF77CFE7C
:104A50000646B068132801D1012070BD0020FCE794
:104A60007CB505460E4631462846FFF76DFE0446E6
:104A7000A068032805D1D4E90001CDE90001012097
:104A80007CBD6946204614F0FBF9F9E770B5054690
:104A90000E4631462846FFF757FE0446207A00F0BE
:104AA0000F00042804D0207A00F00F00032801D161
:104AB000012070BD0020FCE770B505460E4631466A
:104AC0002846FFF741FE0446A068472802D0A068A8
:104AD000022801D1012070BD0020FCE72DE9F04142
:104AE00007468846144641463846FFF72DFE0546E0
:104AF00021463846FFF728FE06461748854208D06B
:104B0000864206D032462946002014F0B4FDBDE8A6
:104B1000F0810020FBE7F8B504460D460C2D02D0CD
:104B20000D2D00D00DE0E068E16851F8102DD1E9BD
:104B30000136C96880E84C00C160E0681030E06070
:104B400000BFE06820380090E068A0F11003A0F1F9
:104B50002002294620460BE0E0110208D8B9F0FFF8
:104B600040420F00AB470008B00B0208A415020832
:104B70000BF01EFFE0681038E060F8BD2DE9F0474B
:104B80008046894614461D464FF0000A4946404675
:104B9000FFF7DAFD064621464046FFF7D5FD0746FA
:104BA000FB4886421ED087421CD025B1012D09D07A
:104BB000022D15D10DE03A463146404614F05BFD1A
:104BC00082460EE03A463146404614F0CEFC82461C
:104BD00007E03A463146404614F0FBFC824600E0CE
:104BE00000BF00BF5046BDE8F08770B504460D46D3
:104BF0002846E1680CF0E2F806461EB1E068103085
:104C0000E06000BF304670BD2DE9FC410746884694
:104C1000144641463846FFF797FD0546A868032825
:104C200005D1D5E90001CDE90001012003E0694685
:104C3000284614F025F9064616B900200090019088
:104C400004B12660DDE90001BDE8FC812DE9FC41ED
:104C500007468846144641463846FFF775FD054627
:104C6000A868132805D1D5E90001CDE9000101208C
:104C700004E000226946284614F03BF9064616B9BE
:104C800000200090019004B12660DDE90001BDE83C
:104C9000FC8170B505460E4631462846FFF754FDA7
:104CA0000446A06830B1A068012801D1206808B18D
:104CB000012070BD0020FCE72DE9F04106460F46BB
:104CC000154639463046FFF73FFD0446207A00F08E
:104CD0000F0004281CD0207A00F00F00032805D014
:104CE0000DB1002028600020BDE8F081214630464B
:104CF0000CF0A8F83069C068002803DD304608F0E1
:104D000012FB00BF39463046FFF71EFD044600BFC8
:104D10004DB120680079042802D12068C07901E0F3
:104D20002068C068286020681030DDE770B505464F
:104D30000E4631462846FFF707FD0446207A00F06C
:104D40003F00042806D005280DD0072808D01428D5
:104D50000DD102E02068C07970BD2068C068FBE713
:104D60002068C068F8E7206812F02EFBF4E7002006
:104D7000F2E770B505460E4631462846FFF7E4FCDB
:104D80000446A068162801D1206870BDA068662876
:104D900002D12068C068F8E70020F6E770B5054644
:104DA0000E4631462846FFF7CFFC0446207A00F035
:104DB0000F00022804D0072804D12068183070BDE5
:104DC0002068FCE70020FAE770B505460E4631463C
:104DD0002846FFF7B9FC0446A068482801D0002007
:104DE00070BD2068FCE770B505460E463146284682
:104DF000FFF7AAFC0446207A00F03F00072818D0ED
:104E000006DC022818D0052809D0062816D108E0AB
:104E100008280CD0162808D026280FD103E02068D7
:104E200070BD2068FCE72068FAE72068F8E7206892
:104E3000F6E720681830F3E72068F1E70020EFE795
:104E40000021C2689160C1681031C160704710B51F
:104E5000C168C1E9002303248C60C1681031C160BE
:104E600010BD10B5C168C1E9002313248C60C1686E
:104E70001031C16010BD2DE9F04104460F461646C1
:104E800026B944A120460FF0F3F904E03246394632
:104E900020460FF089F90546E068294601600A7945
:104EA00042F040028260E0681030E0602069C06833
:104EB000002803DD204608F036FA00BF05F1100097
:104EC000BDE8F08170B504460E461EB90020E168C9
:104ED00088600EE0314620460FF0CAF90546E068CA
:104EE000294601600A7942F04002826005F110060D
:104EF00000BFE0681030E0602069C068002803DD72
:104F0000204608F010FA00BF304670BDF7B50446E1
:104F10000D4629462046029A0BF0FAFF0646206904
:104F2000C068002803DD204608F0FDF900BF3046C8
:104F3000FEBD0FB438B5044606A800902046009A7E
:104F400005990BF0E5FF0546002000902069C06838
:104F5000002803DD204608F0E6F900BF284638BCEB
:104F60005DF814FB2DE9F04104460F46154625B9BE
:104F7000E06807601621816024E02946204607F09A
:104F80000DF80646F760E068A0EB0510E0600FE062
:104F9000E01102080000000006F1100101EB05100D
:104FA000E16801EB051C9CE80E1080E80E1000BFC4
:104FB0002800A5F10105EFD1E068314601606622C5
:104FC000826000BFE0681030E0602069C06800289F
:104FD00003DD204608F0A7F900BFBDE8F081C268F4
:104FE00009B1012300E00023136001239360C2682C
:104FF0001032C2607047C268116002239360C268B9
:105000001032C26070470146C8680A4602604823F1
:105010008360C8681030C8600869C06F884201D1D9
:10502000012070470020FCE72DE9F84304460F46B5
:105030009046414620460FF01BF90646B8684528C1
:1050400002D00025002009E03146386812F071F9DD
:105050000546A86808B1012000E0002040B1E068E2
:1050600095E80E1080E80E10E0681030E06012E065
:10507000E068314601600A7942F040028260E068EF
:105080001030E0600095E068A0F110031A46394640
:10509000204613F0E7FFE06810F8080C00F00F005E
:1050A000BDE8F8832DE9F04104460D462069866A83
:1050B00002220023304611F0B3FF07462A46394644
:1050C0002046FFF7B1FFBDE8F081F8B504460F4672
:1050D00039462046FFF738FB0646B068452802D01F
:1050E000002500200BE0E268A2F11001306811F009
:1050F000E2FF0546A86808B1012000E0002038B1B1
:10510000E168A1F1100095E80E1080E80E1008E0AB
:105110000095E068A0F110031A463146204613F0CE
:10512000A1FFE06810F8080C00F00F00F8BD2DE9B1
:10513000F04104460D46164629462046FFF704FB7B
:105140000746324639462046FFF76EFFBDE8F0813C
:105150002DE9F8430446894616461F46494620462F
:10516000FFF7F2FA8046D8F80800452802D000255B
:1051700000200BE032463B46D8F8000011F050FF0B
:105180000546A86808B1012000E0002040B1E068B1
:1051900095E80E1080E80E10E0681030E06010E036
:1051A000E068C0E9006713218160E0681030E060CA
:1051B0000095E068A0F110031A464146204613F01E
:1051C00051FFE06810F8080C00F00F00BDE8F8830C
:1051D0002DE9F04104460D4629462046FFF7B4FA72
:1051E0000646E068A0F11007E268A2F110013068FD
:1051F00011F061FF90E80E00C06887E80E00F860CB
:10520000E06810F8080C00F00F00BDE8F0812DE90F
:10521000F04704460F4615461E4639462046FFF71E
:1052200093FA8046D4F80C902A463346D8F800000A
:1052300011F0F6FE90E80E00C06889E80E00C9F88B
:105240000C00E0681030E060E06810F8080C00F036
:105250000F00BDE8F0872DE9FF4104460E461546D4
:1052600031462046FFF770FA07466846056002217E
:105270008160D4F80C806946386811F01CFF90E812
:105280000E00C06888E80E00C8F80C00E068103016
:10529000E060E06810F8080C00F00F0004B0BDE812
:1052A000F0812DE9F04104460D461646204612F0E5
:1052B0000DF80746E0683946016045228260E068E3
:1052C0001030E060002D01DC002E05DD33462A465B
:1052D0003946204611F05AFF2069C068002803DDD6
:1052E000204608F020F800BFBDE8F0812DE9F0412C
:1052F00005460F464FF0000839462846FFF724FAC6
:105300000646307A00F00F00052802D0072806D1A3
:1053100002E0306884690AE03068846807E0286940
:10532000E830317A01F00F0150F8214000BF00BF92
:105330004CB1E8682146016045228260E86810307F
:10534000E8604FF001084046BDE8F08170B50446C2
:105350000D4629462046FFF7F7F90646E068316812
:10536000D1E90423C0E900238A798260E068103023
:10537000E060E06810F8080C00F00F0070BD2DE947
:10538000F84304460E469046414620460EF070FF14
:105390000746B068452802D0002500202AE039469B
:1053A000306811F0C6FF0546A86808B9002021E062
:1053B000E06810F8080C00F0400080B130684079D7
:1053C00000F0040058B1E06850F8100C407900F08B
:1053D000030020B12046316806F0BBFF00E000BFAB
:1053E000E06850F8101DD0E90123C06885E80E0080
:1053F000E860012018B1E0681038E06016E0E0686D
:10540000394601600A7942F040028260E06810305B
:10541000E0600095E068A0F12003A0F110023146A1
:10542000204613F08BFEE0682038E060BDE8F8838A
:105430002DE9F04104460D462069866A02220023C8
:10544000304611F0EDFD07462A4639462046FFF763
:1054500096FFBDE8F081F8B504460F463946204670
:10546000FFF772F90646B068452802D000250020F3
:105470002CE0E268A2F12001306811F01CFE054624
:10548000A86808B9002021E0E06810F8080C00F0D6
:10549000400080B13068407900F0040058B1E06805
:1054A00050F8100C407900F0030020B1204631681C
:1054B00006F04FFF00E000BFE06850F8101DD0E993
:1054C0000123C06885E80E00E860012048B9009516
:1054D000E068A0F11003A0F120023146204613F04D
:1054E0002DFEE0682038E060F8BD2DE9F04104466B
:1054F0000D46164629462046FFF726F9074632464E
:1055000039462046FFF73BFFBDE8F0812DE9F8431F
:10551000044689461746984649462046FFF714F93F
:105520000646B068452802D0002500202BE03A4608
:105530004346306811F074FD0546A86808B900209C
:1055400021E0E06810F8080C00F0400080B13068FD
:10555000407900F0040058B1E06850F8100C407930
:1055600000F0030020B12046316806F0F2FE00E0B2
:1055700000BFE06850F8101DD0E90123C06885E83D
:105580000E00E860012018B1E0681038E06014E017
:10559000E068C0E9007813218160E0681030E060C5
:1055A0000095E068A0F12003A0F1100231462046EA
:1055B00013F0C4FDE0682038E060BDE8F8832DE911
:1055C000F04104460E4631462046FFF7BDF8054639
:1055D000E068A0F120022046296811F09CFD0746F2
:1055E000E06850F8101DD0E90123C06887E80E007C
:1055F000F860002029688871E06810F8080C00F055
:10560000400080B12868407900F0040058B1E0689B
:1056100050F8100C407900F0030020B120462968B2
:1056200006F097FE00E000BFE0682038E060BDE8CB
:10563000F0812DE9F8430446884616461F46414648
:105640002046FFF781F80546E068103800903246A2
:105650003B462046296811F074FDE06810F8080CFC
:1056600000F0400080B12868407900F0040058B193
:10567000E06850F8100C407900F0030020B120469B
:10568000296806F066FE00E000BFE0681038E060C0
:10569000BDE8F8832DE9FF4104460F46164639461A
:1056A0002046FFF751F805466846066002218160F2
:1056B0006A462046296811F02EFD8046E06850F8C1
:1056C000101DD0E90123C06888E80E00C8F80C005E
:1056D000E06810F8080C00F0400080B128684079BC
:1056E00000F0040058B1E06850F8100C407900F068
:1056F000030020B12046296806F02BFE00E000BF21
:10570000E0681038E060BDE8FF812DE9F041064611
:105710000F4639463046FFF717F80446F06850F850
:10572000080C08B9002502E0F06850F8105C207AF7
:1057300000F00F00052802D0072832D118E02068B9
:105740008561A5B12068407900F0040048B168790E
:1057500000F0030028B12A463046216806F0DFFD3C
:1057600000E000BF2A463046216807F0F4FB20E045
:1057700020688560A5B12068407900F0040048B138
:10578000687900F0030028B12A463046216806F007
:10579000C6FD00E000BF2A463046216807F0DBFB6B
:1057A00007E03069E830217A01F00F0140F821501C
:1057B00000BF00BFF0681038F0600120BDE8F08144
:1057C00070B504460E4631462046FEF7BDFF05463D
:1057D000E268A2F110002968D0E90023C1E904239E
:1057E000027A8A71E06810F8080C00F0400098B165
:1057F0002868407900F0040070B1E06850F8100C9F
:10580000407900F0030038B1E06850F8102C2046D1
:10581000296806F084FD00E000BFE0681038E06011
:1058200070BD2DE9F04704460D4617461E46DDF8CB
:105830002080681CE168A1EB0019B8F1000F0DD0C1
:10584000B4F86C0050B96069C0F810806069866176
:105850003A464946204605F0B3FE04E03A4649463A
:10586000204605F0CBFE781C38B960694068E168D5
:10587000884202D26169E0684860BDE8F08770B58F
:1058800006460C4625463046D5E9001205F0B6FE20
:1058900070BD2DE9FE4F04468A4617469846DDF84E
:1058A00034B0B8F1000F01D1002607E04146204690
:1058B000FEF74AFF0546206A2E1A00BF0AF10100D2
:1058C000E168A1EB00100190BBF1000F03D0B4F828
:1058D0006C0000280BDD029700960198216A431A9C
:1058E00001AAFA49204606F02DF8814624E06569B0
:1058F000C5F810B00C98A8610198216A401AE861B7
:10590000E16D6961E665688C20F0010094F874101F
:1059100008436884688C40F0100068843A4620464A
:10592000019905F04DFE688C20F0100068846869CC
:10593000E0654FF0000900BF781C38B96069406825
:10594000E168884202D26169E06848604846BDE883
:10595000FE8F2DE9F04F85B00546884691461E46DC
:1059600006B9DBA64B4642466946284616F098FA29
:105970003246694628460E9B06F06BF807463FBB49
:10598000E86850F8104CA079012820DB2869D0F88D
:1059900028A002220023504611F042FB83462169D1
:1059A00008689BE80E1080E80E1020690068007AF5
:1059B00000F0400048B1206950F8081B814204D132
:1059C0002846216906F0CEFC00E000BF00BF00BF02
:1059D000384605B0BDE8F08F2DE9F84305460E4680
:1059E00017469846E868A0F11009D9F8080046283B
:1059F0000BD1CDF80080D9F800003B463246C16893
:105A0000284606F09DFA044600E001242046BDE841
:105A1000F8830146087A70472DE9F04706460F469D
:105A200015464FF0000934690A2F5DD2DFE807F010
:105A3000050911161C224E525C59002084F83F00C3
:105A400055E0002120460EF0E4F9012084F83F00E3
:105A50004DE00021304607F09BFC48E0D4E902010C
:105A600008444FEA902942E02089A1890844C0F304
:105A700009093CE04FF0010894F83FA0012084F8A8
:105A80003F003DB9934920460EF0C3F9304607F078
:105A90004AFC0FE0E06800EB8528414620460EF006
:105AA000B8F93069C068002803DD304607F03BFCD8
:105AB00000BF00BF84F83FA0B8F1000F05DD94F8E7
:105AC0003D00072801D14FF0010910E0D4F8709093
:105AD00025670CE0D4F87490282D00DA2825656736
