:020000040800F2
:10000000188D00209D01000891190008A314000814
:100010002719000861120008015A000800000000BA
:1000200000000000000000000000000095570008DC
:100030000913000800000000671000088558000838
:10004000C1010008C1010008C1010008C101000888
:10005000C1010008C1010008C10100080B1300081C
:10006000C1010008C1010008C1010008C101000868
:10007000C1010008C1010008C1010008C101000858
:10008000C1010008C1010008C1010008C101000848
:10009000C1010008C1010008C1010008C101000838
:1000A000C1010008C1010008C1010008C101000828
:1000B000C1010008C1010008F9580008C101000889
:1000C000C1010008C1010008C1010008C101000808
:1000D000C1010008C1010008C1010008C1010008F8
:1000E000C1010008C1010008C1010008C1010008E8
:1000F000C1010008C1010008C1010008C1010008D8
:10010000C1010008C1010008C1010008C1010008C7
:10011000C1010008C1010008C1010008C1010008B7
:10012000C1010008C1010008C1010008C1010008A7
:10013000C1010008C1010008C1010008C101000897
:10014000C1010008C1010008C1010008C101000887
:10015000C1010008C1010008C1010008C101000877
:10016000C1010008C1010008C1010008C101000867
:10017000C1010008C1010008C1010008C101000857
:10018000C1010008C1010008DFF80CD000F0D8FE62
:100190000048004741E40008188D00200948016824
:1001A00041F4700101600848804708480047FEE7B5
:1001B000FEE7FEE7FEE7FEE7FEE7FEE7FEE7FEE717
:1001C000FEE7000088ED00E09D5800088901000866
:1001D00072B6704762B67047EFF3108072B6704720
:1001E00080F31088704730BF704720BF7047B0FA67
:1001F00080F0704790FAA0F0B0FA80F0704790FA63
:10020000A0F070472DE9F05F0546002092469B461E
:1002100088460646814640241BE02846414647461C
:10022000224600F0C7FC53465A46C01A914110D3EB
:1002300011461846224600F0AEFC2D1A67EB010865
:100240004F4622460120002100F0A5FC17EB0009D3
:100250004E41201EA4F10104DFDC484631462A4607
:100260004346BDE8F09F0000004870471C14010899
:1002700010B50446FFF7F8FF0068005D00F00100CC
:1002800010BD0000004870472814010840EA01032F
:100290009B0703D009E008C9121F08C0042AFAD23C
:1002A00003E011F8013B00F8013B521EF9D2704700
:1002B000421E12F8013F002BFBD111F8013B02F85E
:1002C000013B002BF9D1704710B5044604E00B78D0
:1002D00000F8013B03B1491C521EF8D2204610BD64
:1002E000CAB2401E10F8011F8A4202D00029F9D17B
:1002F00000207047421C10F8011B0029FBD1801A16
:10030000704710B5002200E0521C835C8C5CA34255
:1003100001D1002BF8D1D8B2E1B2401A10BD30B5EE
:1003200004460020034600E05B1C934203D2E05CDD
:10033000CD5C401BF8D030BD10B5044600E0401C39
:100340000378002BFBD100E0401C521E04D311F8AF
:10035000013B0370002BF7D100210170204610BD36
:10036000FFF7CFBF034611F8012B00F8012B002A3D
:10037000F9D11846704730B50546002008E00A4616
:1003800002E0A34207D0521C1378002BF9D1401C85
:100390002C5C002CF3D130BD2DE9FF4F087881B0E3
:1003A0009946FF2805D0491C2D2804D0002400239D
:1003B00008E000230BE00124F9E703EB830300EBE3
:1003C0004303491C0878FF28F7D104B15B420020A1
:1003D0000090147801462D2C01D02B2C04D1521CF6
:1003E0002D2C12D00024009400251678FF2E0ED05C
:1003F0000A24A0FB04C801FB0481002700FB0711AD
:10040000521C16EB0C006941EFE70124EBE799441D
:1004100050EA01020ED00024AA4D2646DFF8A88239
:1004200000F04DFD82468B46B9F1000009DAC9F1B2
:1004300000071BE001980021C0E9001105B0BDE8EC
:10044000F08F074612E0F80707D022462B463046C9
:10045000414600F01DFA0646884622462B461046C5
:10046000194600F015FA04460D467F10002FEAD118
:10047000B9F1000F324643465046594602DA00F0C1
:1004800079FA01E000F004FA009A0AB181F0004123
:10049000019AC2E90001D1E72DE9FF4F1F468DB057
:1004A000D7E901464FF0FF382E2045464FF00009AE
:1004B0000B90B9696D1C0E988847396A8246884747
:1004C0000028F6D1BAF1FF3F0AD024F4D064002E00
:1004D00011DDBAF12B0F08D0BAF12D0F0BD102E0CC
:1004E000404611B0ABE744F48064B9696D1C0E98C6
:1004F00088478246761E6946600501D52D2000E0BA
:100500002B208DF8000001F1010B0DF1200809E00E
:10051000B9696D1C0E98884782460F9844F40074A0
:10052000761E0560002E02DDBAF1300FF0D00B9977
:100530008A453ED144F0800406E00F99681CA9F179
:10054000010944F400740860B9696D1C761E0E98A8
:10055000884782463028F0D02BE00B998A4505D198
:10056000200603D444F08004761E18E0504606F0BE
:1005700043FB08B30DF11301761E44F400748B4560
:1005800008D2AAF130000BF8010B200607D5A9F11B
:10059000010003E0200602D409F101008146A00514
:1005A00002D50F99681C0860B9696D1C0E988847C0
:1005B0008246002ED1DC53E0002E51DDBAF1650FEA
:1005C00002D0BAF1450F4BD1A00549D5B9696D1CD0
:1005D00024F44074761E0E9888478246002E0CDD67
:1005E0002B2804D0BAF12D0F07D144F48074B969D7
:1005F0006D1C0E9888478246761EE00501D52D2198
:1006000000E02B2108F8011BCDF82C8021E00DF132
:100610002901761E44F4007488450CD2AAF13000FA
:1006200010F0FF0088F8000002D10B99884509D925
:1006300008F1010806E0E00501D5244801E042F296
:100640000F708146B9696D1C0E98884782460F98D5
:100650000560002E04DD504606F0CEFA0028D6D103
:10066000F9690E988847FF208BF8000088F8000091
:100670000020069007904B466A4608A906A8FFF797
:100680008BFEA00502D46FF001002AE714F0240FBE
:100690000AD0E00714D1DDE906123868031D3B607B
:1006A0000068C0E900120BE0DDE9060100F02BFC58
:1006B0000146E00704D13868021D3A600068016015
:1006C00028460EE7000024400000F03FF1D8FFFF6D
:1006D0002DE9F05F93460F4680460446002605F05C
:1006E000DBF9D0F80090824614F8015B2DB1FFF7DA
:1006F000BBFD0068405DC007F6D12B2D02D02D2D2B
:100700001AD0641E0021CAF800105A463946204605
:1007100000F072FA014627B13868A04201D1C7F84B
:100720000080DAF80000022809D0CAF800907005AD
:1007300005D54842BDE8F09F46F48066E2E70846EA
:10074000F8E72DE9FE4F804681EA0300C00F0C4612
:10075000009021F0004123F00045B8EB0200A941D0
:1007600005D24046214690461C460B46024623F0E1
:100770000040104347D0270DC7F30A00C3F30A51C6
:100780000290401A019040286BDAC3F3130040F442
:10079000801B0098924620B10023D2EB030A63EB42
:1007A0000B0B01985946C0F14002504600F0F3F996
:1007B00006460D4650465946019A00F00BFA10EBDA
:1007C00008006141002487EA115284EAE7731A4362
:1007D00040D0009A62B3019A012A4FEA075215DC11
:1007E000001B61EB02014FF0004202EA0752CDE923
:1007F0000042001C41F5801132462B4600F0A9FA58
:1008000003B0BDE8F08F40462146F9E7001B61EBDD
:100810000201001C41F5801300185B412018A2F56D
:10082000001747EB030140EAD570B6196D4111E09E
:100830006D084FEA360645EAC0754FEA0752001BBD
:1008400061EB0201001C41F5801149084FEA3000BC
:100850000019514132462B4603B0BDE8F04F00F07D
:1008600069BA0098012240000023D0EB020263EB3A
:10087000E073009821464FEAE074B8EB000061EBAA
:100880000401E9E783F000435BE781F0004158E7AA
:100890002DE9FE4F81EA030404F0004421F00041F9
:1008A00000944FF0000B23F0004350EA01045ED0A7
:1008B00052EA03045BD0C3F30A54C1F30A552C4433
:1008C000A4F2F3340194A0FB0254C1F3130141F4E8
:1008D0008011C3F3130343F4801301FB024400FBB4
:1008E000034E840A970A44EA815447EA8357A4FBDB
:1008F000076802958D0A05FB07854FEA932C04FBD8
:100900000C542705029D4FEA065847EA1637B5EB07
:1009100008056EEB070C870E920E47EA811742EA34
:100920008312A7FB0201B6EB0B0164EB00042B0D55
:1009300043EA0C335E1844EB1C50DA465146E7FBA1
:100940000201C5F313044FEA0B3343EA14534FEA91
:100950000432019C43EA0603A4F10C040294009CB7
:10096000CDE900B400F0F5F903B0BDE8F08F002048
:100970000146F9E72DE9F04D81EA030404F0004B4C
:1009800021F0004514464FF0000A23F0004150EAE0
:10099000050220D054EA01021DD0C5F30A570246D1
:1009A000C5F31303C1F31300C1F30A5640F48015D5
:1009B00043F48013A7EB0608101BD64608F2FD3857
:1009C00073EB050002D308F1010801E092185B41C6
:1009D000B8F1000F03DA00200146BDE8F08D0020D9
:1009E0004FF48011064684460EE0171B73EB050793
:1009F00005D3121B63EB050306434CEA010C4908BF
:100A00004FEA300092185B4150EA0107EDD152EAFB
:100A1000030012D082EA040083EA0501084305D0EE
:100A2000101BAB4106D20122002306E000224FF04A
:100A3000004302E06FF0010253101AEB06004CEB8A
:100A4000085110EB0A0041EB0B01BDE8F04D00F03E
:100A500071B90EB5C10F80EAE0700844CA070021E1
:100A600040F233438DE80E000A460B4600F071F960
:100A700003B000BD0EB540F2334102910021CDE933
:100A800000110A460B4600F064F903B000BD70B5D2
:100A9000C1F30A5201F000450024C1F3130140F2F2
:100AA000FF3341F480119A4201DA002070BD40F218
:100AB00033439A42A2F2334203DC524200F07AF806
:100AC00000E090402C43F1D0404270BD30B5041E90
:100AD00071F1000404DB4FF00044404264EB01017B
:100AE000141E73F1000405DB1C464FF00043524214
:100AF00063EB04038B4208BF824230BD30B5041E55
:100B000071F1000404DB4FF00044404264EB01014A
:100B1000141E73F1000405DB1C464FF000435242E3
:100B200063EB0403994208BF904230BDA0E8004F38
:100B3000F0C040F804DB01B5AFF30080BDE802402F
:100B400001C10020704700F12C080C4658F8040D34
:100B5000AFF3008058F8040D8546200008BF01203F
:100B600038E9F00018E9004F704730B50B460146F0
:100B700000202022012409E021FA02F59D4205D33C
:100B800003FA02F5491B04FA02F52844151EA2F1E6
:100B90000102F1DC30BD202A04DB203A00FA02F128
:100BA000002070479140C2F1200320FA03F319435B
:100BB00090407047202A04DB203A21FA02F00021FD
:100BC000704721FA02F3D040C2F12002914008435D
:100BD00019467047202A06DBCB17203A41FA02F06B
:100BE00043EAE07306E041FA02F3D040C2F120028A
:100BF00091400843194670472DE9F05F824600781E
:100C0000002715468B460AF10104B946302801D069
:100C10009DB113E014F8010B0127782803D0582860
:100C200001D045B10AE00DB1102D07D100271025E4
:100C300014F8010B02E0082500E00A250026B04662
:100C40000EE005FB080005FB06F1012701EB10464D
:100C50001FFA80F8B6F5803F00D3B94614F8010BAF
:100C6000294600F07FF90028EBDABBF1000F05D030
:100C70000FB1641E00E05446CBF80040B9F1000FFC
:100C800006D004F009FF02210160C81EBDE8F09FF4
:100C900048EA0640FAE700000FB4002300B589B027
:100CA0000CA900910B996FF00042CB601E4B06938C
:100CB0001E4B07930423CDE901321D4A08920246D8
:100CC0006B460020FFF7E8FB09B05DF814FB70B538
:100CD00086B006464FF0FF300091CDE901010020BB
:100CE00015460C4604903246694604A8FFF7D4FF27
:100CF00003460498211825B108B10A4600E02246AF
:100D00002A6000280DD0002B02DD0098884208D010
:100D1000081B0094CDE901043246694604A8FFF798
:100D2000BBFF06B070BD0000810F00089F0F0008D8
:100D30007102000810B5141E73F1000408DA401C9B
:100D400041F1000192185B411A4301D120F00100EA
:100D500010BD2DE9F04D92469B4611B1B1FA81F2DA
:100D600002E0B0FA80F220329046FFF714FF04460A
:100D70000F4640EA0A0041EA0B0153465A4608432F
:100D800013D0114653EA010019D0C8F14002504671
:100D9000FFF710FF05460E46504659464246FFF7FC
:100DA000FAFE084305D0012004E020463946BDE89C
:100DB000F08D0020054346EAE0762C4337430A983D
:100DC0006305E40AA0EB08000022FD0A44EA475448
:100DD0000A3002D500200146E9E7010510196941F2
:100DE000DDE9084500196941BDE8F04DA2E770B59D
:100DF00021F0004303430CD0C1F30A550024D5EB86
:100E0000040564EB0403D617AD1AB34102DB0020DE
:100E1000014670BD201841EB025170BD2DE9F04D27
:100E200000231A461B1A8A4103DB00200146BDE855
:100E3000F08DC1F30A52C1F3130141F480154FF054
:100E4000000BD10702D100186D41521E0027044645
:100E500040F2FF11384601EB620A3E4680460246E8
:100E600000204FF48011FFF7A5FEC2197141BB1895
:100E700046EB0100B4EB030C75EB000C04D3E41A51
:100E800065EB000517460E46241908F101006D4177
:100E900080463428E3DDF91946EB0600091BA8411A
:100EA00003D24FF0FF32134601E0002213461BEB42
:100EB000070046EB0A51BDE8F04DFFF73BBF0EB50A
:100EC00040F2334202920022CDE900221346FFF79E
:100ED00040FF03B000BDC1F30A52C1F3130140F259
:100EE000FF3341F480119A4202DA00200146704734
:100EF00040F233439A42A2F2334202DC5242FFF7FD
:100F000059BEFFF748BE01F0004330B421F0004164
:100F100050EA010206D00A0DA2F56072C1F3130176
:100F2000002A02DC30BC00207047440F44EAC104B0
:100F3000C100E01830BC00EBC25000F041B8000026
:100F4000064C074D06E0E06840F0010394E8070016
:100F500098471034AC42F6D3FFF71AF91C17010872
:100F60003C1701083A2800D2303820F02002412AEC
:100F700001D3A2F13700884201D34FF0FF30704710
:100F8000426842B1016811F8013B23B1521EC0E929
:100F90000012184670470121C160881E70474268E0
:100FA0005AB1C368016843B983688B4205D0491EB2
:100FB000521CC0E90012002070474FF0FF3070470C
:100FC0000029A8BF7047401C490008BF20F001005D
:100FD000704710B4B0FA80FC00FA0CF050EA01043B
:100FE00004BF10BC704749B1CCF1200421FA04F4CD
:100FF00011FA0CF118BF012121430843A3EB0C01A6
:10100000CB1D4FEA00614FEA102042BF002010BC08
:10101000704700EBC35010440029A4BF10BC7047B8
:10102000401C490008BF20F0010010BC70470000C0
:1010300022484FF6FF710170002080F30988204894
:10104000016881F308881F484FF08051016062B643
:10105000FEE71C484FF080510160704719484FF07F
:1010600080510160704772B6EFF3098050B11EF0F5
:10107000100F08BF20ED108A203880E8F00F1249C9
:101080000968086000B5114880475DF804EB104816
:1010900010490A7802700C480F490A68026010680B
:1010A00090E8F00F20301EF0100F08BFB0EC108A4F
:1010B00080F309884EF0040E62B6704722ED00E01E
:1010C000E800002004ED00E0E000002061290008B5
:1010D0006E0000206F000020E40000202DE9F04F9A
:1010E0002DED0A8B8BB083460C4615461E46DDF867
:1010F000789006A928460CF043FE5FEA000A74D0F7
:1011000002A930460CF03CFE0700F8D09AED000B27
:10111000B0EE408AF0EE608A97ED000BB0EE409A98
:10112000F0EE609AA9F1050007287CD2DFE800F014
:1011300004111E2B385E7000A04653EC192B51ECA5
:10114000180BFFF7FEFAC8E900010320C8F80800F1
:101150006AE0A04653EC192B51EC180BFFF792FBF9
:10116000C8E900010320C8F808005DE0A04653EC80
:10117000192B51EC180BFFF78BFBC8E9000103207A
:10118000C8F8080050E0A04653EC192B51EC180B9E
:10119000FFF7F0FBC8E900010320C8F8080043E0AE
:1011A000A04653EC192B51EC180BFFF7E3FB41EC75
:1011B0001C0BB0EE4C0AF0EE6C0A04F0A1FCB0EE91
:1011C00040BAF0EE60BA53EC192B51EC1B0BFFF751
:1011D0005FFB41EC1A0B53EC182BFFF756FBC8E9E9
:1011E00000010320C8F808001EE01FE0A046B0EE92
:1011F000491AF0EE691AB0EE480AF0EE680A04F0F7
:101200000BFD88ED000B0320C8F808000CE00AE095
:10121000A04651EC180B81F00041C8E90001032001
:10122000C8F8080000E000BF00BF0DE023463246CA
:1012300029465846CDF8009006F043FC20B93246C6
:101240002946584609F05AFD0BB0BDEC0A8BBDE8A3
:10125000F08F1FB5684604F029FA019804B010BD5C
:1012600000BFFEE710B500F01FF800F019F810BD40
:1012700010B5002400BF00BFFEF7AEFF044600BF5C
:1012800000BF1021054800F050FB00BF00BF204602
:10129000FEF7A6FF00BF00BF10BD0000980C0020A5
:1012A00010B5FFF7E5FF10BD10B50020024908603A
:1012B00000F00AF810BD0000140000200149086089
:1012C000704700001400002010B5FFF7C2FF04466D
:1012D0000848006840F08070064908600020064910
:1012E00048600846006840F0010008602046FFF7AB
:1012F000E5FF10BDFCED00E0001000E0014948688A
:1013000070470000001000E0704770472DE9F0477B
:1013100004462569286B07683E46286BB84202D10F
:101320000020286302E03068296B0860286F00689D
:101330003060286F0760787900F0F800297D01F0AF
:10134000030108437871B06808B900200DE0B06867
:10135000807900F0040008B1002006E02169D1F88E
:10136000C4200221B0680AF0CDFF8046B8F1000F1A
:1013700026D094F83990D5F840A0002084F83900A0
:10138000686C400028644046A168D0E90023C1E9A8
:10139000002382688A60A16801F1100006600721BD
:1013A0008160A0682030A060A068A0F12001002228
:1013B000204609F049F884F83990C5F840A000BFEC
:1013C000BDE8F087F0B50A4600210023002400BFE5
:1013D0003DE0012505FA01F3156805EA03049C4286
:1013E00034D105684F000326BE40B543056015792A
:1013F0004E00B5400668354305601579012D02D0D1
:101400001579022D16D185684F000326BE40B543DD
:10141000856055794E00B5408668354385604568DE
:1014200001268E40B5434560456896798E40B6B238
:1014300035434560C5684F000326BE40B543C560CF
:10144000D5794E00B540C6683543C560491C1029A2
:10145000BFD3F0BDF0B5002300244D07ED0E02FA16
:1014600005F3CE1000F1200555F826504E07F70E73
:101470000F26BE40B543CF1000F1200646F8275096
:10148000CE1000F1200555F8265045EA0304CE1091
:1014900000F1200545F82640F0BD42694A4042610E
:1014A000704700BFFEE700002DE9F04104460D46FD
:1014B00016463246294660680CF02BFE07461FB1DF
:1014C00002A1204607F0ACF9BDE8F081756E6578A1
:1014D00070656374656420656E64000038B5044609
:1014E000012269462046FFF7DFFF9DF8000038BD66
:1014F00070B506460C46304600F0D8F90546681C23
:10150000B0F1804F06D2AB000022114630680AF0DD
:1015100046FC02E030680AF05FFCE060E562AA0089
:101520003046E168FFF7C0FF70BD00002DE9F047CD
:1015300080460D46404600F0B9F90646701CB0F1F1
:10154000805F07D2330100221146D8F800000AF06C
:1015500026FC03E0D8F800000AF03EFCA860AE626A
:10156000002405E00020A96801EB04118860641CD8
:10157000B442F7DB00243FE0A86800EB04174046C4
:10158000FFF7ACFF8246BAF1000F09D0BAF1010FA4
:1015900009D0BAF1030F14D0BAF1040F25D11AE023
:1015A0000020B86026E0B9464046FFF797FF08B133
:1015B000012000E00020C9F800000120C9F808005F
:1015C00018E0B946404600F087F989ED000B03208A
:1015D000C9F808000EE0B946404600F087F9C9F89E
:1015E00000000420C9F8080004E01BA1404607F0F1
:1015F00017F900BF00BF641CB442BDDB404600F0D9
:1016000055F90646701CB0F1804F07D2B300002296
:101610001146D8F800000AF0C2FB03E0D8F8000039
:101620000AF0DAFB28616E63002404E000202969D7
:1016300041F82400641CB442F8DB002407E0404673
:10164000296A00F09BF8296941F82400641CB4421F
:10165000F5DBBDE8F087000062616420636F6E73A4
:1016600074616E74000000002DE9F04107460D46DC
:10167000384600F01BF90646701CB0F1804F06D2C8
:10168000B3000022114638680AF089FB02E038688E
:101690000AF0A2FB68612E63B20038466969FFF761
:1016A00003FF384600F002F90646701C32498842B2
:1016B00008D806EB46018B000022114638680AF074
:1016C0006EFB02E038680AF087FBA861AE63002475
:1016D00006E0002004EB4402A96941F82200641CE2
:1016E000B442F6DB00241AE0384600F0FFF804EBC1
:1016F0004402A96941F82200384600F0D7F804EB0B
:101700004402A96901EB82014860384600F0CEF836
:1017100004EB4402A96901EB82018860641CB442B5
:10172000E2DB384600F0C2F80646701CB0F1804F8C
:1017300006D2B3000022114638680AF030FB02E0FE
:1017400038680AF049FBE8616E62002404E000207A
:10175000E96941F82400641CB442F8DB002406E087
:10176000384600F0C3F8E96941F82400641CB4422B
:10177000F6DBBDE8F08100005555551570B50446FF
:101780000E462068808E401C80B221688886C8285A
:1017900003DD30A1204607F043F8206809F06FFA16
:1017A0000546216888680560092181602068C06954
:1017B00021688968401A102804DC0121206808F09B
:1017C000C6FE00E000BF2068806810302168886095
:1017D000204600F08BF82862286A00B92E62204665
:1017E00000F064F845F83C0F204600F05FF86860B0
:1017F0002046FFF773FE28732046FFF76FFE6873DD
:101800002046FFF76BFEA8732046FFF767FEE873DC
:101810003C3D29462046FFF76BFE29462046FFF750
:1018200085FE29462046FFF71FFF284609F082FA69
:1018300018B90CA1204606F0F3FF20688068103824
:10184000216888602068808E401E2168888628462E
:1018500070BD0000636F646520746F6F2064656500
:101860007000000062616420636F64650000000026
:1018700010B586B0044603A80AF0AAFD0C226946FA
:101880002046FFF711FE0C22694603A8FEF747FD2C
:1018900018B103A1204606F0C3FF06B010BD00003A
:1018A00062616420686561646572000038B5044651
:1018B000042269462046FFF7F7FD0098002803DA66
:1018C00002A1204606F0ACFF009838BD626164209A
:1018D000696E7465676572001CB504460822694626
:1018E0002046FFF7E1FD9DED000B1CBD38B5044619
:1018F000042269462046FFF7D7FD009808B900206A
:1019000038BDA1682068009A0CF0E7FB054629461F
:101910002046009AFFF7C8FD00994A1E2946206814
:101920000AF063FCECE700BFFEE730B505460C4665
:1019300022460021284600F001F830BD2DE9F04193
:1019400005460B4694460027002402E03F021F4351
:10195000641C042CFAD3604605F00306294646B100
:10196000344603E001F8013B401E641C08B1042C1E
:10197000F8D30A4601E080C2001F0428FBD21146BA
:1019800002E001F8013B401E0028FAD1BDE8F081D9
:101990007047000015481648164817481748184859
:1019A0001848194819481A481A481B481B481C4827
:1019B0001C481D481D481E481E481F481F482048F7
:1019C00020482148214822482248234823482448C7
:1019D0002448254825482648264827482748284897
:1019E00028482948294800BF70470000A011010875
:1019F0000011010804110108081101080C11010867
:101A00001011010814110108181101081C11010816
:101A10002011010824110108281101082C110108C6
:101A20003011010834110108381101083C11010876
:101A30004011010844110108481101084C11010826
:101A40005011010854110108581101085C110108D6
:101A50006011010864110108681101086C11010886
:101A60007011010874110108781101087C11010836
:101A70008011010884110108881101088C110108E6
:101A80009011010894110108981101089C11010896
:101A900010B50348006810B101480068804710BDC8
:101AA0002C00002070B5044600F0C2F80020484920
:101AB0000870484908704849087048490860484912
:101AC0000860484908704849087048490870484902
:101AD0000860484908604849086048490870484813
:101AE00000680A21B0FBF1F04649086046480068EA
:101AF00058B14648056845B14348066803E0761E7C
:101B0000002028602D1D002EF9D1002040490860DA
:101B10004049086040490860404908604049086001
:101B200040490860404908604049087001F0AEFE35
:101B300001F08EFF204601F0BBF8208800B170BD97
:101B4000204601F01FFC208800B1F8E7204601F094
:101B500041FC208800B1F2E7204601F00DFD20880D
:101B600000B1ECE7204601F0C1FE208800B1E6E7B5
:101B7000204602F0E1F8208800B1E0E7204602F0BC
:101B800003FC208800B1DAE7204601F067FB2088DB
:101B900000B1D4E7204601F0FDF9208800B1CEE77E
:101BA000204603F061FB208800B1C8E7204602F020
:101BB0002FFB208800B1C2E7204603F0B1FB20884C
:101BC00000B1BCE700F09CFFFFF7E4FE00BFB6E702
:101BD000400000204100002088000020E00000209C
:101BE000E40000206E0000206F0000207000002044
:101BF0007C00002080000020840000209000002055
:101C0000601101088C000020301101082C1101081E
:101C10002000002024000020280000202C000020AC
:101C2000300000203400002038000020BE000020DA
:101C3000064800680649096800EB8100054908600C
:101C40000846006820F00700086070472C11010862
:101C500030110108E800002010B500241F4800786A
:101C6000002800DD10BD1E480078002800DDF9E7DF
:101C700000BFFEF7B1FA044600BF01F0F3FD1949B9
:101C800008700846007800EB4000174951F8200022
:101C9000164908600846006815490968884205D158
:101CA00000BF2046FEF79CFA00BFDBE70F48006844
:101CB000D0F89000401C0D490968C1F890000D480B
:101CC0000068401C0B490860FFF7C3F900BF2046BD
:101CD000FEF786FA00BF00BFC4E700004000002006
:101CE000880000206F000020CC220020E4000020AB
:101CF000E0000020B400002070B50446002518481C
:101D00000078002803DD46F66250208070BD15483B
:101D10000078012803D045F689602080F6E7124854
:101D20000078FA2803DB45F209202080EEE700BFA7
:101D300000BFFEF751FA054600BF00BF0A48007811
:101D4000401C0949087001F063FF00BF00BF28462E
:101D5000FEF746FA00BF00BF0020208000BFD5E795
:101D600040000020410000208800002070B504469B
:101D7000002520480078002803DD46F665502080C5
:101D800070BD1D480078012803D045F68960208089
:101D9000F6E71A48007818B946F664502080EFE755
:101DA00000BF00BFFEF718FA054600BF00BF13488A
:101DB0000078401E114908700846007800280ADDA6
:101DC00000BF00BF2846FEF70BFA00BF00BF46F673
:101DD00063502080D4E701F029FF00BF00BF2846F0
:101DE000FEF7FEF900BF00BFFFF736FF002020809E
:101DF00000BFC5E74000002041000020880000200F
:101E000010B5044612480078E8B901F02BFD1149DD
:101E1000087008460078104908700E48007800EBFA
:101E200040000E4951F820000D490860084600683E
:101E30000C490860012006490870FFF7F9F843F6DD
:101E40009920208002E045F68A60208010BD0000C5
:101E5000410000206F0000206E000020CC220020F6
:101E6000E4000020E00000202DE9F04107464FF09B
:101E7000000800BF00BFFEF7AFF9804600BF00BFFB
:101E800000203D4908603D4908803D4908803D49A2
:101E900008603D4908603D4908603D4908603D498A
:101EA000088100BF00BF4046FEF79AF900BF00BF9F
:101EB00000BF00BFFEF790F9804600BF00BF364864
:101EC000046800BF00BF4046FEF78AF900BF00BFAC
:101ED00021E000BF00BFFEF77FF9804600BF00BFD2
:101EE00000207834E06320602063A061A082E0825B
:101EF0006062A062FFF702FA2062783C04F1640697
:101F00000020B081D4F8BC4000BF00BF4046FEF7BF
:101F100067F900BF00BF002CDBD100BF00BFFEF798
:101F20005BF9804600BF00BF1C48056800BF00BFCA
:101F30004046FEF755F900BF00BF12E000BF00BFEA
:101F4000FEF74AF9804600BF00BF05F120060020D9
:101F5000B081AD6900BF00BF4046FEF741F900BF48
:101F600000BF002DEAD103F05BF803F0D5FA0020A2
:101F70003880BDE8F0810000540000204E000020B1
:101F80009E000020B0000020C4000020D0000020EF
:101F900080000020C0220020B80000207400002033
:101FA00010B50348006810B101480068804710BDB3
:101FB000300000202DE9FF4F87B004469046DDE950
:101FC0001BA5DDE91496179F002003908748007831
:101FD000002805DD47F24A1028800BB0BDE8F08FDD
:101FE0001CB947F2AD102880F7E7B8F1000F03D114
:101FF00047F24F102880F0E71EB946F62F60288080
:10200000EBE77B480068874203D246F630602880C1
:10201000E3E71698B84203D346F631602880DCE740
:10202000B9F1400F03D346F273202880D5E7B9F108
:10203000000F06D16F48844203D046F273202880F7
:10204000CBE7B9F13F0F06D16B48844203D046F28B
:1020500073202880C1E7204602F0A6F900202880DE
:102060000AF0010090B10AF0020078B10596002054
:10207000069008E00021059801600598001D059074
:102080000698401C06900698B842F3D3169806EBC3
:1020900080000490CDE9007A32464046049B0A99BC
:1020A00000F030FB0590C4F828800A98E062089898
:1020B000206284F83790059820600498A0601998F1
:1020C0006065199818B94D480068A06501E0199835
:1020D000A0651A9860606662A763A4F83CA04FF000
:1020E000000B08E0002104F17C0040F82B100BF1FC
:1020F000010000F0FF0BBBF1000FF3D004F164000E
:10210000189901F0B3F9204600F082F800BF00BF33
:1021100000BFFEF761F8039000BF00BF38480078A9
:10212000401C3749087000BF00BF0398FEF758F8FD
:1021300000BF00BF00BF94F8370001F0B3FB20469A
:1021400001F0CEFC204602F0E5F82E480088401C45
:102150002C4908802C48007801282DD000BF00BFF2
:1021600000BFFEF739F8039000BF00BF2448007895
:10217000401E2349087008460078A0B9234800880B
:10218000002809DD00BF00BF0398FEF729F800BF53
:1021900000BF01F013FD0DE000BF00BF0398FEF784
:1021A0001FF800BF06E000BF00BF0398FEF718F855
:1021B00000BF00BF00BF10E700BF00BF00BFFEF7B9
:1021C0000BF8039000BF00BF0D480078401E0C497B
:1021D000087000BF00BF0398FEF702F800BF00BF01
:1021E00000BFFFF739FD00BFF7E600004000002008
:1021F0005C110108FC210020382100208C00002007
:1022000088000020BC000020410000204C0000207D
:1022100010B504460348006818B120460149096812
:10222000884710BD2000002070B504460D460026EA
:1022300067480078002803DD47F24E10288070BD03
:102240006448844203D147F24C102880F7E7624883
:10225000844203D147F24D102880F0E77CB900BFDB
:1022600000BFFDF7B9FF064600BF00BF5B4804682A
:1022700000BF00BF3046FDF7B3FF00BF00BF00BF87
:1022800000BF00BFFDF7A8FF064600BF00BF5448CF
:102290000078401C5249087000BF00BF3046FDF76F
:1022A0009FFF00BF00BF00BF94F8360008282DD262
:1022B000DFE800F004090E10080A0F11204601F0B3
:1022C0004FFC54E053E000BF204602F08DFE4EE08C
:1022D00000BF00BF00BF204602F086FE94F8340025
:1022E000082810D2DFE800F004070508090A0B06E9
:1022F00000BF00BF08E000BF00BF00BF00BF204616
:1023000001F001FA00E000BF00BF30E000BF00BFF5
:1023100000BFFDF761FF064600BF00BF30480078F0
:10232000401E2F49087008460078A0B92D48008843
:10233000002809DD00BF00BF3046FDF751FF00BF98
:1023400000BF01F03BFC0DE000BF00BF3046FDF7D1
:1023500047FF00BF06E000BF00BF3046FDF740FF6B
:1023600000BF00BF00BF46F62D60288067E700BFB2
:1023700004F1640001F058F8204600F037F82046D8
:1023800001F0E0FF18480088401E174908802046E9
:1023900002F00AF8FF2084F8360000BF00BF00BF3B
:1023A000FDF71AFF064600BF00BF0D480078401E2B
:1023B0000B49087000BF00BF3046FDF711FF00BF9A
:1023C00000BF00BF00202880FFF746FC00BF36E7B3
:1023D0004000002038210020FC210020E0000020E7
:1023E000880000204C000020BC00002010B50446EE
:1023F0000348006818B1204601490968884710BDA4
:102400002400002010B504460348006818B1204697
:1024100001490968884710BD280000202DE9F047D0
:1024200080460E4614461D464FF000097D48007850
:10243000002805DD46F2AE1028800020BDE8F087B8
:102440001EB1B6F5004F02D100E000BF04E045F632
:10245000256028800020F1E700BF0CB1002020603B
:1024600000BF00BFFDF7B8FE814600BF00BF6E4849
:102470000068406CA8B36C480068406C401E6A4914
:102480000968486468480068476C1CB16648006881
:10249000006C2060FEF732FF63490968096C401A3E
:1024A00061490968C1F8A4005F480068D0F8A80035
:1024B0005D490968D1F8A410884207D25A480068DB
:1024C000D0F8A40058490968C1F8A80000BF00BFAF
:1024D0004846FDF785FE00BF00BF00202880384633
:1024E000ACE7FFE706F4004058B100BF00BF484624
:1024F000FDF776FE00BF00BF46F2B0102880002036
:102500009CE74A48007800280BDD00BF00BF484622
:10251000FDF766FE00BF00BF46F66350288000202E
:102520008CE700BF41480078401C4049087000BF5C
:1025300000BF4846FDF754FE00BF00BF00BF434642
:1025400007220021084601F023F800BF00BF00BFAA
:10255000FDF742FE814600BF00BF34480078401EB0
:102560003249087000BF00BF4846FDF739FE00BF82
:1025700000BF00BFFFF770FB00BF00BFFDF72CFEE0
:10258000814600BF00BF2848006890F8350020B1A0
:10259000012826D0032834D12CE0FCB12248006861
:1025A000006C2060FEF7AAFE1F490968096C401AFA
:1025B0001D490968C1F8A4001B480068D0F8A800AC
:1025C00019490968D1F8A410884207D21648006852
:1025D000D0F8A40014490968C1F8A8000020288098
:1025E00013E01CB110480068006C206046F2A9108E
:1025F00028800AE00CB10020206047F2D920288012
:1026000003E046F62E60288000BF00BF0648006841
:10261000476C00BF00BF4846FDF7E2FD00BF00BFAA
:1026200038460BE740000020E00000208800002032
:102630002DE9F04705460E4617461C464FF0000AA6
:102640002E480078002804DD47F259102080BDE8AC
:10265000F0871EB946F2D5202080F8E71FB946F270
:10266000D5202080F3E700BF00BFFDF7B5FD82460F
:1026700000BF00BF0DB922480568286868B900BFCF
:1026800000BF5046FDF7ACFD00BF00BF002030602A
:10269000386047F252102080D9E795F83C0000F0EE
:1026A000010068B900BF00BF5046FDF799FD00BFAB
:1026B00000BF00203060386047F254102080C6E729
:1026C00000BF00BF5046FDF78BFD00BF00BF4FF0BD
:1026D0000008D5F8249003E009F1040908F1010885
:1026E000D9F800000028F7D0C6F80080A86BA0EB4E
:1026F000080038600020208000BFA8E740000020CC
:10270000E0000020F0B50446DDE9055602EB850047
:1027100020F007004FF0000C071F3846C7F800C034
:102720004FF4805C071F3846C7F800C04FF0150C07
:10273000071F3846C7F800C04FF0140C071F384673
:10274000C7F800C04FF0130C071F3846C7F800C089
:102750004FF0120C071F3846C7F800C04FF0110C9D
:10276000071F3846C7F800C04FF0100C071F384647
:10277000C7F800C04FF0090C071F3846C7F800C063
:102780004FF0080C071F3846C7F800C04FF0070C81
:10279000071F3846C7F800C04FF0060C071F384621
:1027A000C7F800C04FF0050C071F3846C7F800C037
:1027B0004FF0040C071F3846C7F800C04FF0030C59
:1027C000071F3846C7F800C04FF0020C071F3846F5
:1027D000C7F800C04FF0010C071F3846C7F800C00B
:1027E0004FF0000C071F3846C7F800C04FF0807C40
:1027F000071F3846C7F800C0071F38463C60DFF89F
:102800005CC1071F3846C7F800C04FF0123C071FD5
:102810003846C7F800C04FF0033C071F3846C7F8DA
:1028200000C04FF0023C071F3846C7F800C0071F22
:1028300038463B60071F384639604FF0310C071FA0
:102840003846C7F800C04FF0300C071F3846C7F8AD
:1028500000C04FF0290C071F3846C7F800C04FF0E2
:10286000280C071F3846C7F800C04FF0270C071F79
:102870003846C7F800C04FF0260C071F3846C7F887
:1028800000C04FF0250C071F3846C7F800C04FF0B6
:10289000240C071F3846C7F800C04FF0230C071F51
:1028A0003846C7F800C04FF0220C071F3846C7F85B
:1028B00000C04FF0210C071F3846C7F800C04FF08A
:1028C000200C071F3846C7F800C04FF0190C071F2F
:1028D0003846C7F800C04FF0180C071F3846C7F835
:1028E00000C04FF0170C071F3846C7F800C04FF064
:1028F000160C071F3846C7F800C04FF0113C071FE1
:102900003846C7F800C04FF0103C071F3846C7F8DC
:1029100000C04FF0093C071F3846C7F800C04FF011
:10292000083C071F3846C7F800C04FF0073C071F98
:102930003846C7F800C04FF0063C071F3846C7F8B6
:1029400000C04FF0053C071F3846C7F800C04FF0E5
:10295000043C071F3846C7F800C0F0BDD94700083F
:1029600010B51D48006810B11B4800688047FEF78D
:10297000C5FC04461948006819490968884215D001
:1029800016480068D0F89800201A14490968C1F860
:10299000940012480068D0F89C0010490968D1F8EA
:1029A000941008440D490968C1F89C000C4800685F
:1029B000C0F8984009480068D0F8B400094909688F
:1029C000884205D20748006804490968C1F8B40084
:1029D00000200449086010BD34000020E000002001
:1029E000E4000020840000202DE9F04105460E4659
:1029F000144600273F480078002804DD47F2752080
:102A00002080BDE8F0813C480078002803DD46F6D0
:102A100063502080F5E736B1022E05D0042E0AD08F
:102A2000082E09D101E000BF00BF1DB947F27E208A
:102A30002080E6E704E003E045F625602080E0E73B
:102A400000BF00BF00BF00BFFDF7C6FB074600BFC9
:102A500000BF29480078401C2749087000BF00BF0C
:102A60003846FDF7BDFB00BF00BF00BF0120234972
:102A7000096881F836002346324629461F48006817
:102A800002F0D4F92088A8B100BF00BF00BFFDF755
:102A9000A3FB074600BF00BF17480078401E164939
:102AA000087000BF00BF3846FDF79AFB00BF00BFAB
:102AB00000BFA6E71148006801F052F800BF00BF50
:102AC00000BFFDF789FB074600BF00BF0A4800783A
:102AD000401E0949087000BF00BF3846FDF780FB63
:102AE00000BF00BF00BFFFF7B7F80020208000BF85
:102AF00087E700004000002088000020E000002060
:102B00002448254825482648264827482748284855
:102B10002848294829482A482A482B482B482C4825
:102B20002C482D482D482E482E482F482F483048F5
:102B300030483148314832483248334833483448C5
:102B40003448354835483648364837483748384895
:102B50003848394839483A483A483B483B483C4865
:102B60003C483D483D483E483E483F483F48404835
:102B70004048414841484248424843484348444805
:102B8000444845484548464846484748474800BFA6
:102B900070470000A41101080C130108A6110108D8
:102BA000A7110108A8110108AC110108B011010812
:102BB000AD110108D8110108D9110108DA11010875
:102BC000DC110108DE110108E0110108E211010821
:102BD000E411010804120108061201080812010894
:102BE0000A1201080C1201080E1201081012010845
:102BF0003C1201083D1201083E1201084012010872
:102C00004212010843120108441201084612010849
:102C1000481201084A1201084C1201084E1201081C
:102C20005012010880120108811201088212010865
:102C30008312010884120108861201088812010813
:102C4000B0120108B1120108B2120108B312010852
:102C5000B4120108B6120108B8120108BC1201082A
:102C6000BD120108BE120108BF120108C0120108FE
:102C7000C1120108C2120108C3120108C4120108DE
:102C8000C6120108C7120108C8120108CA120108B9
:102C9000CC120108CD120108D0120108041301085A
:102CA0000513010806130108081301080A13010897
:102CB0000021034A1160034A11800180704700001F
:102CC000580000205C0000202DE9F04F85B004463C
:102CD000894692469B46DDF838800020009000BF70
:102CE00000BFFDF779FA009000BF00BFBAF1000FF6
:102CF0000AD0BAF1010F0DD0BAF5004F05D06FF42C
:102D00000040504460B906E000BF206A40EA090074
:102D1000206214E000BF206A20EA090020620EE071
:102D200000BF00BF0098FDF75BFA00BF00BF45F68B
:102D30002560A8F80000002005B0BDE8F08F00BFB6
:102D4000C4F824B004F1080001900198008958B932
:102D500000BF00BF0098FDF743FA00BF00BF00208E
:102D6000A8F80000206AE7E700BF61480078401C2F
:102D70005F49087000BF00BF0098FDF731FA00BF3F
:102D800000BF00BF01980768BD687FE078680290C7
:102D900095F8880000F00F0003900398012821D0D7
:102DA00002282ED0042802D0082836D10EE0206A4E
:102DB000D5F8801000EA0106D5F88000B04204D1B1
:102DC0005A463146284600F097F859E0206AD5F86F
:102DD000801000EA010626B15A463146284600F026
:102DE0008BF84DE0D5F88000216A20EA0106D5F87D
:102DF0008000B04204D15A463146284600F07CF8A3
:102E00003EE0D5F88000216A20EA010626B15A4644
:102E10003146284600F070F832E000BF00BF00BF26
:102E2000FDF7DAF9009000BF00BF31480078401E7E
:102E30002F49087008460078A0B92E48008800285D
:102E400009DD00BF00BF0098FDF7CAF900BF00BF51
:102E500000F0B4FE0DE000BF00BF0098FDF7C0F920
:102E600000BF06E000BF00BF0098FDF7B9F900BF42
:102E700000BF00BF43F6FF20A8F8000000205BE77A
:102E800000BF029F0FB1BD6800E00025002D7FF458
:102E90007DAF00BF00BF00BFFDF79EF9009000BFEF
:102EA00000BF13480078401E1149087000BF00BFE2
:102EB0000098FDF795F900BF00BF00BF0AF400407D
:102EC00008B9FEF7C9FE00BF00BFFDF785F9009005
:102ED00000BF00BF206A049000BF00BF0098FDF74C
:102EE0007FF900BF00BF0020A8F80000049823E786
:102EF000880000204C00002070B504460E461546A0
:102F000034342665002060702070E560A078343C81
:102F1000082816D2DFE800F004050809070610119A
:102F200000BF00BF00BF0DE000BF204601F0A6FBC0
:102F3000002084F8360005E000BF042084F8360045
:102F400000E000BF00BF204600F0DDFB70BD0000C8
:102F5000002400BF19E000BF00BFFDF73DF90446A3
:102F600000BF00BF09480068401C084908600848C5
:102F70000068401C0649086000BF00BF2046FDF7FE
:102F80002FF900BF00BFFEF783FDE4E73C000020FF
:102F9000A000002010B58AB0044600200E49086049
:102FA0000B2000210591CDE90704069108460B4945
:102FB00009680B4A12680B4B1B68CDE90132CDE959
:102FC00003103F200023084A08A100900C48FEF798
:102FD000F1FF0AB010BD00003C00002008110108FC
:102FE0000411010800110108512F000875432F4FEB
:102FF000532D4949492049646C65205461736B0025
:10300000382100203EB5594800680068584A811AA6
:10301000904279D00FDC5749084400283ED05649E9
:103020000844A8B155490844002860D054490844D0
:1030300000286AD13FE053480844002850D0524944
:103040000844002862D0514908440028F1D110E01A
:1030500002A8464D00902D68EB69444D2D682A8BDF
:10306000424D2D686969414D2D68A868FFF72CFE17
:103070007AE002A93D480068C0693C4DCDE90001F5
:103080002D682B8B394D2D682A8A384D2D68E968BB
:10309000364D2D68A86800F035FC65E0334B1B68A1
:1030A000DA69324B1B68198B304B1B68986802AB8E
:1030B00000F04EFE58E002A92C480068C0692B4D74
:1030C000CDE900012D682B8B284D2D682A8A274DCC
:1030D0002D68E968254D2D68A86801F0C9F943E01D
:1030E00022490968886802A901F0D6FA3CE01F4B22
:1030F0001B68DA691D4B1B68198B1C4B1B68986891
:1031000002AB01F075FB2FE007E02CE017490968DE
:10311000886802A901F0CEFD26E01D49097801EB7F
:1031200041011C4A02EB810000F09EFD0F4800683F
:1031300002AB0021C269184801F05AFB1748006829
:10314000401E164908600846006858B914480068CF
:103150000860FEF7D3F8044602AB2246002111486E
:1031600001F046FB00E000BF00BF3EBD480000206C
:103170005449434BADBAB2BE0DF90BFAF2F8F7FF62
:103180000006F6FF00F7FDF700FFEFFF03FE0FFE5E
:1031900070000020CC22002090260020DC000020BF
:1031A000D800002054270020002700BF4CE0002654
:1031B00048E000BF00BFFDF70FF8074600BF00BFA3
:1031C0002248008888B900202149088108604860A9
:1031D00000F07AFB00BF00BF3846FDF701F800BFE2
:1031E00000BFFEF739FD01262CE000BF00BF3846C6
:1031F000FCF7F6FF00BF00BFFEF780F80546FFF7BB
:1032000001FFFEF77BF8441B12480068A04201D280
:103210001048046000BF00BFFCF7DEFF074600BF98
:1032200000BF0D48006840680B49086007480088E7
:10323000401E0649088000BF00BF3846FCF7D0FF9B
:1032400000BF00BF002EB4D0B1E700004C0000204A
:10325000CC2200205400002048000020F0B589B0A6
:1032600005460020314908803148006820B944F201
:103270005260288009B0F0BD2E480088022803DA89
:1032800044F254602880F5E700202B490860284864
:1032900004682646203600270CE0284820600020DD
:1032A000A060E06020826061208366602034203668
:1032B000781C87B21F4800888742EEDB203C1C4800
:1032C000066866601E4806601E48066000201E49AB
:1032D00008801E4908801E48006818B944F25560ED
:1032E0002880C7E71B4800681B490968884203D249
:1032F00044F256602880BDE7032000210591CDE906
:103300000705069113480068144A1268104B1B68A1
:10331000CDE90301CDE9013200910B46104A11A11C
:103320001748FEF747FE00BFA4E70000500000204A
:103330001011010814110108540000204E4F4E4591
:1033400044000020480000204C0000204E000020D7
:103350001C110108241101085C1101082011010849
:10336000A931000875432F4F532D4949492049532E
:1033700052205175657565205461736B0000000023
:10338000FC2100200021034A1160034A11800180C2
:1033900070470000600000206400002070B5024605
:1033A0000B461046114610315E1EB5B2002408E0EF
:1033B0000160002646600681C66010301031661C30
:1033C000B4B2AC42F4DB0026066046600681C660FB
:1033D00070BD000010B504461048006818B945F2E9
:1033E0001E70208010BD0E48008818B945F21D706F
:1033F0002080F7E70A48018808480068FFF7CEFFF9
:103400000648006807490860054800888880002051
:10341000C8800881208000BFE4E700004011010857
:1034200038110108C022002010B5014648894B8997
:10343000002B17DD0A680C4B1B6813600A4C4B68A5
:1034400023602346DB884C891B1B074CE380234603
:103450009B884C892344044CA38000234B818B819F
:103460000B604B6010BD0000C022002001810022D3
:103470004281828102604260704700002DE9F04184
:103480000D46DDE90674B0F80AC0B0F80880C445FE
:1034900005DB46F2935CA4F800C0BDE8F081DFF8DC
:1034A000D4C0BCF804C0BCF1000F04D145F21D7CAF
:1034B000A4F800C0F1E7DFF8BCC0DCF80010DFF8CA
:1034C000B480D1F800C0C8F800C0C446BCF804C03D
:1034D000ACF1010CA8F804C0C446BCF806C00CF15D
:1034E000010CA8F806C0C446BCF808C0B8F80680AD
:1034F000C44507DADFF87CC0BCF806C0DFF874808A
:10350000A8F808C0B0F80AC0BCF1000F06D10160ED
:1035100041604FF0010CA0F80AC017E003F0100C56
:10352000BCF1000F07D1066831604FF0000CC1F804
:1035300000C0016004E0D0F804C0C1F800C04160E0
:10354000B0F80AC00CF1010CA0F80AC0B0F80CC029
:10355000B0F80A80C44503DAB0F80AC0A0F80CC07D
:103560004D600A81CF604FF0000CA4F800C000BF8E
:1035700093E70000C02200200021034A1160034AA3
:103580001180018070470000680000206C0000205E
:103590002DE9F04105460C4616461F4615480068C1
:1035A00080F8346000201349096881F835003946F5
:1035B0001048006800F092FE6CB104F10808EC605D
:1035C000012229460B48006800F016F829464046BB
:1035D00000F066F806E0002006490968C88705493A
:1035E0000968086303480168204600F019F8BDE83F
:1035F000F0810000E000002010B5C28701630023C5
:103600000AE000244C600C600C614C610C83CC61BE
:10361000886020315C1CA3B29342F2DB10BD000035
:1036200030B548B14568C1F8C05000F108042268BF
:1036300093681D6AC56113E091F83450022D02D0E1
:10364000072D08D103E007A5C1F8C05007E007A582
:10365000C1F8C05003E008A5C1F8C05000BF00BFCA
:1036600030BD00005461736B205100005461736BD6
:103670002053656D000000002000000030B507A554
:10368000C1F8C05000F1080422681AB193681D6A9D
:10369000C56101E001A5C56130BD0000200000004A
:1036A000F0B58E6896F8375007893FB90127078132
:1036B00000274F600F600160416023E007897F1C95
:1036C0000781026806E0946894F83770AF4200DD25
:1036D00002E05268002AF6D100BF32B900274F60DD
:1036E00043680B60596041600CE017682FB91160A6
:1036F00000270F604A60016004E013680B604A60B5
:1037000059601160F0BD2DE9F0410446256BE68F4C
:103710000AE0D5F80C8008F108072946384600F081
:103720000AF82035701E86B2002EF2DC0020E087F9
:103730002063BDE8F08110B50489012C03D1002479
:103740000460446011E00C6824B94A6800241460E5
:1037500002600AE04C6824B90B6800245C60436096
:1037600003E00B684A685A6013600489641E048190
:1037700000244C600C6010BD2DE9F84306460C4651
:1037800017469846089D94F83600082850D2DFE87E
:1037900000F00405080906072B2C00BF00BF00BF7E
:1037A00047E000BF94F83400032807D143463A4667
:1037B00021463046009500F03FF803E0E765A4F8A5
:1037C0006080256436B12046FFF79DFF21463046D4
:1037D000FFF754FF204600F051FF00203434A07062
:1037E000607004F8340924E000BF94F83400032822
:1037F00007D143463A4621463046009500F01CF872
:1038000003E0E765A4F860802564204601F0ECFB46
:1038100036B12046FFF777FF21463046FFF72EFFEF
:1038200004203434A0700020607004F8340900E0F3
:1038300000BF00BFBDE8F883F0B50446059E086BE5
:10384000CD8F0AE0C768A74204D1046142610383B7
:10385000C66104E020306F1EBDB2002DF2DC00BF57
:10386000F0BD000070B50025074C03E005F1200015
:10387000C5B2241D20680028F8D02068FCF7B7FCEA
:103880002844C5B2284670BD18000020002004E07E
:103890000021034A42F82010401C0228F8D3704748
:1038A0001800002030B5420900F01F030121C3F1C8
:1038B0001F04A140034C54F822400C43014D45F82D
:1038C000224030BD1800002030B5420900F01F032F
:1038D0000121C3F11F04A140034C54F822408C4342
:1038E000014D45F8224030BD180000200021034A58
:1038F0001160034A118001807047000074000020AD
:10390000780000202DE9F04F85B007468A4693469F
:103910001C460020029000BF00BF00BFFCF75CFC0B
:10392000029000BF00BF48480078401C464908701C
:1039300000BF00BF0298FCF753FC00BF00BF00BFF0
:1039400007F108063089002842D104F0100010B9B0
:103950004FF0000801E04FF01008DDE90E0143468A
:103960005A46CDE90001514607F12000FFF786FDD8
:1039700000BF00BF00BFFCF72FFC029000BF00BFDC
:1039800031480078401E3049087008460078A0B9D8
:103990002E480088002809DD00BF00BF0298FCF710
:1039A0001FFC00BF00BF00F009F90DE000BF00BF21
:1039B0000298FCF715FC00BF06E000BF00BF0298AC
:1039C000FCF70EFC00BF00BF00BF05B0BDE8F08FE4
:1039D00004F4007008B1358900E00125D6F80090A4
:1039E00011E0D9F808000390D9F8040004900E986B
:1039F0005B465246009038460399FFF7BDFEDDF85E
:103A00001090681E85B2002DEBD100BF00BF00BF33
:103A1000FCF7E2FB029000BF00BF0B480078401E9D
:103A20000949087000BF00BF0298FCF7D9FB00BF2E
:103A300000BF00BF04F4004008B9FEF70DF90021F3
:103A40000F98018000BFC0E7880000204C000020D4
:103A500000210AE001EB4102054B03EB820000224A
:103A60000281026042604A1CD1B24029F2D3704701
:103A7000CC22002010B5044694F83700FFF712FF5F
:103A800094F8370005490978884203D1204600F0B0
:103A900027F802E0204600F003F810BD6E00002079
:103AA00010B590F8373003EB43030C4C04EB830163
:103AB0000B893BB901230B810023C36003610860BC
:103AC000486009E00B895B1C0B810B68C360002315
:103AD00003610A681061086010BD0000CC2200205C
:103AE00010B590F8373003EB43030B4C04EB830124
:103AF0000B893BB901230B810023C360036108607C
:103B0000486008E00B895B1C0B810023C3604A6896
:103B10000261D060486010BDCC22002010B5014683
:103B20000C8924B1012C03D0022C0CD101E000BF80
:103B300014E008684A6802610024C4601461D0601F
:103B40000A6048600AE008684A68C36800241C618B
:103B5000C4600261D0600B60486000BF00BF10BD50
:103B60002DE9F041054695F8370000EB4000124979
:103B700001EB80042F69EE6887B946B900202081E7
:103B80002060606095F83700FFF79EFE0EE0208908
:103B9000401E208100203061266007E02089401E01
:103BA0002081FE600EB9676000E037610020286167
:103BB000E860BDE8F0810000CC22002010B50024B0
:103BC00000BFFCF709FB044600BF00200C49087049
:103BD0000C480D49086008460068D0F89000401C69
:103BE0000968C1F8900009480068401C074908604E
:103BF000FDF72FFA00BF2046FCF7F2FA00BF10BD18
:103C00006F000020FC210020E4000020B400002010
:103C100010B504480078012803D1FDF76FFB024975
:103C2000086010BD880000207C00002010B50A4804
:103C3000007880B9FDF762FB08490968441A084812
:103C40000068A04201D20648046006480068A0420D
:103C500001D20448046010BD880000207C000020D0
:103C6000800000208400002070B5054600262E4804
:103C70000078012800D070BD00BF00BFFCF7ACFA8F
:103C8000064600BF00BF2C683CB900BF00BF3046ED
:103C9000FCF7A6FA00BF00BFEDE72448844207D135
:103CA00000BF00BF3046FCF79BFA00BF00BFE2E751
:103CB000A06D10B1A06D401EA065A06D38B100BF11
:103CC00000BF3046FCF78CFA00BF00BFD3E728895D
:103CD000022807DA00BF00BF3046FCF781FA00BFB8
:103CE00000BFC8E712480078002807DD00BF00BF0A
:103CF0003046FCF775FA00BF00BFBCE72846FFF767
:103D00000DFF2C68606D18B90A480068A06501E0D5
:103D1000606DA06500BF00BF3046FCF761FA00BFD0
:103D200000BF00BFA7E7000090000020382100205E
:103D3000880000208C0000200021034A1160034A03
:103D4000118001807047000094000020980000203E
:103D50002DE9FF5F0446884691461D4600200190EC
:103D600000BF00BFFCF738FA019000BF00BF04F1AC
:103D70000807388900284FD10420012804D00228E0
:103D800014D0042834D123E0206AFF280DD100BFCD
:103D900000BF0198FCF724FA00BF00BF46F6C550EB
:103DA0002880002004B0BDE8F09F22E04FF6FF71AC
:103DB000206A88420BD100BF00BF0198FCF710FABF
:103DC00000BF00BF46F6C55028800020EAE710E09B
:103DD000206A401C58B900BF00BF0198FCF700FAE8
:103DE00000BF00BF46F6C55028800020DAE700E09B
:103DF00000BF00BF206A401C2062D4F820A0C4F895
:103E0000249000BF00BF0198FCF7EAF900BF00BF93
:103E1000002028805046C5E700BF25480078401C98
:103E20002349087000BF00BF0198FCF7D9F900BF13
:103E300000BF00BF08F4007008B13E8900E0012611
:103E4000D7F800B011E0DBF808000290DBF80400BE
:103E5000039000231A46CDF8009020460299FFF700
:103E60008BFCDDF80CB0701E86B2002EEBD1D4F8BE
:103E700020A000BF00BF00BFFCF7AEF9019000BF5B
:103E800000BF0B480078401E0949087000BF00BF02
:103E90000198FCF7A5F900BF00BF00BF08F400407F
:103EA00008B9FDF7D9FE0020288050467AE70000C7
:103EB0008800002086B00020009000BF06E0C349C3
:103EC0000968480001AA0021FEF78EFDC04800786D
:103ED0000128F4D101A8FDF7C7FF0027BD480068FD
:103EE000BA490968884205D9BA480068B7490968DB
:103EF000B0FBF1F727B9B74800680A21B0FBF1F72A
:103F000062E1FDF7FBF9804600BF00BFFCF764F9F2
:103F1000009000BF00BFB0480068B04908600020B2
:103F2000AD49086000BF00BF0098FCF759F900BF19
:103F300000BFAB480068A9490968884248D9A84829
:103F40000068A849884205D242F21070039001200F
:103F5000029023E0A2480068A349884205D24FF4AA
:103F60007A7003900A20029018E09D4800689F49EB
:103F7000884203D26420039002900FE098480068C2
:103F80009B49884205D20A2003904FF47A70029030
:103F900004E00120039042F2107002909048016802
:103FA0000298B1FBF0FA8D49039809684843B0FBC9
:103FB000FAF042F21071081A8E4908808E48008883
:103FC0000988884208DA8B4800888B49088003E01A
:103FD00042F2107087490880FDF7E2FF002500BF1C
:103FE00000BFFCF7F9F8009000BF00BF83480468E9
:103FF00000BF00BF0098FCF7F3F800BF00BF5AE015
:1040000000BF00BF00BFFCF7E7F8009000BF00BF93
:104010007B480078401C7A49087000BF00BF0098B8
:10402000FCF7DEF800BF00BF00BF54F89C0F6060D3
:10403000002044F89C0900BF00BF00BFFCF7CCF88B
:10404000009000BF00BF6E480078401E6C490870A9
:1040500008460078A0B96B480088002809DD00BF39
:1040600000BF0098FCF7BCF800BF00BFFFF7A6FD3B
:104070000DE000BF00BF0098FCF7B2F800BF06E0FB
:1040800000BF00BF0098FCF7ABF800BF00BF00BF47
:10409000D4F8A000054400BF00BFFCF79DF80090D5
:1040A00000BF00BFD4F8BC4000BF00BF0098FCF7C1
:1040B00097F800BF00BF002CA2D145B34948854204
:1040C00005D242F2107005904FF0010B1BE04648FC
:1040D000854205D24FF47A7005904FF00A0B12E03A
:1040E0004248854203D26420059083460BE0404855
:1040F000854204D20A2005904FF47A7B03E0012028
:10410000059042F2107BB5FBFBF0049003E0002029
:1041100005900120049000BF00BFFCF75DF80090FF
:1041200000BF00BF3548046800BF00BF0098FCF71F
:1041300057F800BF00BF2BE0D4F8A0000599484312
:104140000499B0FBF1F086B242F21070864200D9B9
:104150000646A4F88C60B4F88E00B04201DAA4F8E8
:104160008E6001AB04F1AC02111D2046FEF760FA2F
:1041700000BF00BFFCF730F8009000BF00BFD4F8CC
:10418000BC4000BF00BF0098FCF72AF800BF00BF8A
:10419000002CD1D11C480078012805D100201A49F3
:1041A000087001A8FDF760FEFDF7A8F8A0EB08096C
:1041B00016480068484502D21448C0F8009001AA89
:1041C00000213846FEF710FC9BE60000481101086C
:1041D000AC00002060110108A0000020A800002011
:1041E000A4000020801A060000093D00005A620267
:1041F0000084D7179C0000209E000020B8000020FB
:10420000880000204C0000209A000020B000002010
:1042100010B58AB0044600201F4908601F49086095
:104220001F4908601F4908701F4908701F4800682F
:1042300020B946F62B6020800AB010BD1C480068EB
:104240001C490968884203D246F62C602080F3E7B7
:10425000194800783F2803D346F62A602080EBE710
:10426000032000210591CDE9070406910846104975
:104270000968124A12680D4B1B68CDE90132CDE97D
:1042800003100D48007800230D4A0EA1009012483B
:10429000FDF790FE00BFCFE7A0000020A80000209F
:1042A000A4000020AC0000209A0000204C1101085E
:1042B000541101085C110108441101085011010852
:1042C000B53E000875432F4F532D4949492053747B
:1042D0006174205461736B00CC25002038B504460E
:1042E0000D4685B16B4602222946204600F09EFD10
:1042F000BDF8000018B9032084F8360006E002205B
:1043000084F8360002E0022084F836002046FFF7E9
:1043100027FC38BD0021C0F8B8100949096819B94F
:104320000021C0F8BC1007E005490968C0F8BC10BE
:1043300003490968C1F8B8000149086070470000E6
:10434000B8000020D0F8B820D0F8BC104AB90D4B06
:10435000196011B10023C1F8B8300023C0F8BC3097
:104360000FE029B90023C2F8BC30C0F8B83008E02B
:10437000C2F8BC10C1F8B8200023C0F8BC30C0F8A7
:10438000B8307047B80000200021044A1160044A88
:104390001180044A1160018070470000B8000020BD
:1043A000BC000020B400002070B50446002020604E
:1043B000A0606060E06020616061A061E06129A0B0
:1043C000206200206062A062E0622064E065A4F8E0
:1043D0006000002104F16400FFF748F8002044F871
:1043E000740F6060E060A0822061743C002506E0EC
:1043F000002104F17C0040F82510681CC5B2002D96
:10440000F6D000203434206120676067606084F853
:104410005600E067A06720814FF0004060610020F7
:10442000A061E06120626062A4F85800A4F85A001C
:10443000E0652066FCF762FF064666660020A0661F
:10444000C4F8800020706070A0704020E0700020F0
:10445000C4F88400C4F8880004A0C4F88C00343C7C
:1044600070BD00003F5461736B000000200000002D
:104470002DE9FC4704460F4690469946DDE90A655A
:104480004FF0000A00BF00BF00BFFBF7A5FE824649
:1044900000BF00BF76480078401C7549087000BF17
:1044A00000BF5046FBF79CFE00BF00BF00BF0CB929
:1044B000704804680020288094F8360008287DD2CF
:1044C000DFE800F004053E3F0607404100BF00BFA3
:1044D00000BF4B464246394604F16400CDE9006511
:1044E000FEF7CCFF00BF00BF00BFFBF775FE8246A2
:1044F00000BF00BF5E480078401E5D490870084656
:104500000078A0B95C480088002809DD00BF00BF22
:104510005046FBF765FE00BF00BFFFF74FFB0DE005
:1045200000BF00BF5046FBF75BFE00BF06E000BFC8
:1045300000BF5046FBF754FE00BF00BF00BF93E032
:1045400000BF00BF00BF94F83400022821D14346C9
:104550003A46214600200096FFF70EF900BF00BF43
:1045600000BFFBF739FE824600BF00BF404800781D
:10457000401E3F49087000BF00BF5046FBF730FEA9
:1045800000BF00BF00BF09F4004090BBFDF764FB13
:1045900038E04B464246394604F16400CDE90065F7
:1045A000FEF76CFF00BF00BF00BFFBF715FE8246A1
:1045B00000BF00BF2E480078401E00E023E02C49D9
:1045C000087008460078A8B92B480088002809DD43
:1045D00000BF00BF5046FBF703FE00BF00BFFFF760
:1045E000EDFA0EE000BF00BF5046FBF7F9FD00BF3B
:1045F00007E007E000BF00BF5046FBF7F1FD00BF3A
:1046000000BF00BF30E000BF00BF00BFFBF7E4FD0C
:10461000824600BF00BF16480078401E144908704B
:1046200008460078A0B914480088002809DD00BFBA
:1046300000BF5046FBF7D4FD00BF00BFFFF7BEFA36
:104640000DE000BF00BF5046FBF7CAFD00BF06E00B
:1046500000BF00BF5046FBF7C3FD00BF00BF00BF57
:1046600046F62D60288000BF00BFBDE8FC87000033
:1046700088000020E00000204C00002010B5044617
:10468000204600F0B1FC94F8360000F0040010B9A8
:104690002046FFF7EFF910BD70B504460D46002621
:1046A00000BF00BFFBF798FD064600BF00BF00201B
:1046B000288094F8360008287BD2DFE800F0040553
:1046C00006071243556700BF00BF00BF00BF00BF11
:1046D0003046FBF785FD00BF00BF47F2531028802E
:1046E00072E000BF3B480078401C3A49087000BFA8
:1046F00000BF3046FBF774FD00BF00BF00BF14F8D9
:104700008A0F401E207014F88A0928B9002084F806
:1047100036002046FFF7B2FF00BF00BF00BFFBF727
:104720005BFD064600BF00BF2A480078401E2949AD
:10473000087000BF00BF3046FBF752FD00BF00BF4E
:1047400000BF41E014F88A0F401E207014F88A0957
:1047500010B9012084F8360000BF00BF3046FBF7D7
:104760003FFD00BF00BF2FE014F88A0F401E2070ED
:1047700014F88A0910B9022084F8360000BF00BF7F
:104780003046FBF72DFD00BF00BF1DE014F88A0F77
:10479000401E207014F88A0910B9032084F83600EE
:1047A00000BF00BF3046FBF71BFD00BF00BF0BE0A2
:1047B000FFE700BF00BF3046FBF712FD00BF00BFA0
:1047C00046F62D60288070BD00BFFDF745FA00BF9A
:1047D000F9E700008800002008B504480068FDF7EC
:1047E00011FE69460020FDF71FFD08BDE000002016
:1047F0002DE9F8430446884617461D464FF0000948
:1048000000BF00BF00BFFBF7E7FC814600BF00BF51
:10481000FE480078401CFD49087000BF00BF4846B4
:10482000FBF7DEFC00BF00BF00BF0CB9F84804680E
:1048300027640020288094F83600082871D2DFE829
:1048400000F00405EBEC0607EDEE00BF00BF00BF73
:104850000420012804D0022839D004286FD170E048
:10486000606CFF2832D100BF00BF00BFFBF7B4FC73
:10487000814600BF00BFE5480078401EE34908704C
:1048800008460078A0B9E3480088002809DD00BF89
:1048900000BF4846FBF7A4FC00BF00BFFFF78EF93E
:1048A0000DE000BF00BF4846FBF79AFC00BF06E0E2
:1048B00000BF00BF4846FBF793FC00BF00BF00BF2E
:1048C00046F6C55028800020BDE8F88371E04FF619
:1048D000FF71606C884233D100BF00BF00BFFBF79F
:1048E0007BFC814600BF00BFC8480078401EC74916
:1048F000087008460078A8B9C6480088002809DD75
:1049000000BF00BF4846FBF76BFC00BF00BFFFF7CE
:1049100055F90EE000BF00BF4846FBF761FC00BF41
:1049200007E08DE100BF00BF4846FBF759FC00BF20
:1049300000BF00BF46F6C55028800020C4E737E01E
:1049400037E0606C401C88BB00BF00BF00BFFBF7B6
:1049500043FC814600BF00BFAC480078401EAB4915
:10496000087008460078A0B9AA480088002809DD28
:1049700000BF00BF4846FBF733FC00BF00BFFFF796
:104980001DF90DE000BF00BF4846FBF729FC00BF42
:1049900006E000BF00BF4846FBF722FC00BF00BF97
:1049A00000BF46F6C550288000208DE7FFE700E0F5
:1049B00000BF00BF606C401C6064666C00BF00BF3D
:1049C00000BFFBF709FC814600BF00BF8F4800789D
:1049D000401E8E49087008460078A0B98D480088AE
:1049E000002809DD00BF00BF4846FBF7F9FB00BF08
:1049F00000BFFFF7E3F80DE000BF00BF4846FBF73C
:104A0000EFFB00BF06E000BF00BF4846FBF7E8FB36
:104A100000BF00BF00BF45E100BF00BF00BF94F86A
:104A20003400072823D100231A4621461846009750
:104A3000FEF7A2FE666C00BF00BF00BFFBF7CCFB19
:104A4000814600BF00BF71480078401E6F49087062
:104A500000BF00BF4846FBF7C3FB00BF00BF00BF5D
:104A600008F40040002801D1FDF7F6F8E7E0042043
:104A7000012804D0022838D004286ED16EE0606C82
:104A8000FF2831D100BF00BF00BFFBF7A5FB814667
:104A900000BF00BF5D480078401E5C4908700846B2
:104AA0000078A0B95B480088002809DD00BF00BF7E
:104AB0004846FBF795FB00BF00BFFFF77FF80DE00E
:104AC00000BF00BF4846FBF78BFB00BF06E000BFFE
:104AD00000BF4846FBF784FB00BF00BF00BF46F69F
:104AE000C55028800020EFE670E04FF6FF71606C43
:104AF000884231D100BF00BF00BFFBF76DFB81468C
:104B000000BF00BF41480078401E40490870084679
:104B10000078A0B93F480088002809DD00BF00BF29
:104B20004846FBF75DFB00BF00BFFFF747F80DE00D
:104B300000BF00BF4846FBF753FB00BF06E000BFC5
:104B400000BF4846FBF74CFB00BF00BF00BF46F666
:104B5000C55028800020B7E638E036E0606C401C85
:104B600088BB00BF00BF00BFFBF736FB814600BF1C
:104B700000BF26480078401E244908700846007887
:104B8000A0B924480088002809DD00BF00BF4846BE
:104B9000FBF726FB00BF00BFFFF710F80DE000BFDA
:104BA00000BF4846FBF71CFB00BF06E000BF00BF8C
:104BB0004846FBF715FB00BF00BF00BF46F6C550D7
:104BC0002880002080E6FFE700E000BF00BF606CA7
:104BD000401C6064666C00BF00BF00BFFBF7FCFABE
:104BE000814600BF00BF09480078401E0749087091
:104BF00008460078D8B907480088002810DD00BFB3
:104C000000BF4846FBF7ECFA00BF05E08800002033
:104C1000E00000204C00002000BFFEF7CFFF0DE0B9
:104C200000BF00BF4846FBF7DBFA00BF06E000BF4D
:104C300000BF4846FBF7D4FA00BF00BF00BF31E019
:104C400000BF00BF00BFFBF7C7FA814600BF00BF2F
:104C500016480078401E1549087008460078A0B92B
:104C600013480088002809DD00BF00BF4846FBF755
:104C7000B7FA00BF00BFFEF7A1FF0DE000BF00BF05
:104C80004846FBF7ADFA00BF06E000BF00BF48464C
:104C9000FBF7A6FA00BF00BF00BF46F62D602880D4
:104CA000002600BF00BF30460EE60000880000204E
:104CB0004C00002070B504460D46002600BF00BF22
:104CC000FBF78AFA064600BF00BF0CB94B480468E0
:104CD0004A48006884420ED14948007800280ADD1D
:104CE00000BF00BF3046FBF77BFA00BF00BF46F6AF
:104CF0006350288070BD0020288094F83600082872
:104D00006CD2DFE800F004313F4D5B5C5D5E00BFBC
:104D10003B480078401C3A49087000BF00BF30464D
:104D2000FBF75EFA00BF00BF00BF042084F8360026
:104D3000012084F88A002046FEF712FF00BF00BF62
:104D400000BFFBF749FA064600BF00BF2C480078B9
:104D5000401E2B49087000BF00BF3046FBF740FAE9
:104D600000BF00BF00BF44E0052084F836000120EA
:104D700084F88A0000BF00BF3046FBF731FA00BF5D
:104D800000BF36E0062084F83600012084F88A004F
:104D900000BF00BF3046FBF723FA00BF00BF28E08A
:104DA000072084F83600012084F88A0000BF00BF85
:104DB0003046FBF715FA00BF00BF1AE000BF00BF86
:104DC00000BF94F88A00401C84F88A0000BF00BF2E
:104DD0003046FBF705FA00BF00BF0AE000BF00BF86
:104DE0003046FBF7FDF900BF00BF46F62D60288076
:104DF00080E700BFFCF730FF00BF7BE7E00000204A
:104E000088000020002108E0064A02EBC1000022D1
:104E100002608280C2804A1C91B2034A1288914289
:104E2000F2DB7047281E0020781101082DE9F04FB1
:104E30000C4616461D46042E1ED1DFF8A091D9F867
:104E40000090A4EB0909A9F1010313F5803F0DD9E6
:104E50004FF00009C0F84C90C0F85090C0F81C907A
:104E600047F27E29A5F80090BDE8F08FC46403F1F5
:104E70000109C0F850903FE084B3082E25D1D0F846
:104E8000489009EB0407DFF85491D9F80090A7EB9C
:104E90000909A9F10103A34201D2C76406E0DFF8C2
:104EA0003C91D9F80090A144C0F84C90DFF82CA1B7
:104EB000D0F84C90DAF800A0A9EB0A09C0F850909D
:104EC000D0F84C90C0F8489016E0DFF81091D9F86F
:104ED0000090A144C0F84C9004650DE0FFE74FF04E
:104EE0000009C0F84C90C0F85090C0F81C9047F2F0
:104EF0007E29A5F80090B7E7DFF8E4A0BAF800A093
:104F0000D0F84C90B9FBFAFB0AFB1B991FFA89F801
:104F1000DFF8D09009EBC802B2F80490B9F1000FA5
:104F20000BD14FF00009C0F81490C0F81890106031
:104F30004FF00109A2F804903EE0116834E0DFF878
:104F40009CA0D1F84C90DAF800A0A9EB0A09C1F8AE
:104F50005090D0F85090D1F850A0D1450ED9D1F84A
:104F60001490B9F1000F01D049691DE04FF000091C
:104F7000C0F8149081614861002115E0D1F81890C3
:104F8000B9F1000F07D14FF00009C0F81890416146
:104F90008861106007E0D1F818C0C0F818C04161FE
:104FA000CCF81400886100210029C8D1B2F804901F
:104FB00009F10109A2F80490B2F80690B2F804A031
:104FC000D14503DAB2F80490A2F80690C2614FF01E
:104FD0000009A5F8009000BF46E70000C0000020CF
:104FE00078110108281E002010B5C269BAB100244A
:104FF00004651468844205D14169116039B1002407
:105000008C6104E0816943694B6103B199610024BB
:1050100044618461C461C4649488641E948010BD3A
:10502000002006E0054A02EBC0010022CA80421CB3
:1050300090B2034A12889042F4DB7047281E002089
:10504000781101082DE9F05F4FF0000B00BF00BFA1
:1050500000BFFBF7C1F8834600BF00BF714800786E
:10506000401C7049087000BF00BF5846FBF7B8F8F5
:1050700000BF00BF00BFFCF741F905466A48006861
:10508000401C694908600846006868490988B0FB07
:10509000F1F201FB12001FFA80FA654800EBCA0822
:1050A000D8F80040002782E0002C7FD0D4F814907C
:1050B00094F83600082875D2DFE800F00408051BD4
:1050C000063D075000BF00BF00BF6CE05649E06CD2
:1050D0000968401A20655449E06C0968884206D185
:1050E000002084F836002046FFF7C8FA00E00127C8
:1050F00059E04D49E06C0968401A20654A49E06C66
:105100000968884215D10020E065A4F86000FCF72A
:10511000F5F820642046FEF7F6FA2046FFF7AEFACF
:1051200000203434A07003206070002004F834099B
:1051300000E0012737E03C49E06C0968401A20652F
:105140003949E06C0968884206D1042084F83600A9
:105150002046FFF749FF00E0012724E03249E06CD8
:105160000968401A20653049E06C0968884217D107
:105170000020E065A4F86000FCF7C0F82064204639
:10518000FEF7C1FA2046FFF72FFF04203434A07049
:1051900003206070002004F8340902E006E001E01A
:1051A000012700E000BF00BF4C4600E00127002FB0
:1051B0003FF47AAFFCF7A2F8461B1E480068B042E5
:1051C00001D21C48066000BF00BF00BFFBF704F817
:1051D000834600BF00BF13480078401E1149087085
:1051E00008460078A0B914480088002809DD00BFEF
:1051F00000BF5846FAF7F4FF00BF00BFFEF7DEFC21
:105200000DE000BF00BF5846FAF7EAFF00BF06E016
:1052100000BF00BF5846FAF7E3FF00BF00BF00BF62
:10522000BDE8F09F88000020C00000207811010830
:10523000281E0020C40000204C0000201CB500BF28
:105240000EE001AB6A4600210846FDF7E7F8BDF81D
:10525000040028B903480078012801D1FFF7F2FEC5
:10526000EFE700004100002010B58AB0044600209E
:105270001D4908601D490860FFF7C4FD1C4800680F
:1052800020B947F2122020800AB010BD19480068EA
:1052900019490968884203D247F213202080F3E7B6
:1052A000164800783F2803D347F211202080EBE70F
:1052B0000B20002105910A46CDE9070406910D480F
:1052C00000680F4909680A4B1B68CDE90131CDE937
:1052D00003020A48007800230A4A0BA100900F48F5
:1052E000FCF768FE00BFCFE7C0000020C40000202C
:1052F00068110108701101085C11010864110108AE
:105300006C1101083D52000875432F4F532D494938
:1053100049205469636B205461736B009026002010
:1053200070B58AB0044600203149086031480068F1
:1053300040B1314800682F490968B0FBF1F02F49AE
:10534000086006E02C4800680A21B0FBF1F02B4908
:1053500008602A4800682A49086000202949086036
:1053600029490860002508E0284800EBC506002010
:10537000B080F0803060681C85B225480088854286
:10538000F2DB2448006820B947F2473020800AB099
:1053900070BD2148006821490968884203D247F25C
:1053A00048302080F3E71E4800783F2803D347F2B7
:1053B00046302080EBE70B2000210591CDE9070462
:1053C0000691084614490968164A1268114B1B6871
:1053D000CDE90132CDE90310114800780023124ACB
:1053E00012A100901748FCF7E5FD00BFCFE70000D1
:1053F000C80000208411010860110108D8000020B5
:10540000DC000020D4000020D0000020B0200020CC
:105410009811010888110108901101085C11010818
:10542000801101088C1101083D55000875432F4F6C
:10543000532D4949492054696D6572205461736B3D
:105440000000000054270020F0B50C46022680F82A
:105450002A60012C05D12D4F466A3F683E44866183
:105460000CE0066A2EB9294F466A3F683E448661C1
:1054700004E0264F066A3F683E448661244F3F8819
:105480008669B6FBF7FC07FB1C66B5B2214E06EB3E
:10549000C502166836B9002606614661106001260D
:1054A00096802CE0194F86693F68F61BC66111682B
:1054B00020E0164F8E693F68F61BCE61C669CF6942
:1054C000BE4209D90E690EB1096913E000260661D2
:1054D0004161086100210DE04E692EB90026466148
:1054E00001614861106004E04B694361016118612A
:1054F000486100210029DCD19688761C9680D688E8
:105500009788BE4201DA9688D680F0BDD40000208C
:1055100098110108B0200020002006E0054A02EBA7
:10552000C0010022CA80421C90B2034A12889042F5
:10553000F4DB7047B0200020981101081CB500BFB3
:1055400053E001AB6A4600210846FCF767FF01A85B
:10555000FCF7D2FBFBF7D2FE064624480068401C4D
:10556000224908600846006821490988B0FBF1F229
:1055700001FB12001FFA80FA1E4800EBCA08D8F897
:1055800000404FF0000B21E0F4B1D4F8109017491F
:10559000A0690968884214D1204600F02FF8208DB8
:1055A000022804D101212046FFF74EFF02E003202C
:1055B00084F82A00A56815B12046E168A8474C4642
:1055C00004E04FF0010B01E04FF0010BBBF1000FC5
:1055D000DAD0FBF793FE871B01A8FCF7C7FB064850
:1055E0000068B84201D204480760AAE7D40000204E
:1055F00098110108B0200020D0000020F0B5114E15
:1056000036888569B5FBF6F706FB1755ACB20E4D2B
:1056100005EBC4021568854205D10169116039B1F5
:1056200000254D6104E0416903690B6103B15961D3
:10563000012580F82A5000250561456195886D1E79
:105640009580F0BD98110108B020002029B1064ACC
:1056500012680243044B1A6004E0034A1268824352
:10566000014B1A60704700003038024029B1064AE9
:1056700012680243044B1A6004E0034A1268824332
:10568000014B1A60704700003438024029B1064AC5
:1056900012680243044B1A6004E0034A1268824312
:1056A000014B1A607047000044380240F0B50021F9
:1056B00000220024022500260223324F3F6807F013
:1056C0000C0121B1042905D0082937D105E02E4F5E
:1056D000076036E02D4F076033E02A4F3F1F3F68D9
:1056E000C7F38056274F3F1F3F6807F03F036EB157
:1056F000264FB7FBF3F7DFF88CC0ACF1040CDCF8F5
:1057000000C0CCF3881C07FB0CF40CE01E4FB7FB69
:10571000F3F7DFF870C0ACF1040CDCF800C0CCF398
:10572000881C07FB0CF4174F3F1F3F68C7F3014766
:105730007F1C7D00B4FBF5F7076002E0124F0760A5
:1057400000BF00BF0F4F3F6807F0F0010909104F7D
:105750007A5C0768D74047600A4F3F6807F4E0511A
:10576000890A0B4F7A5C4768D7408760054F3F68CE
:1057700007F46041490B064F7A5C4768D740C76021
:10578000F0BD0000083802400024F40000127A0046
:1057900004000020704700000CB50020019000902C
:1057A0003448006840F480303249086000BF314816
:1057B000006800F4003000900198401C01900098AF
:1057C00018B90198B0F5A06FF1D12A48006800F42B
:1057D000003010B10120009001E0002000900098FE
:1057E000012846D123484030006840F080502149CC
:1057F000403108602048006840F480401E4908603D
:105800001C48083000681B490831086008460068D9
:1058100040F4004008600846006840F4A05008606A
:105820001648091F0860081F006840F08070091FB3
:10583000086000BF0F48006800F000700028F9D031
:1058400040F205600E4908600A480830006820F000
:1058500003000849083108600846006840F002006B
:10586000086000BF03480830006800F00C000828FA
:10587000F8D10CBD003802400070004008544007C9
:10588000003C02400448006820B103480068401E04
:1058900001490860704700000000002010B5124860
:1058A000006840F001001049086000200E490831EE
:1058B00008600D4800680D4908400B4908600C4815
:1058C000091D0860081F006820F48020091F086077
:1058D000002005490C310860FFF75EFF4FF00060C3
:1058E0000449086010BD000000380240FFFFF6FECA
:1058F0001030002408ED00E0704701F40072B2F5AA
:10590000007F00D100BFCA430280704721B1828965
:1059100042F40052828104E082894DF6FF731A40FE
:10592000828170472DE9FF4705460E460024A146B7
:1059300000BFA046B08900B100BF2C8A24F44054B7
:10594000F08804432C82AC8941F20C608443B08817
:1059500031890843718908430443AC81AC8A24F43B
:105960004074B0890443AC826846FFF79FFE20482C
:10597000854202D01F48854202D1DDF80C9001E03B
:10598000DDF80890A88900F4004040B109EBC90097
:1059900000EB091031684900B0FBF1F707E009EBB3
:1059A000C90000EB091031688900B0FBF1F76420F1
:1059B000B7FBF0F004012009642101FB1078A889ED
:1059C00000F4004040B1322000EBC800B0FBF1F021
:1059D00000F00700044308E0322000EB08106421C7
:1059E000B0FBF1F000F00F0004432C81BDE8FF870D
:1059F0000010014000140140C1F30802828070478A
:105A000000BFFEE70FB4024610B504A9034B03988C
:105A100001F0FAF810BC5DF814FB0000958F000847
:105A20000FB4054B10B503A9044A029801F0ECF835
:105A300010BC5DF814FB0000958F0008EC000020FE
:105A40000FB4084B10B504A902AA039801F0DCF8C2
:105A5000044602A9002001F06EFC204610BC5DF84F
:105A600014FB00003773000803B40198410000984C
:105A700050EAC12018BF04204A0D18BF40F00100B1
:105A800040F2FF72B2EB515F08BF40F00200012804
:105A900008BF052002B0704700487047F40000209E
:105AA00030B528B1144C031F002021680A4605E0D8
:105AB000084630BD9A4203D810465268002AF9D1F0
:105AC000002800D041680BD00468A3EB0005A54274
:105AD00004D11B681C440346046002E0436000E0FC
