:020000040800F2
:10000000103D002045010008171800086B1100087A
:1000100013180008290F00081B1D0008000000002D
:10002000000000000000000000000000811900082E
:100030002D0F00080000000089180008951A00081C
:100040005F0100085F0100085F0100085F01000810
:100050005F0100085F0100085F0100085F01000800
:100060005F0100085F0100085F0100085F010008F0
:100070005F0100085F0100085F0100085F010008E0
:100080005F0100085F0100085F0100085F010008D0
:100090005F0100085F0100085F0100085F010008C0
:1000A0005F0100085F0100085F0100085F010008B0
:1000B0005F0100085F0100085F0100085F010008A0
:1000C0005F0100085F0100085F0100085F01000890
:1000D0005F010008F91A00085F0100085F010008CD
:1000E0005F0100085F0100085F0100085F01000870
:1000F0005F0100085F0100085F0100085F01000860
:100100005F0100085F0100085F0100085F0100084F
:100110005F0100085F0100085F0100085F0100083F
:100120005F0100085F0100085F0100085F0100082F
:10013000DFF80CD000F01EFD0048004759BE000853
:10014000103D00200648804706480047FEE7FEE7CE
:10015000FEE7FEE7FEE7FEE7FEE7FEE7FEE7FEE777
:10016000991A0008310100082DE9F0410024061B0E
:10017000254671F1000605DA01240027D0EB0700BF
:1001800067EB0101161E73F1000605DA0027D2EBBA
:100190000702012567EB030300F003FB86460E46CA
:1001A00017469C46AC4204D00025D0EB050E65EB0B
:1001B000010624B10020D2EB000760EB030C70466F
:1001C00031463A466346BDE8F081202A04DB203AF6
:1001D00000FA02F1002070479140C2F1200320FA9A
:1001E00003F3194390407047202A04DB203A21FA98
:1001F00002F00021704721FA02F3D040C2F1200240
:10020000914008431946704700487047F4FB0008C6
:1002100010B50446FFF7F8FF0068005D00F001002C
:1002200010BD00000048704700FC000840EA0103D0
:100230009B0703D009E008C9121F08C0042AFAD29C
:1002400003E011F8013B00F8013B521EF9D2704760
:10025000CAB2401E10F8011F8A4202D00029F9D10B
:1002600000207047421C10F8011B0029FBD1801AA6
:10027000704710B5002200E0521C835C8C5CA342E6
:1002800001D1002BF8D1D8B2E1B2401A10BD30B57F
:1002900004460020034600E05B1C934203D2E05C6E
:1002A000CD5C401BF8D030BDFFF7E3BF034611F82B
:1002B000012B00F8012B002AF9D11846704730B500
:1002C00003461D783DB10A4612F8014B1CB1AC4201
:1002D000FAD15B1CF5E7181A30BD10B508E00A46E4
:1002E00002E0A34208D0521C1378002BF9D1401C25
:1002F0000478002CF3D1002010BD2DE9FE4F80467C
:1003000081EA0300C00F0C46009021F0004123F069
:100310000045B8EB0200A94105D24046214690466F
:100320001C460B46024623F00040104347D0270DE1
:10033000C7F30A00C3F30A510290401A0190402803
:100340006BDAC3F3130040F4801B0098924620B18F
:100350000023D2EB030A63EB0B0B01985946C0F163
:1003600040025046FFF731FF06460D4650465946BB
:10037000019A00F047FA10EB08006141002487EA77
:10038000115284EAE7731A4340D0009A62B3019A8B
:10039000012A4FEA075215DC001B61EB02014FF006
:1003A000004202EA0752CDE90042001C41F58011EB
:1003B00032462B4600F0CCFA03B0BDE8F08F404641
:1003C0002146F9E7001B61EB0201001C41F5801397
:1003D00000185B412018A2F5001747EB030140EA23
:1003E000D570B6196D4111E06D084FEA360645EA41
:1003F000C0754FEA0752001B61EB0201001C41F57A
:10040000801149084FEA30000019514132462B460D
:1004100003B0BDE8F04F00F08CBA00980122400014
:100420000023D0EB020263EBE073009821464FEA11
:10043000E074B8EB000061EB0401E9E783F00043EE
:100440005BE781F0004158E72DE9FE4F81EA0304A4
:1004500004F0004421F0004100944FF0000B23F021
:10046000004350EA01045ED052EA03045BD0C3F3B8
:100470000A54C1F30A552C44A4F2F3340194A0FBAE
:100480000254C1F3130141F48011C3F3130343F485
:10049000801301FB024400FB034E840A970A44EADE
:1004A000815447EA8357A4FB076802958D0A05FB30
:1004B00007854FEA932C04FB0C542705029D4FEA55
:1004C000065847EA1637B5EB08056EEB070C870EA2
:1004D000920E47EA811742EA8312A7FB0201B6EBAC
:1004E0000B0164EB00042B0D43EA0C335E1844EB64
:1004F0001C50DA465146E7FB0201C5F313044FEAEC
:100500000B3343EA14534FEA0432019C43EA0603D7
:10051000A4F10C040294009CCDE900B400F018FA98
:1005200003B0BDE8F08F00200146F9E72DE9F04D5A
:1005300081EA030404F0004B21F0004514464FF01B
:10054000000A23F0004150EA050220D054EA0102DB
:100550001DD0C5F30A570246C5F31303C1F31300B8
:10056000C1F30A5640F4801543F48013A7EB060844
:10057000101BD64608F2FD3873EB050002D308F1D4
:10058000010801E092185B41B8F1000F03DA002086
:100590000146BDE8F08D00204FF4801106468446E8
:1005A0000EE0171B73EB050705D3121B63EB050366
:1005B00006434CEA010C49084FEA300092185B41AF
:1005C00050EA0107EDD152EA030012D082EA04009A
:1005D00083EA0501084305D0101BAB4106D2012276
:1005E000002306E000224FF0004302E06FF001021A
:1005F00053101AEB06004CEB085110EB0A0041EBCC
:100600000B01BDE8F04D00F094B90EB5C10F80EAC2
:10061000E0700844CA07002140F233438DE80E0021
:100620000A460B4600F094F903B000BD3EB5CA1768
:10063000CB0F002450405140C0186141DA0740F20E
:1006400033430094CDE901232246234600F080F98C
:1006500003B030BD70B5C1F30A5201F0004500246B
:10066000C1F3130140F2FF3341F480119A4202DAE0
:100670000020014670BD40F233439A42A2F2334259
:1006800003DC5242FFF7B0FD01E0FFF79EFD2C4373
:10069000F0D00023D0EB030063EB010170BD00003C
:1006A00030B5041E71F1000404DB4FF000444042F9
:1006B00064EB0101141E73F1000405DB1C464FF0CE
:1006C0000043524263EB04038B4208BF824230BDB9
:1006D00030B5041E71F1000404DB4FF000444042C9
:1006E00064EB0101141E73F1000405DB1C464FF09E
:1006F0000043524263EB0403994208BF904230BD6D
:1007000001F0004330B421F0004150EA010206D06C
:100710000A0DA2F56072C1F31301002A02DC30BC9D
:1007200000207047440F44EAC104C100E01830BC07
:1007300000EBC25000F0C6B8A0E8004FF0C040F88F
:1007400004DB01B5AFF30080BDE8024001C1002029
:10075000704700F12C080C4658F8040DAFF30080E8
:1007600058F8040D8546200008BF012038E9F00044
:1007700018E9004F704730B50B4601460020202293
:10078000012409E021FA02F59D4205D303FA02F59E
:10079000491B04FA02F52844151EA2F10102F1DCFE
:1007A00030BD2DE9F05F0546002092469B46884605
:1007B0000646814640241BE02846414647462246DD
:1007C000FFF712FD53465A46C01A914110D3114605
:1007D00018462246FFF7F9FC2D1A67EB01084F4631
:1007E000224601200021FFF7F0FC17EB00094E41E3
:1007F000201EA4F10104DFDC484631462A46434668
:10080000BDE8F09F202A06DBCB17203A41FA02F020
:1008100043EAE07306E041FA02F3D040C2F120025D
:1008200091400843194670470FB4002300B589B0C2
:100830000CA900910B996FF00042CB601E4B069300
:100840001E4B07930423CDE901321D4A089202464C
:100850006B46002000F020FA09B05DF814FB70B57B
:1008600086B006464FF0FF300091CDE9010100202F
:1008700015460C4604903246694604A8FFF7D4FF9B
:1008800003460498211825B108B10A4600E0224623
:100890002A6000280DD0002B02DD0098884208D085
:1008A000081B0094CDE901043246694604A8FFF70D
:1008B000BBFF06B070BD0000D10E0008EF0E0008AF
:1008C000110200080029A8BF7047401C490008BF5A
:1008D00020F00100704710B4B0FA80FC00FA0CF070
:1008E00050EA010404BF10BC704749B1CCF12004A8
:1008F00021FA04F411FA0CF118BF01212143084335
:10090000A3EB0C01CB1D4FEA00614FEA102042BF60
:10091000002010BC704700EBC35010440029A4BF56
:1009200010BC7047401C490008BF20F0010010BCFB
:10093000704710B5141E73F1000408DA401C41F131
:10094000000192185B411A4301D120F0010010BD53
:100950002DE9F04D92469B4611B1B1FA81F202E0C9
:10096000B0FA80F220329046FFF72FFC04460F4683
:1009700040EA0A0041EA0B0153465A46084313D0A5
:10098000114653EA010019D0C8F140025046FFF762
:100990002BFC05460E46504659464246FFF715FCCD
:1009A000084305D0012004E020463946BDE8F08D1B
:1009B0000020054346EAE0762C4337430A98630556
:1009C000E40AA0EB08000022FD0A44EA47540A307A
:1009D00002D500200146E9E7010510196941DDE96A
:1009E000084500196941BDE8F04DA2E770B521F056
:1009F000004303430CD0C1F30A550024D5EB040592
:100A000064EB0403D617AD1AB34102DB00200146A4
:100A100070BD201841EB025170BD2DE9F04D00234F
:100A20001A461B1A8A4103DB00200146BDE8F08DFF
:100A3000C1F30A52C1F3130141F480154FF0000BCA
:100A4000D10702D100186D41521E0027044640F222
:100A5000FF11384601EB620A3E46804602460020FE
:100A60004FF48011FFF7C0FBC2197141BB1846EB70
:100A70000100B4EB030C75EB000C04D3E41A65EB36
:100A8000000517460E46241908F101006D41804605
:100A90003428E3DDF91946EB0600091BA84103D20F
:100AA0004FF0FF32134601E0002213461BEB070014
:100AB00046EB0A51BDE8F04DFFF73BBF2DE9FE4F75
:100AC000C3F30A5701F000450024C1F30A56C3F3EB
:100AD0001303C1F3130143F4801312EB020AA64679
:100AE00041F48011009543EB030CA7F1010B16E0D4
:100AF000B0EB0A0061EB0C01071E71F1000707DA89
:100B00004FF00008D0EB080085F0004568EB0101CC
:100B1000171A73EB0107EBD3761E001849415E45A7
:100B2000F6DA50EA010209D0CDE900E500221346C9
:100B30000296FFF70DFF03B0BDE8F08F2046009945
:100B4000F9E7C1F30A52C1F3130140F2FF3341F454
:100B500080119A4202DA00200146704740F2334386
:100B60009A42A2F2334202DC5242FFF73DBBFFF74A
:100B70002CBB0000064C074D06E0E06840F0010386
:100B800094E8070098471034AC42F6D3FFF7D4FA44
:100B900088FF0008A8FF00082DE9FF4F087881B002
:100BA0009946FF2805D0491C2D2804D00024002395
:100BB00008E000230BE00124F9E703EB830300EBDB
:100BC0004303491C0878FF28F7D104B15B42002099
:100BD0000090147801462D2C01D02B2C04D1521CEE
:100BE0002D2C12D00024009400251678FF2E0ED054
:100BF0000A24A0FB04C801FB0481002700FB0711A5
:100C0000521C16EB0C006941EFE70124EBE7994415
:100C100050EA01020ED00024AA4D2646DFF8A88231
:100C200000F076F982468B46B9F1000009DAC9F185
:100C300000071BE001980021C0E9001105B0BDE8E4
:100C4000F08F074612E0F80707D022462B463046C1
:100C50004146FFF7F9FB0646884622462B461046DA
:100C60001946FFF7F1FB04460D467F10002FEAD12D
:100C7000B9F1000F324643465046594602DAFFF7B3
:100C800055FC01E0FFF7E0FB009A0AB181F000415A
:100C9000019AC2E90001D1E72DE9FF4F1F468DB04F
:100CA000D7E901464FF0FF382E2045464FF00009A6
:100CB0000B90B9696D1C0E988847396A824688473F
:100CC0000028F6D1BAF1FF3F0AD024F4D064002EF8
:100CD00011DDBAF12B0F08D0BAF12D0F0BD102E0C4
:100CE000404611B0ABE744F48064B9696D1C0E98BE
:100CF00088478246761E6946600501D52D2000E0B2
:100D00002B208DF8000001F1010B0DF1200809E006
:100D1000B9696D1C0E98884782460F9844F4007498
:100D2000761E0560002E02DDBAF1300FF0D00B996F
:100D30008A453ED144F0800406E00F99681CA9F171
:100D4000010944F400740860B9696D1C761E0E98A0
:100D5000884782463028F0D02BE00B998A4505D190
:100D6000200603D444F08004761E18E0504601F0BB
:100D7000A1F908B30DF11301761E44F400748B45FC
:100D800008D2AAF130000BF8010B200607D5A9F113
:100D9000010003E0200602D409F101008146A0050C
:100DA00002D50F99681C0860B9696D1C0E988847B8
:100DB0008246002ED1DC53E0002E51DDBAF1650FE2
:100DC00002D0BAF1450F4BD1A00549D5B9696D1CC8
:100DD00024F44074761E0E9888478246002E0CDD5F
:100DE0002B2804D0BAF12D0F07D144F48074B969CF
:100DF0006D1C0E9888478246761EE00501D52D2190
:100E000000E02B2108F8011BCDF82C8021E00DF12A
:100E10002901761E44F4007488450CD2AAF13000F2
:100E200010F0FF0088F8000002D10B99884509D91D
:100E300008F1010806E0E00501D5244801E042F28E
:100E40000F708146B9696D1C0E98884782460F98CD
:100E50000560002E04DD504601F02CF90028D6D1A3
:100E6000F9690E988847FF208BF8000088F8000089
:100E70000020069007904B466A4608A906A8FFF78F
:100E80008BFEA00502D46FF001002AE714F0240FB6
:100E90000AD0E00714D1DDE906123868031D3B6073
:100EA0000068C0E900120BE0DDE90601FFF728FC4D
:100EB0000146E00704D13868021D3A60006801600D
:100EC00028460EE7000024400000F03FF1D8FFFF65
:100ED000426842B1016811F8013B23B1521EC0E9DA
:100EE0000012184670470121C160881E7047426891
:100EF0005AB1C368016843B983688B4205D0491E63
:100F0000521CC0E90012002070474FF0FF307047BC
:100F10000EB540F2334202920022CDE90022134680
:100F2000FFF716FD03B000BD00BFFEE770470000ED
:100F30002DE9F04F87B004468846256902AF284660
:100F40000EF0AAF98146C7F8009099F8040040F025
:100F50004000B860022202A9204607F0FDFD0646C7
:100F6000002E59D0307A00F00F00062854D194F8A2
:100F700074A095F83F90002084F8740085F83F0035
:100F8000E06896E80E1080E80E10E16801F11000AC
:100F900002A991E80E1080E80E10E0682030E060B1
:100FA0006069408C40F48070616948840020009042
:100FB000E0682038216A431A00221949204605F0CA
:100FC000AAFA07466069408C20F480706169488401
:100FD00084F874A085F83F90EFB1B8F1000F1AD0F3
:100FE000022F14D1E06810F8080C00F00F0004285C
:100FF00004D1E06850F8100C103000E009A08346DE
:101000005A460BA1204607F0F8F9052700BF3946DC
:10101000204605F08DFC00BF07B0BDE8F08F000052
:10102000DB3D00086E6F206D6573736167650000BE
:101030006572726F7220696E205F5F6763206D65F5
:1010400074616D6574686F64202825732900000041
:101050002DE9F0410246002500260020002300244F
:10106000002791F803C00CF00F0591F803C00CF0B5
:10107000100CBCF1000F03D091F802C04CEA05053A
:1010800091F800C0BCF1000F31D0146800202BE0B3
:101090004FF0010C0CFA00F3B1F800C00CEA0306A3
:1010A0009E4220D183004FF00F0C0CFA03F7BC4393
:1010B00005FA03FC4CEA040491F803C0BCF1280FC4
:1010C00006D14FF0010C0CFA00FCC2F814C00AE083
:1010D00091F803C0BCF1480F05D14FF0010C0CFA98
:1010E00000FCC2F810C0401C0828D1D31460B1F82D
:1010F00000C0BCF1FF0F34DD546800202EE000F189
:10110000080C4FF0010808FA0CF3B1F800C00CEA23
:1011100003069E4221D183004FF00F0C0CFA03F717
:10112000BC4305FA03FC4CEA040491F803C0BCF18B
:10113000280F05D100F1080C08FA0CF8C2F8148049
:1011400091F803C0BCF1480F07D100F1080C4FF033
:10115000010808FA0CF8C2F81080401C0828CED309
:101160005460BDE8F0810161704700BFFEE70000F8
:1011700008B50121482000F089FB2020ADF80000CF
:1011800010208DF8030003208DF8020069460948FD
:10119000FFF75EFF20210748FFF7E5FF2020ADF8AD
:1011A000000069460448FFF753FF20210248FFF77B
:1011B000DAFF08BD000C0140001801402DE9F0479E
:1011C00004460D4616461F461A48211E75EB0000C0
:1011D00004DB4FF400106142A8411DDA0022164BD7
:1011E00030463946FFF774FA02D80120BDE8F0878F
:1011F0000022124B30463946FFF76AFA0AD83046C9
:101200003946FFF727FA001BA94101DB0120EDE772
:101210000020EBE70020E9E720462946FFF706FA21
:10122000804632463B46FFF73BFA01D80120DDE716
:101230000020DBE70000E0FF0000E0430000E0C327
:101240002DE9F04781460C46D9F80800132816D13D
:10125000D9E90056A068132809D1D4E90010491B28
:10126000B04102DB0120BDE8F0870020FBE7D4E9B4
:1012700000733A4628463146FFF7A0FFF3E7D9E965
:101280000056A06803280BD1D4E900733A462846DB
:101290003146FFF705FA01D80120E4E70020E2E734
:1012A0002A46334628463146FFF7FAF901D0002096
:1012B000D9E72A463346D4E90071384600F006F8EB
:1012C00008B90120CFE70020CDE700002DE9F04765
:1012D00004460D4616461F461B48211E75EB0000AE
:1012E00004DB4FF400106142A8411EDA0022174BC4
:1012F00030463946FFF7ECF902D80120BDE8F08707
:101300000022134B30463946FFF7E2F90BD2304644
:101310003946FFF79FF9201A75EB010001DA012029
:10132000ECE70020EAE70020E8E720462946FFF73F
:101330007DF9804632463B46FFF7B2F901D20120E3
:10134000DCE70020DAE700000000E0FF0000E043F7
:101350000000E0C32DE9F04781460C46D9F80800AB
:10136000132817D1D9E90056A06813280AD1D4E967
:101370000010691A76EB000002DA0120BDE8F08760
:101380000020FBE7D4E900733A4628463146FFF7D0
:101390009DFFF3E7D9E90056A06803280BD1D4E9F3
:1013A00000733A4628463146FFF77AF901D2012008
:1013B000E4E70020E2E72A46334628463146FFF7B5
:1013C0006FF901D00020D9E72A463346D4E90071ED
:1013D0003846FFF7F3FE08B90120CFE70020CDE73C
:1013E00070B504460D4616463246294660680AF036
:1013F00051FB18B102A1204602F030FD70BD000083
:101400007472756E636174656400000038B50446DB
:10141000012269462046FFF7E3FF9DF8000038BD32
:1014200070B506460C46304600F038F90546681C93
:10143000B0F1804F03D3306806F03CFE00E000BFFF
:10144000AB0000221146306806F002FE20636561A1
:10145000AA003046216BFFF7C3FF70BD2DE9F05F96
:1014600080460E46404600F019F90746781CB0F158
:10147000805F04D3D8F8000006F01CFE00E000BF37
:101480003B0100221146D8F8000006F0E1FDF062B1
:101490003761002505E00020F16A01EB0511886045
:1014A0006D1CBD42F7DB00254EE0F06A00EB051431
:1014B0004046FFF7ABFF8346BBF1040F32D009DC97
:1014C000BBF1000F0DD0BBF1010F0DD0BBF1030F2D
:1014D00037D113E0BBF1130F1AD0BBF1140F30D189
:1014E00021E00020A0602DE0A1464046FFF78EFFDE
:1014F000C9F800000120C9F8080023E0A1464046D1
:1015000000F0DFF8C9E900010320C9F8080019E07C
:10151000A146404600F0CBF8C9E900011320C9F804
:1015200008000FE000BFA146404600F00AF98246DD
:10153000C9F800A09AF8040040F04000C9F808007B
:1015400000E000BF00BF6D1CBD42AEDBBDE8F09FF8
:101550002DE9F04107460D46384600F09FF8064653
:10156000701CB0F1804F03D3386806F0A3FD00E093
:1015700000BFB30000221146386806F069FDA86379
:10158000AE61B2003846A96BFFF72AFF384600F07B
:1015900085F80646701C2649884203D9386806F04B
:1015A00089FD00E000BF06EB46018B0000221146DA
:1015B000386806F04DFDE8632E62002406E0002046
:1015C00004EB4402E96B41F82200641CB442F6DBF0
:1015D00000241AE0384600F0B4F804EB4402E96B4A
:1015E00041F82200384600F059F804EB4402E96B58
:1015F00001EB82014860384600F050F804EB4402E9
:10160000E96B01EB82018860641CB442E2DB38467E
:1016100000F044F80646002406E0384600F091F851
:10162000296C41F83400641CB442F6DBBDE8F0815B
:101630005555551570B506460C461546304600F012
:1016400080F8A064A06C00B9A564304600F026F8CC
:101650006062304600F022F8A0623046FFF7D6FE06
:10166000A0713046FFF7D2FEE0713046FFF7CEFEA4
:10167000207221463046FFF7D3FE21463046FFF761
:10168000EDFE2146304600F08DF82146304600F050
:1016900022F821463046FFF75BFF70BD38B504469F
:1016A000042269462046FFF79BFE009838BD1CB512
:1016B0000446082269462046FFF792FEDDE9000154
:1016C0001CBD1CB50446082269462046FFF788FE6B
:1016D000DDE900011CBD2DE9F04107460D46384605
:1016E000FFF7DCFF0646701CB0F1804F03D338686B
:1016F00006F0E0FC00E000BFB300002211463868AD
:1017000006F0A6FC6863EE61002404E00020696B2B
:1017100041F82400641CB442F8DB00240DE0386872
:1017200005F0AFFA696B41F82400686B50F824109B
:101730003846AA6CFFF77EFF641CB442EFDBBDE8BD
:10174000F08130B58BB004462046FFF75FFE0A906B
:101750000A98FF2804D104220AA92046FFF740FE78
:101760000A9810B900200BB030BD0A98401E0A90AC
:1017700028280AD8694620460A9AFFF731FE2068D1
:1017800069460A9A07F0ADF8EDE720680A9906F075
:10179000FBFF054605F1100120460A9AFFF720FEDF
:1017A0002846E0E72DE9F04107460D463846FFF7A9
:1017B00075FF0646701CB0F1005F03D3386806F071
:1017C00079FC00E000BFF30000221146386806F003
:1017D0003FFC2864EE60002404E00020296C41F8FE
:1017E0003400641CB442F8DB00240EE03846FFF7F6
:1017F0000DFE296C01EBC40108713846FFF706FEA7
:10180000296C01EBC4014871641CB442EEDBBDE8F5
:10181000F08100BFFEE7704770B5002100230F2262
:10182000C47804B3154C246804F4E064C4F5E0649F
:10183000210AC1F10403CA40447804FA03F1847810
:101840001440214309010E4C0678A155047804F098
:101850001F050124AC4005786D11AD0005F1E025B0
:10186000C5F8004109E0047804F01F050124AC40EC
:10187000044D0678761145F8264070BD0CED00E069
:1018800000E400E080E100E07047000029B1064A72
:1018900092690243044B9A6104E0034A92698243CD
:1018A000014B9A61704700000010024030B50021E2
:1018B0000022002400232D4D6D6805F00C0121B19C
:1018C000042905D0082923D105E0294D056022E02F
:1018D000274D05601FE0254D6D6805F47012234DFE
:1018E0006D6805F48034022505EB92421CB9214D48
:1018F000554305600BE01D4D6D6805F400351DB1C5
:101900001C4D5543056002E0194D5543056002E04A
:10191000174D056000BF00BF144D6D6805F0F00164
:101920000909154D6B5C0568DD4045600F4D6D681C
:1019300005F4E061090A104D6B5C4568DD40856087
:101940000A4D6D6805F46051C90A0B4D6B5C456822
:10195000DD40C560054D6D6805F44041890B074DBC
:101960006B5CC568B5FBF3F5056130BD0010024046
:1019700000127A0000093D001E0000202E00002009
:10198000704710B500F002F810BD00000CB5002043
:10199000019000903348006840F48030314908607D
:1019A00000BF3048006800F4003000900198401CEF
:1019B0000190009818B90198B0F5A06FF1D12948AD
:1019C000006800F4003010B10120009001E0002018
:1019D00000900098012843D12348006840F010008F
:1019E000214908600846006820F0030008600846A6
:1019F000006840F0020008601A48406819494860D1
:101A00000846406848600846406840F48060486086
:101A10000846406820F47C1048600846406840F45E
:101A2000E81048600846006840F08070086000BF19
:101A30000C48006800F000700028F9D009484068A0
:101A400020F00300074948600846406840F0020063
:101A5000486000BF0348406800F00C000828F9D136
:101A60000CBD00000010024000200240042808D1F4
:101A70004FF0E021096941F004014FF0E0221161CB
:101A800007E04FF0E021096921F004014FF0E02266
:101A9000116170477047000010B51348006840F0AE
:101AA00001001149086008464068104908400E4985
:101AB0004860084600680E4908400B49086008461F
:101AC000006820F4802008600846406820F4FE008A
:101AD00048604FF41F008860FFF753FF4FF000602D
:101AE0000449086010BD0000001002400000FFF82B
:101AF000FFFFF6FE08ED00E010B540F225511D484D
:101B000000F04AF810B31B4800F002F9C4B21A48BA
:101B1000008800F40040C8B91748008800F48040ED
:101B200060B10A2C03D000201349088020E012483D
:101B3000008840F400401049088019E00D2C06D1BF
:101B40000D48008840F480400B49088010E00A48A6
:101B50000088C0F30D0009490C5407480088401C58
:101B60000549088008460088C72801DD0020088054
:101B700010BD0000003801401C000020440000207F
:101B800021B1828942F40052828104E082894DF6BB
:101B9000FF731A408281704770B50246002400230B
:101BA0000025002040F66A16B14200D100BFC1F303
:101BB000421501F01F03012606FA03F3012D02D19D
:101BC0009689334006E0022D02D1168A334001E0A7
:101BD000968A33400C12012606FA04F41688344023
:101BE00013B10CB1012000E0002070BDF0B5034638
:101BF000002400260025002040F66A17B94200D1D3
:101C000000BF1846C1F3421401F01F06012707FA6E
:101C100006F5012C01D10C3004E0022C01D110306A
:101C200000E014301AB107682F43076002E007682C
:101C3000AF430760F0BD00002DE9F04786B00546D0
:101C40000E460024A24600BFA1460027B08900B17D
:101C500000BF2F462C8A4CF6FF700440F0880443E6
:101C60002C82AC894EF6F3100440B08831890843C9
:101C7000718908430443AC81AC8A4FF6FF400440AD
:101C8000B0890443AC8201A8FFF710FE1F488742C9
:101C900002D1DDF810A001E0DDF80CA0A88900F465
:101CA000004040B10AEBCA0000EB0A10316849005D
:101CB000B0FBF1F807E00AEBCA0000EB0A1031684C
:101CC0008900B0FBF1F86420B8FBF0F004012009B2
:101CD000642101FB1089A88900F4004040B1322042
:101CE00000EBC900B0FBF1F000F00700044308E08E
:101CF000322000EB09106421B0FBF1F000F00F007E
:101D000004432C8106B0BDE8F08700000038014094
:101D100001468888C0F30800704700BFFEE7000056
:101D20000FB4024610B504A9034B039800F0CAF99A
:101D300010BC5DF814FB0000B94900080FB41CB5D5
:101D40000A46521ECDE9000207A9054B6A460698CD
:101D500000F0B8F9009A002111701CBC5DF814FB6A
:101D6000F3270008490050EAC12018BF04204A0D9B
:101D700018BF40F0010040F2FF72B2EB515F08BFA4
:101D800040F00200012808BF0520704730B528B197
:101D9000144C031F002021680A4605E0084630BDA8
:101DA0009A4203D810465268002AF9D1002800D080
:101DB00041680BD00468A3EB0005A54204D11B6861
:101DC0001C440346046002E0436000E023603AB133
:101DD0001C68D51AA54203D115682C441C605268B2
:101DE0005A6030BD3C0000202DE9F0414F1E00EB51
:101DF000C7010446D1E9000115461E4637F0060228
:101E00000DD02A463346FEF71FFB7F1E04EBC703A7
:101E1000D3E90023FEF771FA37F00602F1D1022F61
:101E200025D0042F13D0062F18BFBDE8F0812A4615
:101E30003346FEF709FBD4E90A23FEF75EFA2A4689
:101E40003346FEF701FBD4E90823FEF756FA2A468B
:101E50003346FEF7F9FAD4E90623FEF74EFA2A468E
:101E60003346FEF7F1FAD4E90423FEF746FA2A4690
:101E70003346FEF7E9FAD4E90223FEF73EFA2A4692
:101E80003346FEF7E1FAD4E90023BDE8F041FEF75E
:101E900034BA00002DE9F04782460F4C10480D4E31
:101EA0000E4F001B4FF0000820F007054FF001090E
:101EB00000221146504603F009FB002802D1306889
:101EC00010B10020BDE8F0873C60C4E90058C6F8B6
:101ED0000090EDE740000020140100203C000020AD
:101EE000102D00200022134610460149FEF71EBBAC
:101EF0000000F03FFEF701BA0022134610461146DB
:101F0000FEF714BB40F2013200204FF0E041FEF733
:101F10006DBD0000024A00201107FEF767BD0000FA
:101F200001FDFFFF02E008C8121F08C1002AFAD114
:101F300070477047002001E001C1121F002AFBD149
:101F40007047000001490860704700003800002019
:101F50002DE9FF5FDDE90220010DDDF838B0024315
:101F600018D044F61050A1F2FF3141430D140F98E0
:101F7000012820D0A5EB0B00401C5FEA000A4FF0BF
:101F80000004474EDFF81C91A046504616D5CAF112
:101F9000000728E00F98012443A2012808D000215F
:101FA00000980F9BC0E90021C0E90243BDE8FF9FF4
:101FB0006FEA0B01F4E7CBF10000DEE7074612E021
:101FC000F80707D02246334640464946FEF73CFA1A
:101FD000804689462246334610461946FEF734FAB3
:101FE00004460E467F10002FEAD1DDE90201BAF166
:101FF000000F42464B4602DAFEF726FA01E0FEF7F2
:1020000095FA04460E460022284BFEF761FB03D8E2
:102010004FF0FF30014607E00022254B20463146B5
:10202000FEF76BF9FEF78DFD102409E0002C0ADBAA
:102030000A220023FEF7B5FB019B30321A55641EBD
:1020400050EA0102F2D1641C019AC4F11103144454
:102050000F9A012A03D0012208430DD10AE0084358
:1020600004D000204FF0110B0F9080E7A3EB0B057D
:102070006D1E0DE05B4504DD4FF0000205F101052A
:1020800004E003DA4FF00002A5F10105002AECD0CC
:1020900000980F99C0E90231C0E9004586E70000C9
:1020A000000024400000F03F300000000000F0433A
:1020B0000000E03F30380A2801D20120704700209C
:1020C000704700002DE9FF4F95B09B4689460646B4
:1020D00000250FE2252877D100242746F84A012160
:1020E000059400E0044316F8013F203B01FA03F099
:1020F0001042F7D130782A2811D06FF02F033078B2
:10210000A0F13002092A16D8059A44F0020402EB25
:10211000820203EB42021044761C0590EFE759F867
:10212000042B0592002A03DA504244F4005405902F
:1021300044F00204761C30782E2816D116F8010FD0
:1021400044F004042A280DD06FF02F023078A0F15B
:102150003003092B09D807EB870302EB4303C718A9
:10216000761CF3E759F8047B761C30786C280FD086
:1021700006DC4C2817D068280DD06A2814D104E05A
:10218000742810D07A280FD10DE044F400140AE02E
:1021900044F4801401E044F440147278824202D185
:1021A00004F58014761C761C307866280BD013DC7E
:1021B000582877D009DC002875D04528F6D0462865
:1021C000F4D047281AD19DE118E0632835D064285F
:1021D00079D0652812D195E1702873D008DC672882
:1021E000F1D069286FD06E280DD06F2806D1B5E0E8
:1021F00073282CD0752875D0782874D05A46179932
:1022000090476D1C75E1C4F30250022809D00328E1
:102210000DD0D9F8001004280DD00D6009F1040983
:1022200067E1D9F80010EA17C1E90052F6E7D9F8DA
:1022300000100D80F2E70D70F0E719F8041B8DF81F
:10224000001000208DF80100EA46012003E059F853
:1022500004AB4FF0FF3061074FF0000102D40DE0F6
:1022600008F101018846B9420FDA8045F8DB1AF817
:1022700008100029F4D108E008F1010188468142E4
:10228000FADB1AF808100029F6D105985B46A0EB96
:10229000080721463846179A00F094FA284400EBC4
:1022A000080507E04DE029E10DE01AF8010B5A4658
:1022B00017999047B8F10108F7D25B462146384696
:1022C000179A13E142E00A220092C4F302524FF03F
:1022D000000A022A08D059F804CB032A4FEAEC710D
:1022E0000AD00DE029E02AE009F1070121F00702F8
:1022F000F2E802C1914609E00FFA8CFC4FEAEC715A
:10230000042A03D14FFA8CFC4FEAEC71002907DA5A
:102310000A460021DCF1000C61EB02012D2202E0F3
:10232000220504D52B228DF80420012203E0E207C8
:1023300001D02022F7E7904659E00A2102E010225E
:102340000DE010214FF0000A00910BE010224FF039
:10235000000A44F004040827009203E008224FF02A
:10236000000A0092C4F30252022A05D059F804CBA5
:102370000021032A08D009E009F1070121F0070232
:10238000F2E802C1914605E01FFA8CFC042A01D153
:102390000CF0FF0C4FF00008220728D5702806D05B
:1023A000009B83F0100353EA0A0305D00EE040229D
:1023B0008DF80420012208E05CEA010206D03022F8
:1023C0008DF804208DF8050002229046009B83F0D2
:1023D000080353EA0A030AD15CEA010201D1620749
:1023E00005D530228DF804204FF001087F1E5828B3
:1023F00004D034A003900EA802900DE036A0F9E7B7
:1024000053466046009AFEF7CCF984460398825CF6
:102410000298401E029002705CEA0100F0D102981E
:1024200006A9081A00F1200A600702D524F48034B6
:1024300000E00127574502DDA7EB0A0000E000207D
:1024400000EB0A01009005984144401A0590E00312
:1024500006D45B462146179A059800F0B3F9054467
:10246000002706E001A85A46C05D179990476D1CE9
:102470007F1C4745F6DBE0030CD55B462146179AE7
:10248000059800F09FF9054404E030205A4617995A
:1024900090476D1C0099481E00900029F5DC08E06B
:1024A000029802995A460078491C02911799904760
:1024B0006D1CBAF10001AAF1010AF1DC65E100002E
:1024C000092801003031323334353637383961620A
:1024D00063646566000000003031323334353637CE
:1024E00038394142434445460000000000F058F9A5
:1024F0000544761C307800287FF4ECAD19B02846EE
:10250000BDE8F08F620700D4062709F1070222F028
:10251000070CFCE80223E14603F000485FEA080CE0
:1025200002D00FF2702C0DE05FEA045C02D50FF2CE
:10253000682C07E05FEAC47C02D00FF2602C01E057
:10254000AFF2700C4FF0FF3823F00043CDF850C0CD
:1025500065280CD006DC452809D046281DD0472820
:102560003DD13DE0662818D067287ED138E00021B3
:10257000112F01DB112000E0781CCDE9000106A934
:102580000EA8FFF7E5FCDDE90F010E9A039100218B
:10259000009207F1010A04914DE04FF000400097CE
:1025A000CDE9011006A90EA8FFF7D2FCDDE90F0264
:1025B00003920E9B11990022DDF80CA00093049267
:1025C00011B9791C00EB010AB7EB0A0004D4C0F181
:1025D000FF3007F1010A0490AAEB0700019044E0E4
:1025E000012F00DA01270021112F01DD112000E069
:1025F0003846CDE9000106A90EA8FFF7A9FCDDE9E0
:102600000F010E9A0391002104910092BA4621070E
:102610000CD40399514500DA8A46BAF1010F05DD61
:10262000009AAAF10101515C302908D0B84202DABF
:1026300010F1040F06DA0121CDE9011015E0AAF12D
:102640000101E9E7002805DC049901440491AAEBA3
:10265000000102E0411C514500DD8A460499401A00
:10266000401C01904FF000400290200704D40198D4
:10267000504501DBCDF8048000208DF84F00029812
:102680000DF14F07B0F1004F25D02B200E9002988E
:102690004FF0020800280CDA404202902D200E90E4
:1026A00007E00A210298FEF766F83031029007F839
:1026B000011DB8F10001A8F10108F2DC0298002820
:1026C000EFD1791E0E980870307800F0200040F0AD
:1026D000450007F8020D12A8C01B00F10708149866
:1026E000007800B1012000EB0A01019801EBE071D4
:1026F00005984144401A401E0590E00306D45B460D
:102700002146179A059800F05DF805441498007862
:1027100018B15A46179990476D1CE00324D55B46C3
:102720002146179A059800F04DF805441CE00498DE
:10273000002807DBDDE90301884203DD0098405CE7
:10274000179901E0179930205A469047049805F1EF
:102750000105401C04900198401E019004D12E20D8
:102760005A46179990476D1CBAF10001AAF1010A67
:10277000DDDC05E017F8010B5A46179990476D1CF0
:10278000B8F10001A8F10108F4DC5B462146179A74
:102790000598ABE62D0000002B0000002000000093
:1027A0002DE9F041044600251E461746880404D44E
:1027B00005E039462020B0476D1C641EF9D5284637
:1027C000BDE8F0812DE9F041044600251E46904603
:1027D000C80301D5302700E02027880404D505E090
:1027E00041463846B0476D1C641EF9D52846BDE801
:1027F000F0814A68002A06D00A68531C0B601070EA
:102800004868401E486070472DE9FC5F06468A46CE
:102810001746B068D0F834B03468B0685246016CDE
:10282000584604F03BFE8046D8F8080013281AD119
:10283000D8F80050F069A84215DDE06A00EB0510F9
:10284000007A00F03F00397A01F03F0188420AD156
:10285000E06A00EB05113A46002006F0F7FB10B1E4
:102860002846BDE8FC9FD4F81090F5694046E9176A
:10287000C0E9005113218160681C216981420CDA92
:102880001CA06FF07C41CDE90010102304F1100270
:102890005846E16A05F096FBE06207E000224846F0
:1028A00009F10109E36A03EB0010826020694845E1
:1028B000F4DCE16A01EB051097E80E1080E80E10D9
:1028C000F069401CF061387A00F0400070B1607926
:1028D00000F0040050B13868407900F0030028B1DE
:1028E000214658463A6803F04CFC00E000BF2846F9
:1028F000B7E70000636F6E7374616E74730000005D
:102900002DE9FC470746D7F834903D6B2C68286AC0
:10291000E16988421EDBD4F81C80286A401CE1690A
:1029200088420BDD19A01C49CDE90010042304F1F5
:102930001C024846616B05F045FB606306E000221F
:10294000404608F10108636B43F82020E0694045E8
:10295000F5DC00BF484604F094F906462A6A511C8B
:102960002962616B41F82200607900F0040048B1EF
:10297000707900F0030028B132462146484603F042
:1029800000FC00E000BF3046BDE8FC8766756E6362
:1029900074696F6E73000000FFFF03002DE9F047BC
:1029A00006460F4690461D46D6F83090A7EB080421
:1029B00028780D2802D028780E280FD1641C002C0E
:1029C00000DA002422462946484605F03EFA012C4A
:1029D00018DD611E484605F08FF913E0287818B11C
:1029E0002946484604F01EFF002C0BDD99F82CA068
:1029F0002146484605F080F922465146484605F0F2
:102A000023F800BFB84508DD306B90F82C00A8EB28
:102A10000701401A316B81F82C00BDE8F0872DE9E1
:102A2000F04703460C46A579DF68A7EB0216D86885
:102A3000002114E0DF6807F1100CC3F80CC006EBAE
:102A4000011ADAE900C8DAE9029AC7E900C8C7E959
:102A5000029A002706EB011CCCF80870491CA94219
:102A600001DA9142E6DB09E04FF0000CD3F80C806C
:102A700008F11007DF60C8F808C0491CA942F3DB61
:102A8000BDE8F08770B506460C46356B95F82A0010
:102A9000204485F82A0008E095F82A00011B284602
:102AA00002F096FA29694160641E002CF4D170BDD1
:102AB00010B50246906813280ED1D2E90001002417
:102AC0002346241A8B4106DA4FF000440023241ACF
:102AD0008B4100D310BD00BF0020FBE7F0B58FB0E5
:102AE00004460D461646287A082802DB287A0A286A
:102AF00003DD2AA1204608F035FF2C2120460CF0EA
:102B000055F8E0B1009502A920460BF047FF9DF86B
:102B100008000A2804D002AA2946204600F0CAFA72
:102B2000626BB2F86E20911920A3C822206B00F0CE
:102B300084FB721C69462046FFF7D0FF1EE03D2152
:102B4000204600F0DAFB08A9204601F094FA074677
:102B5000B74206D008AB3A4631462046FFF71EFF83
:102B60000BE008A9206B05F04DF908AA05F1080152
:102B7000206B05F09AF90FB0F0BD00BF206B90F804
:102B80002C00421E072108A802F004FC08AA05F147
:102B90000801206B05F089F900BFECE773796E74CA
:102BA0006178206572726F720000000043206C65CE
:102BB00076656C73000000002DE9F04705462C692E
:102BC000D4F85090082084F83D00002020616879F6
:102BD00000F0030018B1294620460AF0ADFF30206E
:102BE000005D00F0400040B1A06A407900F00300B1
:102BF00018B12046A16A0AF09FFF204609F044FA66
:102C000020460BF0D4F820460AF006FB2669C4F8EB
:102C10004C9020460AF000FB00202061204600F086
:102C200045FF00222046616D00F0D0FB00222046C7
:102C3000E16D00F0CBFB676DD4F85C802069064441
:102C4000002120460BF05BFA0120E066204609F0E7
:102C50000BFA20460AF0E0FA00202061204600F03E
:102C600025FF00222046A16D00F08CFB00222046AB
:102C7000E16D00F087FB3A462046616D00F0A6FB4F
:102C800042462046E16D00F0A1FB204605F05DFDC7
:102C900094F83C0080F0030084F83C00206906446E
:102CA0003046BDE8F0872DE9F84304460E469046CD
:102CB0004146204605F0E0FD0746B068452802D0B1
:102CC000002500202AE03946306804F081FA0546E4
:102CD000A86808B9002021E0E06810F8080C00F0AE
:102CE000400080B13068407900F0040058B1E068DD
:102CF00050F8100C407900F0030020B120463168F4
:102D000003F059FA00E000BFE06850F8101DD0E968
:102D10000123C06885E80E00E860012018B1E06872
:102D20001038E06016E0E068394601600A7942F048
:102D300040028260E0681030E0600095E068A0F139
:102D40002003A0F110023146204608F09BFAE0680B
:102D50002038E060BDE8F8837FB50446256B00228B
:102D60006946284601F044F820460BF08AFD2846C3
:102D700002F0DDFE7FBD02461069B0F5837F0FD003
:102D800006DCB0F5827F09D0A0F2051068B906E034
:102D9000A0F2151038B10C2807D102E000BF00BF27
:102DA00000BF012070470846FCE70020FAE700005A
:102DB000F0B591B004460F4615461E462046FFF773
:102DC0009FFD05900598466201AA05A9204609F0D5
:102DD000FEFB2821204600F090FA45B1042212A102
:102DE000204609F071FA01212046FFF74BFE2046EC
:102DF00009F044FC2921204600F07FFA20460BF020
:102E000040FD606805998862334640F20912D11E80
:102E1000204600F093F93946204600F06DFC20462C
:102E200000F008FB11B0F0BD73656C660000000097
:102E30007FB505460C4668460460012181606A46FC
:102E400069462846FFF7E0FC04B070BDF8B50446BB
:102E50000CA1606B05F010FD0646206B0069009028
:102E6000606C00F1180100233246204609F03EFA5A
:102E70000546606C806900EB0511204601F029FAD7
:102E8000F8BD0000627265616B00000070B5044619
:102E9000256903E000212046FEF74AF8286E002845
:102EA000F8D170BD70B505460C4600266069001D5E
:102EB0006061A06890F8220000F0020060B1A06894
:102EC000406910F8040C00F03F00252804D1608C04
:102ED00040F02000608404264FF0FF32314628463F
:102EE00003F0C2FA6069001F606170BD70B50446EE
:102EF0000D462069A84203D02946204600F0CAFFAB
:102F000070BD000070B504462BA0411C2CA22046C9
:102F100000F0A2F92046FEF779FA02462AA00178CD
:102F200030392AA00078303801EB0010824203D0FB
:102F300027A1204600F092FF2046FEF767FA18B15D
:102F400028A1204600F08AFF2BA22EA1204600F0E7
:102F500083F92EA20421204601F058F92CA2042165
:102F6000204601F053F92CA20421204601F04EF92D
:102F70002CA20821204601F049F92DA20821204663
:102F800001F044F92046FEF792FB45F27863584081
:102F9000084303D029A1204600F060FF2046FEF739
:102FA00090FB054600222B4BFDF77AFB03D02AA1AC
:102FB000204600F053FF70BD1B4C756100000000FF
:102FC0006E6F7420610000003300000035000000C7
:102FD00076657273696F6E206D69736D6174636875
:102FE00020696E00666F726D6174206D69736D612A
:102FF00074636820696E0000636F72727570746527
:103000006400000019930D0A1A0A0000696E74002A
:1030100073697A655F740000496E737472756374C6
:10302000696F6E006C75615F496E746567657200EB
:103030006C75615F4E756D6265720000656E6469E6
:10304000616E6E657373206D69736D617463682062
:10305000696E000000287740666C6F617420666FAF
:10306000726D6174206D69736D6174636820696E3F
:10307000000000002DE9F04105460C4694F83E00A2
:10308000012815D0E668D4E90710C21700EB927248
:10309000B1EBA20F06DA276A07EBD770411028467A
:1030A00005F05BFCE168891B60690844606100BF52
:1030B000BDE8F0812DE9F84F07460C461546D7F8D4
:1030C000308098F82C604FF000091CE0207A0A2824
:1030D00018D1E07C2978884208D1A07CA968884270
:1030E00004D14FF001090821E174A674287808285A
:1030F00008D1B4F91000A968884203D14FF0010942
:1031000031B221822468002CE0D1B9F1000F13D034
:103110002878082801D1002000E005208246002000
:103120000090324651464046AB6804F063FA0121F4
:10313000404604F0E1FD00BFBDE8F88F2DE9F84FEF
:1031400004460F4616461D46394620460BF02EFD16
:10315000E8B96068A84204D13946204600F09AFEDA
:1031600015E03146204608F007FC814639462046E6
:1031700008F002FC824600954B46524605A1606B62
:1031800005F03BF980464146204608F0EBFBBDE8E0
:10319000F88F00002573206578706563746564207E
:1031A00028746F20636C6F73652025732061742011
:1031B0006C696E65202564290000000070B5044626
:1031C0000D462068A84212D1A06B0168481EA26B70
:1031D000106031B1A06B4168481CA26B5060087848
:1031E00002E0A06B08F036FC2060012070BD0020DA
:1031F000FCE770B504460D4629782068884203D064
:1032000069782068884216D1204621680AF00EFFAE
:10321000A06B0168481EA26B106031B1A06B4168C1
:10322000481CA26B5060087802E0A06B08F012FC0A
:103230002060012070BD0020FCE72DE9F041074629
:103240000D4614461E46A54204DD32462146384648
:1032500000F03CFEBDE8F081FEB507460D4616467F
:103260002846FCF7FFFF0446224669463846FEF72B
:10327000B7F8224669462846FDF709F818B13146E5
:10328000384600F0EBFDFEBD70B506460C4615460F
:1032900074B129782046FCF7DBFF48B923462A465B
:1032A00004A1304605F0A9F80321304603F040FBA5
:1032B00070BD0000617474656D707420746F206C53
:1032C0006F61642061202573206368756E6B202810
:1032D0006D6F64652069732027257327290000001E
:1032E00070B504460D4620460BF0E1FA064632461C
:1032F0002946204600F0B3FA70BD70B504460D466D
:1033000029462046FFF7F2FD204608F0E0FA70BD9E
:103310002DE9F04104460D461746E068466817E07F
:10332000286800EB06100068B84210D1296801EB4C
:1033300006118B68A16807F11002486B07A105F020
:103340005CF880464146A0680AF0CFFE00BF761CBC
:103350006868B042E4DCBDE8F08100006C61626541
:103360006C202725732720616C7265616479206465
:103370006566696E6564206F6E206C696E652025D8
:10338000640000002DE9F04780460C46174619E01E
:103390002646F27901209040316901EB40193569E8
:1033A0000DE0A86850B105F11001404602F014F993
:1033B00020B10020A86028460AF02AFD20354D459E
:1033C000EFD3E469BC42E3D1BDE8F0872DE9F05FBB
:1033D00082460D46904629E02E46F2790120904023
:1033E000316901EB401B00270BE0F06800EB071987
:1033F0004946504602F0F0F810B10020C9F8080024
:103400007F1CB068B842F0D834690CE0A06848B1BD
:103410002146504602F0E0F820B10020A06020468E
:103420000AF0F6FC20345C45F0D3ED694545D3D174
:10343000BDE8F09F2DE9F0410646776B356B2C68AF
:1034400000221146284604F064FC284602F06FFB77
:103450002869401CB0F1804F03D3384604F02AFE9F
:1034600000E000BF28698300606982003846216B54
:1034700004F0EEFD2063286960612869401CB0F10A
:10348000804F03D3384604F015FE00E000BF2869E2
:103490008300A06982003846A16B04F0D9FDA063C7
:1034A0002869A061E869401CB0F1805F03D3384609
:1034B00004F000FE00E000BFE8690301206902019A
:1034C0003846E16A04F0C4FDE062E8692061286AD8
:1034D000401CB0F1804F03D3384604F0EBFD00E010
:1034E00000BF286A8300E06982003846616B04F0FF
:1034F000AFFD6063286AE061B5F9280000EB400089
:103500008300206A00EB400082003846E16B04F043
:103510009FFDE063B5F92800206295F82B00C300F9
:10352000E068C2003846216C04F092FD206495F8F2
:103530002B00E060686830633869C068002803DDEC
:10354000384602F0C3FE00BFBDE8F08170B5044606
:1035500025692046216A03F08BFA204602F040FEDE
:10356000D5F8800000B100BF2069006A82002069A0
:1035700000238169204604F06BFD204601F0E4FA47
:10358000211F00234FF44E72D5E90060B04770BD93
:103590002DE9FC5F074688469146386B0190786CB0
:1035A00000F10C04206800EB0816307B99F80C1031
:1035B000884216DA317B019801F00AFDD0F800A0AC
:1035C0000AF110000090316801F11002B36813A1F4
:1035D000786B04F012FF8346594638460AF085FDA1
:1035E00000BFD9F804207168019804F09EFA45469E
:1035F0000BE0206800EB05110246681C02EB001C82
:103600009CE80D10A1E80D106D1C6068401EA842DA
:10361000EFDC6068401E6060BDE8FC9F3C676F7433
:103620006F2025733E206174206C696E65202564CF
:10363000206A756D707320696E746F2074686520E0
:1036400073636F7065206F66206C6F63616C2027F9
:103650002573270070B505460C46207800B970BD6B
:103660002146284604F0DEF800202070606A3228E7
:1036700008D1D4E90823A0698168284604F080FBBA
:103680000020606200BFEAE7F8B507460C46154621
:103690001E46384604F0F5F82B46224603213846EC
:1036A000009603F0A7FFF8BD2DE9F84F06460F4638
:1036B00014461D46DDF828802946304604F03CF8C3
:1036C00081462146304604F037F882462A46214694
:1036D000304601F0A9F95346002239463046CDF86C
:1036E000009003F087FFA0600C2020704146304618
:1036F00004F0C0F8BDE8F88F2DE9F04104460D460E
:10370000206B4668306A431E00222C21304603F0AD
:1037100084FF07463A460C21284601F03BFE294625
:10372000304604F07FF8BDE8F0812DE9F84F81467E
:103730000D4614461F462078042803D1A06840F4A3
:10374000807000E0A06880463946484603F0F4FFE8
:1037500006463A462146484601F066F9102D04D047
:10376000112D0BD0122D18D109E0434600221F2144
:103770004846009600F0D5F8A0601BE000BF05F1B8
:103780000F0000F0FF0A3346012251464846CDF8AB
:10379000008000F0C6F8A0600CE005F1120000F017
:1037A000FF0A4346012251464846009600F0B9F808
:1037B000A06000BF00BF0B202070BDE8F88F70B57F
:1037C00005460C462E2040EA8411284603F0D2FE1E
:1037D00070BD38B505460C462146284603F06BFF00
:1037E00020780D282CD2DFE800F02B070E080B0CF8
:1037F0000D172B2B2B11160000BF0220207020E08C
:1038000000BF00BF00BF032020701AE021462846F9
:1038100008F00DFD15E000BF2146284600F054FADF
:103820002146284601F0F5F80020009002461B21B1
:103830002846A36803F0DEFEA0600C20207000E0A4
:1038400000BF00BF6069216961612061284661692C
:103850000AF0EAFA284621690AF0E6FA38BD2DE9AD
:10386000F04104460D4616463146206B04F060FBDD
:1038700007463A460421284601F08CFDBDE8F08158
:103880002DE9F84306460F4614461D4621463046AC
:1038900003F097FF80462146304601F0BAF8002039
:1038A0004346024639460090304603F0A3FEA0602E
:1038B0000C2020702946304603F0DCFFBDE8F88379
:1038C000F0B502460B460025002600200024012109
:1038D0000CE052F824703FB152F824703D44B5EB2F
:1038E000510F01D908462E46641C49001F68B7EBEA
:1038F000510FEED81E60F0BD10B586B00446694683
:10390000204600F0D2FB9DF80000012802D10320E0
:103910008DF800006946206B03F0E2FF059806B0C1
:1039200010BD2DE9F84304460D4616461F46DDF846
:1039300020803B46324629462046CDF8008003F0E1
:1039400059FE204604F06AF8BDE8F8832DE9F043FB
:103950008FB007468846144699460AA920460BF0C0
:1039600035F950B106A948460BF030F928B106AA3E
:103970000AA940460BF049FD18B900200FB0BDE878
:10398000F08302A80090B96806AB0AAA486B4146CA
:1039900004F0ACFB0498132806D106202070DDE962
:1039A0000201C4E9020116E0DDE902562A46334667
:1039B00028463146FCF774FE06D1002213462846FD
:1039C0003146FCF76DFE01D10020D7E705202070BD
:1039D000C4E9025600BF0120D0E72DE9F0418CB0C8
:1039E00004460F46256BD4F80480002003460246A7
:1039F0000B210090284603F0FDFD064600200B90A9
:103A000009900A90089732460C21384601F0C2FC12
:103A10000022114602A801F0BDFC3946206B03F0DC
:103A200001FF7B212046FFF768FC00BF20697D284D
:103A300000D113E002A92846FFF70CFE02A9204698
:103A400000F004FC2C2120460BF0B0F80028EDD14A
:103A50003B2120460BF0AAF80028E7D100BF4346DF
:103A60007B227D212046FFF769FB02A9284602F050
:103A700031F80A9804F0A8FC2968096B51F826105F
:103A800060F3DF512868006B40F82610099804F0B5
:103A90009BFC2968096B51F8261060F39631286861
:103AA000006B40F826100CB0BDE8F0812DE9F04124
:103AB000044600BFA76D0020A065002609E0EF695D
:103AC000294620460BF00AF918B1204609F0A4FB5C
:103AD00001263D00F3D1002EECD1BDE8F0812DE9A7
:103AE000F04105460C4617464FF0000800BFA5EB15
:103AF000041000680079042804D1A5EB04100068C4
:103B0000C07903E0A5EB04100068C06806463246A1
:103B1000A5EB04131B6803F1100107EB0800FCF789
:103B200085FBB044601E041EE1DCBDE8F08130B5C9
:103B30000A46C568AD1A2D11046A04EB0514C46069
:103B4000436A07E0046A1D68AD1A2D1104EB0514E1
:103B50001C609B68002BF5D141691AE0046A4D682E
:103B6000AD1A2D1104EB05144C60046A0D68AD1AF2
:103B70002D1104EB05140C6091F8224004F00204AE
:103B800034B1046A0D69AD1A2D1104EB05140C61F2
:103B900089680029E2D130BD2DE9F04107460C4685
:103BA0003846FEF785FF054655B1284604F068FB08
:103BB00004EB80063068401C30600120BDE8F081D5
:103BC0000020FBE72DE9F04781460E461746984650
:103BD00006F1110A52463946484602F04DFB0546A9
:103BE0002C46C4F808800020A071002104F11000C8
:103BF00081552046BDE8F08710B50446206800686E
:103C0000C068806B48B1204600F00AF82168096856
:103C1000C968896B51F8200010BD4FF0FF30FBE7F9
:103C200001460A6848691268D268126B801A01223C
:103C3000C2EBA0007047000010B56FF00400FDF764
:103C400015FF0A4800680A49B0FBF1F009490870FD
:103C50000846007800EB4001C1EBC0104FF6FF7141
:103C600001EAC0000449088010BD000000000020E7
:103C700000127A0014000020160000200146114AAC
:103C800012884A434FF0E0235A6100229A611A4693
:103C9000126942F001021A6100BF4FF0E022106980
:103CA00000F001021AB100F48032002AF5D04FF082
:103CB000E022126922F001024FF0E0231A61002293
:103CC0009A6170471600002070B504460D462878AA
:103CD00007280AD00121204604F00EF894F82C00A1
:103CE000421E2946204600F001F870BD2DE9F84338
:103CF00006460C4615462146304603F0DCFC20788B
:103D00000D2854D2DFE800F053070E0D1D23304775
:103D1000535353533D0001222946304603F094FE8D
:103D200047E000BF002000902078022801D1012048
:103D300000E0002003462A460321304603F05AFCE7
:103D400037E029463046A26803F076FC31E0D4E93A
:103D500002733A46304603F0BFFE81464A46294682
:103D6000304603F069FC24E0D4E902733A46304659
:103D700003F03EFE81464A462946304603F05CFC8D
:103D800017E03168096BA26801EB8200016865F3F6
:103D90008D1101600DE0A068A84207D000200090BE
:103DA0002A4601463046A36803F024FC01E0BDE842
:103DB000F88300BFA5600720207000BFF7E738B583
:103DC000044620690090FF2320462269A16908F07B
:103DD000A1FC4FF0FF30A06138BD70B504460D4620
:103DE000E068A0F120010022204602F0EEFA70BD4A
:103DF0008A7390F82A300B7383685B6CDB694B60C5
:103E000083685B6C1B698B6000234B73C3680B601A
:103E1000C160704770B50446656B35F86E0F401C85
:103E2000288035F86E1903A3C822206BFFF705FA26
:103E300070BD000043206C6576656C730000000067
:103E400070B505462C69022084F83D00012204F17A
:103E5000400128460AF0F3FD606470BD70B5044669
:103E60000D462B4604A1A268206804F0C6FA03217F
:103E7000206802F05DFD70BD25733A202573207027
:103E80007265636F6D70696C6564206368756E6BD5
:103E9000000000002DE9F04104460D462946204669
:103EA00007F06AFD07463A4605A1606B04F0A5FAE3
:103EB00006463146204607F055FDBDE8F08100007A
:103EC0002573206578706563746564002DE9F84F8B
:103ED00004460D469046A068D0F834902068476AA2
:103EE0000FB90BA004E03A460DA1484604F085FA4C
:103EF00082462B4642460FA14846CDF800A004F06A
:103F00007CFA06463146A06807F02CFDBDE8F88F24
:103F10006D61696E2066756E6374696F6E00000076
:103F200066756E6374696F6E206174206C696E656E
:103F300020256400746F6F206D616E7920257320D9
:103F4000286C696D69742069732025642920696E65
:103F50002025730070B504460D461646EDB920685D
:103F6000401CA0B1204621680AF060F8A06B0168EF
:103F7000481EA26B106031B1A06B4168481CA26B57
:103F80005060087802E0A06B07F064FD206040F20A
:103F900025123146204601F01BFE70BD30B587B0BA
:103FA00004466946204600F080F86946206B03F01D
:103FB00039FC029D284607B030BD2DE9F84F064672
:103FC0000C4615462A4621463046FFF78FFE2078DC
:103FD0000B2805D104F110013046A26803F049FB1B
:103FE000D4E9040188423DD04FF0FF37B84630464F
:103FF000216908F003F920B93046616908F0FEF83C
:10400000E0B120780B2802D14FF0FF3002E03046BB
:1040100003F004FD81460123002229463046FFF7C4
:1040200033FB07460023012229463046FFF72CFBCD
:1040300080464946304603F08CFD00BF304603F011
:1040400020FC824600972B4652463046616908F0B4
:1040500061FBCDF800802B4652463046216908F0BE
:1040600059FB00BF4FF0FF3020616061A560072061
:104070002070BDE8F88F70B504460E460125314624
:10408000204600F012F808E03146206B03F0CAFB2E
:104090003146204600F009F86D1C2C2120460AF01C
:1040A00085FD0028F0D1284670BD70B504460D4648
:1040B0000022294620460AF015FC70BD30B589B0B3
:1040C0000446256B02A920460AF068FC20693D28B9
:1040D00002D020692C2807D10020009001226946D7
:1040E0002046FEF7FBFC15E09DF808000D2803D0E4
:1040F00009A1204607F036FC2868016B049851F8A6
:1041000020000949084040F480412868026B049867
:1041100042F8201009B030BD73796E746178206563
:1041200072726F7200000000FF3F80FF70B506469C
:104130000C4625463046D5E9001202F046F970BD1E
:1041400070B504460E462569214620460AF098FAC5
:104150002946204601F025F9204604F05BFB204665
:1041600004F024FD204607F04BFB012085F83F00BA
:10417000002007F067FEC5F8800070BD2DE9FC4106
:1041800080460D462C4620680168481E2268106053
:1041900031B120684168481C22685060087802E00C
:1041A000206807F057FC074612A00078B8420BD1F0
:1041B00012A24046616BFFF767F84046A26B216888
:1041C00004F0BAFD06460FE00EA24046616BFFF711
:1041D0005BF8A06BCDE9000704F11003221D4046F7
:1041E000216807F0EFFB06463146404602F0FAFC34
:1041F000BDE8FC811B4C75610000000062696E61C6
:104200007279000074657874000000002DE9F041B7
:1042100004460D4616462046FDF7F8F8A84209D098
:10422000324605A1206804F0E8F8074639462046E2
:10423000FFF714FEBDE8F08125732073697A6520CD
:104240006D69736D6174636820696E0070B50446B2
:104250000D4620695B2811D0B0F5927F13D120461E
:1042600007F0F6FA3D2804D02946204601F0D4FC98
:1042700003E02946204609F0CFFC09E02946204604
:1042800009F0CAFC04E02946204601F0C5FC00BF45
:1042900000BF70BD70B586B004460D46266B29463A
:1042A000304603F0B0FA204607F011FB694620467D
:1042B000FFF716F86A462946304603F045FB06B07C
:1042C00070BD02468A4202DA4FF0FF307047104656
:1042D000FCE72DE9F04105460E46686C00F10C073D
:1042E000286BC06884680DE0386800EB0410006833
:1042F0003168884205D1324621462846FFF748F901
:1043000000E0641C7868A042EEDCBDE8F0812DE995
:10431000F04704468A46206BD0F80C80656CE8684C
:1043200000EB0A19D8F8047023E0A86900EB07161F
:104330003068D9F8001088421AD199F80C00317B06
:1043400088420DDD98F80D0020B9E869D8F804100E
:10435000884205DD327BD9F80410206B03F0CCFBDA
:10436000324651462046FFF713F90120BDE8F08799
:104370007F1CE869B842D8DC0020F7E700E000685D
:1043800001680029FBD170472DE9FC5F8146884612
:1043900014464FF0FF3001904FF0000A00255BE01B
:1043A000D9F8300050F8257007F03F0BC7F3871697
:1043B000BBF1240F28D006DCBBF1040F0AD0BBF1FF
:1043C0001E0F39D129E0BBF1250F1ED0BBF1290FFB
:1043D00032D110E040F2FF1000EAD7500090A64220
:1043E00008DC00983044A04204DB51462846FFF721
:1043F00068FF01902EE0B01C844204DB5146284641
:10440000FFF75FFF019025E000BFB44204DB514697
:104410002846FFF756FF01901CE0124A02EA973245
:10442000114BD11A6A1C5018854204DA404502DC4F
:10443000504500DD82460DE00C4810F80B0000F0FE
:10444000400030B1B44204D151462846FFF739FF4D
:10445000019000BF00BF6D1C4545A1DB0198BDE880
:10446000FC9F0000FFFF0300FFFF0100D0F90008E0
:104470002DE9F04104460D4617462068006B00EB1D
:104480008508681C3E1A301E01DB014600E04142EF
:10449000B1F5003F03DB07A1A06807F063FA6FF4F2
:1044A00000303118D8F8000061F39F30C8F80000E0
:1044B000BDE8F081636F6E74726F6C2073747275F7
:1044C000637475726520746F6F206C6F6E67000087
:1044D0002DE9F041C1F30A52A2F2FF362F4A304BC8
:1044E0000D460446142E2FDA002E12DAFBF705FFD4
:1044F00000221346FCF7ECF84CD2002DA4BF002498
:10450000254647DA25F00040204318BF254D41D00D
:1045100018E0DFF894C02CFA06F705EA070C5CEA0D
:10452000040C08BFBDE8F081FBF7E7FE002213464C
:10453000FCF7CEF82ED2002D03DA4FF48010F040B5
:104540000544BD43002425E0332EC8BFBDE8F081FB
:10455000A6F1140C4FF0FF3727FA0CF73C4208BFC6
:10456000BDE8F081FBF76DFF00221346FCF7B0F8C1
:1045700010D2002D0DDA142E08BF6D1C09D0C6F123
:104580003400012101FA00F02044A04238BF6D1C24
:104590000446BC4329462046BDE8F0819C7500884E
:1045A0003CE4377E0000F0BFFFFF0F0070B51446FB
:1045B0001D460E46002814BF01210021314321F081
:1045C0000041C1F17F6101F1E041C90F16D1002C1A
:1045D00014BF01210021294321F00041C1F17F6175
:1045E00001F1E041C90F09D11449B1EB460F08BFF1
:1045F00000281CD0690008BF002C18D03146FCF7F9
:104600005DFA024640F2FF7030EA11500DD0F0170B
:10461000B0EBE17F09D0084665F31E0084460B46E7
:1046200020466146FBF70DFF0246104670BD012093
:10463000FDF788FCBDE87040FDF75EBC0000E0FFC0
:104640002DE9F04F85B006460C4617461D46DDF8AD
:104650003880D6F830A003213046FEF713FA40F236
:1046600003113046FEF749FEB8F1000F06D0264B85
:1046700022462821504602F0D0FF02E0504603F0C7
:10468000CDF98146002201A95046FFF7B1FB29462A
:104690003046FEF7F7F92946504603F02DFB304629
:1046A000FEF75AFB504601F042FA4946504603F0E5
:1046B00050FAB8F1000F07D0134B2246272150467D
:1046C00002F0ABFF834611E0002322462921504629
:1046D000009502F08FFF3946504603F0CBF80A4BA5
:1046E000A21C2A21504602F098FF834609F10102DC
:1046F0005946504603F019FA3946504603F0BAF8C5
:1047000005B0BDE8F08F0000FEFF01002DE9FC417F
:1047100006460F4614461D46DDF820800020C8F8E6
:10472000000000210846611A75EB000001DA022042
:1047300000E0012002463946304606F0B9FFA0BB32
:10474000B068032805D1D6E90001CDE900010120B8
:1047500003E06946304607F019F810B90020BDE8BB
:10476000FC8100200146DDE90023FBF799FF0ED212
:104770004FF0FF314808C7E9001000210846611AD0
:1047800075EB000010DA0120C8F800000CE00021F1
:104790004FF00040C7E900100846611A75EB0000B1
:1047A00002DB0120C8F8000000BF0120D7E70000AD
:1047B0002DE9F04788B004468846256B042695F815
:1047C0002C900F2220A1204607F07EFD0B2222A173
:1047D000204607F079FD0D2222A1204607F074FD46
:1047E0004146204607F038FD08E020460AF05FF811
:1047F00082465146204607F02FFD761C2C2120468C
:104800000AF0D4F90028F0D14FF486712046FEF763
:1048100074FD676802A92046FFF72DFC824602ABB3
:10482000524603212046FEF7B9F80321284602F03C
:1048300075FE0020F31E3A46494600902046FFF7D9
:10484000FFFE08B0BDE8F08728666F722067656ECE
:10485000657261746F72290028666F7220737461CB
:104860007465290028666F7220636F6E74726F6CB6
:10487000290000002DE9F84305460E4617462C6B2B
:1048800094F82C800B2221A1284607F01DFD0B2255
:1048900021A1284607F018FD0A2222A1284607F088
:1048A00013FD3146284607F0D7FC3D212846FEF788
:1048B00024FD2846FFF772FB2C212846FEF71DFD3C
:1048C0002846FFF76BFB2C2128460AF06FF918B138
:1048D0002846FFF763FB0FE001220023204603F088
:1048E00087F8814694F82C104A46204602F0A4FE30
:1048F0000121204603F000FA012003463A464146D2
:1049000000902846FFF79CFEBDE8F88328666F728A
:1049100020696E646578290028666F72206C696D65
:104920006974290028666F7220737465702900000D
:104930002DE9FF4104460D46266B012269463046AB
:10494000FFF756FA204606F0C2FF204609F0AFFFF7
:10495000074620692C280BD03D2803D0B0F5867F70
:104960000CD106E02A4639462046FFF783FF0AE0CD
:1049700000BF39462046FFF71BFF04E008A1204690
:1049800006F0F0FF00BF00BF2B464FF48472911E6B
:104990002046FEF7D3FB304601F0C9F8BDE8FF81A1
:1049A000273D27206F722027696E27206578706564
:1049B000637465640000000000BF054A128802F0BD
:1049C0004002002AF9D0C2B2014B1B1D1A80704769
:1049D000003801402DE9F04107460C46002509E06A
:1049E00004F1100050F825601EB13146384601F040
:1049F000BAFC6D1CA079A842F2DCA079401E8000B0
:104A000000F1140200232146384603F021FBBDE8E3
:104A1000F08170B505460C462078072803D128465A
:104A2000A16800F083F870BD2DE9F04180460C4686
:104A300015462078072801D1A06801E04FF0FF302B
:104A400006462878072801D1A86801E04FF0FF301A
:104A50000746BE4208DD3146404600F067F8394659
:104A6000404600F063F807E03946404600F05EF843
:104A70003146404600F05AF8BDE8F08170B5054671
:104A80000C46207908282AD008DC042835D00528CF
:104A900020D006280ED0072845D125E0092804D0CB
:104AA000142837D026283ED109E02146284602F0B6
:104AB0003FF839E021462846FFF78CFF34E0A07923
:104AC000401E000100F1200200232146284603F089
:104AD000BFFA29E02146284602F0B6FA24E0214632
:104AE000284601F08CFF1FE0E06800F11802002367
:104AF0002146284603F0ACFA16E02146284603F08A
:104B000011FFE07900F1110200232146284603F04D
:104B10009FFA09E0E06800F11102002321462846CF
:104B200003F096FA00E000BF00BF70BD01F4807290
:104B30004AB990F82A208A4205DC90F82C20521EAF
:104B400080F82C2000BF704710B50446206A00B9D9
:104B500010BD04F134006061204601F03CFF206E7E
:104B6000020100232046216A03F072FA00BFEFE73A
:104B700010B5144600222260114A21F000439342EE
:104B8000A8BF10BD53EA000208BF10BDB3F5801FD7
:104B9000A8BF226807DA3622FBF728FF6FF035023C
:104BA00021F000432260DFF81CC06FF31E510CEBB4
:104BB00023531A4441F0FF5141F00051226010BDCF
:104BC0000000F07F02FCFFFF2DE9F04788B00446AB
:104BD0000E461746D4F830802069282805D07B2857
:104BE0001ED0A0F2251048BB1FE0204606F06FFE45
:104BF0002069292803D100208DF8080009E002A9C6
:104C00002046FFF738FA4FF0FF3202A9404603F082
:104C10001CF93B46282229212046FEF78FFA12E094
:104C200002A92046FEF7D9FE0DE002A92046A2699E
:104C3000FEF715FE204606F04AFE04E01BA12046C2
:104C400006F090FE00BF00BFB5689DF808000D2873
:104C500003D09DF808000E2802D14FF0FF390BE079
:104C60009DF8080018B102A9404602F0DBFD98F853
:104C70002C10681CA1EB0009022009F101032A464F
:104C800024210090404602F0B5FC824652460D2198
:104C9000304600F07FFB3946404602F0EBFD681CD1
:104CA00088F82C0008B0BDE8F087000066756E63D8
:104CB00074696F6E20617267756D656E74732065BF
:104CC000787065637465640070B504460D4600260F
:104CD0002946204609F001FC03E029462046FFF75B
:104CE000D9FA20692E28F8D020693A2804D1012663
:104CF00029462046FFF7CEFA304670BD70B58CB01D
:104D000004460D46204606F0E2FD06A92046FFF7C0
:104D1000DBFF06462B46324669462046FEF748F83A
:104D20006A4606A9206B03F0C0F82946206B02F002
:104D3000A1FD0CB070BD10B504460B46194648687D
:104D400008B9002010BD486810600020486008685D
:104D5000F8E701467E294AD016DC2F293FD00ADC2D
:104D6000A1F1250009285BD2DFE800F0353D5A5A51
:104D70005A332F5A31003C2945D03E2948D05E296C
:104D80002BD07C294CD130E040F21B12881A914282
:104D900040D011DC40F21712A1EB0200914220D06A
:104DA00005DCA1F2011080B30F2839D136E00128CB
:104DB00023D0032834D124E0012827D002281ED094
:104DC000032816D004282BD115E0002070470120BD
:104DD000FCE70220FAE70320F8E70420F6E70520C5
:104DE000F4E70620F2E70720F0E70820EEE70920C5
:104DF000ECE70A20EAE70B20E8E70C20E6E71020C2
:104E0000E4E70D20E2E70E20E0E705E00F20DDE714
:104E10001120DBE71220D9E71320D7E71420D5E7CC
:104E20001520D3E7F0B503460D4616465A6C0AB373
:104E3000DF681C6C00211AE004EBC100007928B186
:104E400004EBC100407906EB001005E004EBC10063
:104E5000407955F820000068844602F1100050F8AF
:104E600021000068604501D00020F0BD491CB94216
:104E7000E2DB00BF1046F8E70246D168536F002915
:104E800001DC00207047C82091FBF0F0411C6FF05E
:104E9000004090FBF3F0884202DD01FB03F001E0EB
:104EA0006FF0004001460846ECE70146486960B1F2
:104EB00007E04869203848614869806908B948694D
:104EC0007047D1E904209042F3D80020F8E70000B1
:104ED00070B506460D462946304607F019F80446D7
:104EE00000BF2A4604F11001002004F0AFF808B119
:104EF000204670BDE16909B90248FAE704EB4114A4
:104F0000EFE7000000F8000810B5044620462168CD
:104F100009F08CF8A06B0168481EA26B106031B1DB
:104F2000A06B4168481CA26B5060087802E0A06B3F
:104F300006F090FD20602068401C064A105C00F0DE
:104F4000100105A22046FFF705F8206803F02CFAAF
:104F500010BD000068F600086865786164656369E3
:104F60006D616C206469676974206578706563742D
:104F70006564000010B502461068006B50F821000F
:104F8000064C04EA90306410031B581C10B94FF013
:104F9000FF3010BD481C1844FBE70000FFFF030072
:104FA00010B503461868006B00EB810201290ADB8B
:104FB00012F8040C00F03F00044C205C00F080006C
:104FC00008B1101F10BD1046FCE70000D0F9000822
:104FD00010B502469068406C0068546A0C4430F981
:104FE00014301068C06B03EB430400EB840010BD69
:104FF0002DE9FF4F81B0064689461F464A46039970
:10500000491C304601F0CAFD3860386818B14AA022
:1050100005B0BDE8F08F49463046039AFFF7B4F972
:105020000546681C002874D0306B50F8254004F009
:105030003F08B8F10D0F79D2DFE808F0074A4B7846
:1050400078401718787878786E0040F2FF1000EA00
:10505000D45AC4F38710824506DA3B4652462946A5
:105060003046FFF7C5FFD3E761E000BFC4F38830E7
:10507000009040F2FF1000EAD45AB8F1070F06D1B1
:105080002A460AF10101304601F088FD03E051464D
:1050900030460AF097F983463B4629463046009A47
:1050A00000F014FBBBF1000F06D025A15846FBF71A
:1050B000E0F808B924A0ABE725A0A9E740F2FF106B
:1050C00000EAD45130460AF07DF9386022A09FE70B
:1050D00000BFB8F1010F03D1214800EA943007E086
:1050E000681C326B52F820006FF07C4202EA90108C
:1050F0000146F06A00EB0110007A00F00F0004286E
:1051000009D1F06A00EB011000681030386015A07A
:105110007EE70EE00AE00AE0C4F3883A3B465246D6
:105120002946304600F0D2FA11A071E700BF00BF57
:1051300000BF00206CE700006C6F63616C00000032
:105140005F454E5600000000676C6F62616C0000A6
:105150006669656C64000000757076616C75650049
:10516000FFFF0300636F6E7374616E7400000000D4
:105170006D6574686F640000014623290CD02D29E9
:1051800006D07E2906D0A1F20F1038B90220704750
:105190000020FCE70120FAE70320F8E70420F6E707
:1051A0002DE9F04106460F46904630680568002418
:1051B00010E005F1100050F824000068B84208D152
:1051C0002146E8680AF0FEF8C8F8000004A0BDE82F
:1051D000F081641CA879A042EBDC0020F7E7000016
:1051E000757076616C7565002DE9F84304460D46CF
:1051F00067684FF48571204609F0D8FC20B120463D
:1052000009F055FB804607E0204606F060FB0AA146
:10521000606B03F031FB80460095606C00F10C017F
:105220003B464246204607F061F806463146204696
:10523000FFF76DF8BDE8F883627265616B000000EE
:10524000F8B504460D46266B4FF0FF3000906946D6
:10525000204609F049FC03E06946204609F044FC79
:1052600040F2051120698842F6D0491E204609F017
:105270009DFC10B12046FDF76FFD2B4640F20B124E
:10528000511F2046FDF75AFF3046009902F061FC9D
:10529000F8BD000070B504462568A06B0168481E83
:1052A000A26B106031B1A06B4168481CA26B5060CA
:1052B000087802E0A06B06F0CDFB206020680A2889
:1052C00002D020680D2813D12068A84210D0A06B0E
:1052D0000168481EA26B106031B1A06B4168481C88
:1052E000A26B5060087802E0A06B06F0B3FB206070
:1052F0006068401C6FF000416060884204D1002269
:1053000002A1204600F064FC70BD00006368756E69
:105310006B2068617320746F6F206D616E79206CF3
:10532000696E65730000000030B5024653690029BC
:1053300009DD186800EB0114D068A04201D81348B9
:1053400030BD2046FCE71248814203DDD06800EB07
:105350000110F5E70E48814202D110692830EFE7CD
:105360000B48411A18688068162801D10748E7E7FA
:1053700018680468A079884205DB481E04F110050E
:1053800005EB0010DCE70148DAE7000000F8000850
:10539000D8B9F0FF4FF0FF330361436101708260C1
:1053A00070472DE9F04186B004460E46204601F0D4
:1053B00027FF054606F12800294601604522826044
:1053C00000230222204601F0E9FF02A821460160E5
:1053D000482282600122002329460090204602F0E4
:1053E00075F802AF204601F00BFF8046C7F8008039
:1053F0004520B86002A802220023294600902046DA
:1054000002F064F806B0BDE8F0812DE9FC47814662
:10541000884614461D46DDE90A67B8F10E0F52D2E0
:10542000DFE808F0070C101751511F272C31363DCB
:10543000464BA01945EB0701BDE8FC87A01B65EBB7
:105440000701F9E7A4FB060105FB061104FB0711A0
:10545000F2E722462B464846CDE9006706F052F8AF
:10546000EAE722462B464846CDE9006703F09AFD5D
:10547000E2E704EA060005EA0701DDE744EA060080
:1054800045EA0701D8E784EA060085EA0701D3E781
:1054900032463B462046294606F0E0F8CCE700239A
:1054A000724263EB07032046294606F0D7F8C3E7AC
:1054B0000021081B61EB0501BEE74FF0FF3184EAD4
:1054C00001006940B8E700200146B5E72DE9F04149
:1054D0000B3020F00706104D19E02068B04215D3BC
:1054E000B0420AD9871B201DD4F80480FAF79EFE2B
:1054F000A019C0E90078286004E060682860201DD9
:10550000FAF794FE201D2660BDE8F081251D2C6869
:10551000002CE2D10020F7E73C0000202DE9F04705
:1055200081468A461646D9F8105031465046AA6B35
:1055300003F04DF90746286A401E3840A96901EB7F
:105540008008D8F800401AE0E079B04216D132461F
:1055500004F110015046FAF79AFE78B9607980F0AC
:10556000030095F83C1081F00301084018B96079F8
:1055700080F0030060712046BDE8F087E468002CED
:10558000E2D1D5E9071081420EDB286AB0F1804FE5
:105590000ADA286A4100484603F0DFF9286A401E0B
:1055A0003840A96901EB80083B4604223146484651
:1055B000FEF708FB04463246514604F11000FAF7A4
:1055C00035FEE671D8F80000E060C8F80040E869F0
:1055D000401CE8612046CFE770B505460C46207AAE
:1055E00000F0400008B9002070BD207A00F00F00E4
:1055F00004280AD12068407900F0030018B1284639
:10560000216808F099FA0020EEE72068407900F060
:105610000300E9E710B502461069081A0311002BD0
:105620000CDB14695068001BB3EB201F06DA10690D
:1056300000EB0310884201D1012010BD0020FCE7DF
:105640000146086800782D2804D10868401C0860CD
:1056500001207047086800782B2802D10868401C98
:1056600008600020F5E7F8B504460D461646287890
:105670000C281BD12068006BA96850F8217007F036
:105680003F001B2811D12069401E20610EB9012066
:1056900000E00020009040F2FF1000EAD752002303
:1056A00022212046FEF73DF9F8BD00BF29462046DD
:1056B000FEF70AFB29462046FFF7ABF90096FF22CA
:1056C00023212046AB68FEF72CF9EDE72DE9F041E8
:1056D0000646884614461D4604F4807078B124F4CA
:1056E0008072F16A01EB0210017A01F00F010429C6
:1056F00004D1016810312960BDE8F0810CE02B462F
:10570000224641463046FFF773FC07461FB1387802
:10571000632800D1F0E700BF01A0286000BFEBE7DD
:105720003F0000002DE9F04106460D4617461C4695
:105730002CB92846FCF72AFB0020BDE8F081214661
:10574000284608F0C3F9F8E72DE9F84304460D466A
:105750006A4620462946FFF70BFA80460022134B83
:10576000FAF772FE04460D460022114B20462946E8
:10577000FAF7AEFF0DD800220E4B20462946FAF765
:105780008FFF06D220462946FAF764FF064601201D
:1057900010B90020BDE8F88300988119B1F1004FDD
:1057A00001D20846F6E7C843F4E700000000E041F4
:1057B0000000E0C30000E0432DE9F043B3B005462C
:1057C000894620A12846FAF788FD06461EB13078A2
:1057D00040F0200000E0002007466E2F03D100209B
:1057E00033B0BDE8F0833A464946284600F02EF82B
:1057F00004462CBB2E212846FAF72AFD804628466F
:10580000FAF730FDC82802D8B8F1000F01D1002006
:10581000E6E729466846FAF749FDFAF703FD00680E
:105820000078A8EB05010DF801003A4649466846A4
:1058300000F00CF8044614B16846201A441900BF61
:105840002046CDE72E78586E4E000000F8B504468D
:105850000D461646782E04D16946204609F034F8E4
:1058600003E06946204609F02FF8C5E900010098D9
:10587000A04201D10020F8BD02E00098401C009039
:1058800000980078401C0649085C00F008000028D9
:10589000F3D10098007808B90098ECE70020EAE717
:1058A00068F600082DE9F35F0F4600210C460D460F
:1058B0004FF0010802E00098401C0090009800782A
:1058C000401C4A49085C00F008000028F3D16846F3
:1058D000FFF7B6FE06460098007830282ED10098D3
:1058E0004078782803D000984078582826D100982E
:1058F000801C009017E00099087802F055FD4FF0E9
:1059000010094FF0000A2346A3FB092B05FB09BC35
:1059100004FB0AC3841843EBE0754FF000080098BD
:1059200000F1010000900098007800F101002F497B
:10593000085C00F010000028DDD134E029E0009878
:105940000078A0F130014FF0CC321009A21A75EBAB
:1059500000000BD34FF0CC321009121BA84102D328
:10596000F01D884202DA0020BDE8FC9F4FF00A0CCF
:105970004FF000092346A3FB0C2A05FB0CA004FBF7
:105980000900541840EBE175C846009800F1010089
:1059900000900098007800F101001449085C00F0C4
:1059A00002000028CBD102E00098401C0090009833
:1059B0000078401C0D49085C00F008000028F3D175
:1059C000B8F1000F02D10098007808B10020CBE7B1
:1059D0002EB100200146001B61EB050101E02046CD
:1059E0002946C7E900010098BEE7000068F60008F4
:1059F0002DE9F05F05460E4605F1100928790428C7
:105A000001D1E87900E0E868074606F1100830792E
:105A1000042801D1F07900E0F068824600BF4146D9
:105A20004846FAF741FC8346BBF1000F02D05846C6
:105A3000BDE8F09F4846FAF715FC0446544505D1E9
:105A4000BC4201D00120F3E70020F1E7BC4202D1C3
:105A50004FF0FF30ECE7641CA1443F1BA044AAEBCD
:105A6000040A00BFDBE72DE9F84F04460E4617464F
:105A7000D4F83080606C00F1180532462946404663
:105A8000FDF746FC4FF490712046FDF736FC40468A
:105A900001F0F7FE82463B463246294600902046FA
:105AA00006F024FC8146204608F0B6FD0021204681
:105AB000FDF761F930B1D8F80C00007B296801EBE3
:105AC00009110873286800EB09112046FEF701FC54
:105AD000BDE8F88F70B505460C46606A00B970BD28
